{
  "contractName": "Orbs",
  "abi": [
    {
      "inputs": [],
      "stateMutability": "nonpayable",
      "type": "constructor"
    },
    {
      "anonymous": false,
      "inputs": [
        {
          "indexed": true,
          "internalType": "address",
          "name": "owner",
          "type": "address"
        },
        {
          "indexed": true,
          "internalType": "address",
          "name": "approved",
          "type": "address"
        },
        {
          "indexed": true,
          "internalType": "uint256",
          "name": "tokenId",
          "type": "uint256"
        }
      ],
      "name": "Approval",
      "type": "event"
    },
    {
      "anonymous": false,
      "inputs": [
        {
          "indexed": true,
          "internalType": "address",
          "name": "owner",
          "type": "address"
        },
        {
          "indexed": true,
          "internalType": "address",
          "name": "operator",
          "type": "address"
        },
        {
          "indexed": false,
          "internalType": "bool",
          "name": "approved",
          "type": "bool"
        }
      ],
      "name": "ApprovalForAll",
      "type": "event"
    },
    {
      "anonymous": false,
      "inputs": [
        {
          "indexed": true,
          "internalType": "address",
          "name": "from",
          "type": "address"
        },
        {
          "indexed": true,
          "internalType": "address",
          "name": "to",
          "type": "address"
        },
        {
          "indexed": true,
          "internalType": "uint256",
          "name": "tokenId",
          "type": "uint256"
        }
      ],
      "name": "Transfer",
      "type": "event"
    },
    {
      "inputs": [
        {
          "internalType": "address",
          "name": "to",
          "type": "address"
        },
        {
          "internalType": "uint256",
          "name": "tokenId",
          "type": "uint256"
        }
      ],
      "name": "approve",
      "outputs": [],
      "stateMutability": "nonpayable",
      "type": "function"
    },
    {
      "inputs": [
        {
          "internalType": "address",
          "name": "owner",
          "type": "address"
        }
      ],
      "name": "balanceOf",
      "outputs": [
        {
          "internalType": "uint256",
          "name": "",
          "type": "uint256"
        }
      ],
      "stateMutability": "view",
      "type": "function",
      "constant": true
    },
    {
      "inputs": [
        {
          "internalType": "uint256",
          "name": "tokenId",
          "type": "uint256"
        }
      ],
      "name": "getApproved",
      "outputs": [
        {
          "internalType": "address",
          "name": "",
          "type": "address"
        }
      ],
      "stateMutability": "view",
      "type": "function",
      "constant": true
    },
    {
      "inputs": [
        {
          "internalType": "address",
          "name": "owner",
          "type": "address"
        },
        {
          "internalType": "address",
          "name": "operator",
          "type": "address"
        }
      ],
      "name": "isApprovedForAll",
      "outputs": [
        {
          "internalType": "bool",
          "name": "",
          "type": "bool"
        }
      ],
      "stateMutability": "view",
      "type": "function",
      "constant": true
    },
    {
      "inputs": [],
      "name": "name",
      "outputs": [
        {
          "internalType": "string",
          "name": "",
          "type": "string"
        }
      ],
      "stateMutability": "view",
      "type": "function",
      "constant": true
    },
    {
      "inputs": [
        {
          "internalType": "uint256",
          "name": "",
          "type": "uint256"
        }
      ],
      "name": "orbsMap",
      "outputs": [
        {
          "internalType": "uint256",
          "name": "id",
          "type": "uint256"
        },
        {
          "internalType": "address",
          "name": "owner",
          "type": "address"
        },
        {
          "internalType": "uint256",
          "name": "price",
          "type": "uint256"
        }
      ],
      "stateMutability": "view",
      "type": "function",
      "constant": true
    },
    {
      "inputs": [
        {
          "internalType": "uint256",
          "name": "tokenId",
          "type": "uint256"
        }
      ],
      "name": "ownerOf",
      "outputs": [
        {
          "internalType": "address",
          "name": "",
          "type": "address"
        }
      ],
      "stateMutability": "view",
      "type": "function",
      "constant": true
    },
    {
      "inputs": [
        {
          "internalType": "address",
          "name": "from",
          "type": "address"
        },
        {
          "internalType": "address",
          "name": "to",
          "type": "address"
        },
        {
          "internalType": "uint256",
          "name": "tokenId",
          "type": "uint256"
        }
      ],
      "name": "safeTransferFrom",
      "outputs": [],
      "stateMutability": "nonpayable",
      "type": "function"
    },
    {
      "inputs": [
        {
          "internalType": "address",
          "name": "from",
          "type": "address"
        },
        {
          "internalType": "address",
          "name": "to",
          "type": "address"
        },
        {
          "internalType": "uint256",
          "name": "tokenId",
          "type": "uint256"
        },
        {
          "internalType": "bytes",
          "name": "_data",
          "type": "bytes"
        }
      ],
      "name": "safeTransferFrom",
      "outputs": [],
      "stateMutability": "nonpayable",
      "type": "function"
    },
    {
      "inputs": [
        {
          "internalType": "address",
          "name": "operator",
          "type": "address"
        },
        {
          "internalType": "bool",
          "name": "approved",
          "type": "bool"
        }
      ],
      "name": "setApprovalForAll",
      "outputs": [],
      "stateMutability": "nonpayable",
      "type": "function"
    },
    {
      "inputs": [
        {
          "internalType": "bytes4",
          "name": "interfaceId",
          "type": "bytes4"
        }
      ],
      "name": "supportsInterface",
      "outputs": [
        {
          "internalType": "bool",
          "name": "",
          "type": "bool"
        }
      ],
      "stateMutability": "view",
      "type": "function",
      "constant": true
    },
    {
      "inputs": [],
      "name": "symbol",
      "outputs": [
        {
          "internalType": "string",
          "name": "",
          "type": "string"
        }
      ],
      "stateMutability": "view",
      "type": "function",
      "constant": true
    },
    {
      "inputs": [
        {
          "internalType": "uint256",
          "name": "tokenId",
          "type": "uint256"
        }
      ],
      "name": "tokenURI",
      "outputs": [
        {
          "internalType": "string",
          "name": "",
          "type": "string"
        }
      ],
      "stateMutability": "view",
      "type": "function",
      "constant": true
    },
    {
      "inputs": [
        {
          "internalType": "address",
          "name": "from",
          "type": "address"
        },
        {
          "internalType": "address",
          "name": "to",
          "type": "address"
        },
        {
          "internalType": "uint256",
          "name": "tokenId",
          "type": "uint256"
        }
      ],
      "name": "transferFrom",
      "outputs": [],
      "stateMutability": "nonpayable",
      "type": "function"
    },
    {
      "inputs": [
        {
          "internalType": "uint256",
          "name": "id",
          "type": "uint256"
        }
      ],
      "name": "getOrb",
      "outputs": [
        {
          "components": [
            {
              "internalType": "uint256",
              "name": "id",
              "type": "uint256"
            },
            {
              "internalType": "address",
              "name": "owner",
              "type": "address"
            },
            {
              "internalType": "string[]",
              "name": "sample_data",
              "type": "string[]"
            },
            {
              "internalType": "uint256",
              "name": "price",
              "type": "uint256"
            }
          ],
          "internalType": "struct Orbs.OrbProps",
          "name": "",
          "type": "tuple"
        }
      ],
      "stateMutability": "view",
      "type": "function",
      "constant": true
    },
    {
      "inputs": [],
      "name": "getOrbs",
      "outputs": [
        {
          "components": [
            {
              "internalType": "uint256",
              "name": "id",
              "type": "uint256"
            },
            {
              "internalType": "address",
              "name": "owner",
              "type": "address"
            },
            {
              "internalType": "string[]",
              "name": "sample_data",
              "type": "string[]"
            },
            {
              "internalType": "uint256",
              "name": "price",
              "type": "uint256"
            }
          ],
          "internalType": "struct Orbs.OrbProps[]",
          "name": "",
          "type": "tuple[]"
        }
      ],
      "stateMutability": "view",
      "type": "function",
      "constant": true
    },
    {
      "inputs": [
        {
          "internalType": "address",
          "name": "_owner",
          "type": "address"
        },
        {
          "internalType": "string[]",
          "name": "_sample_data",
          "type": "string[]"
        }
      ],
      "name": "mintCollectable",
      "outputs": [
        {
          "internalType": "uint256",
          "name": "",
          "type": "uint256"
        }
      ],
      "stateMutability": "nonpayable",
      "type": "function"
    }
  ],
  "bytecode": "0x60806040523480156200001157600080fd5b506040518060400160405280600481526020017f4f726273000000000000000000000000000000000000000000000000000000008152506040518060400160405280600481526020017f4f52425300000000000000000000000000000000000000000000000000000000815250816000908051906020019062000096929190620000b8565b508060019080519060200190620000af929190620000b8565b505050620001cd565b828054620000c69062000168565b90600052602060002090601f016020900481019282620000ea576000855562000136565b82601f106200010557805160ff191683800117855562000136565b8280016001018555821562000136579182015b828111156200013557825182559160200191906001019062000118565b5b50905062000145919062000149565b5090565b5b80821115620001645760008160009055506001016200014a565b5090565b600060028204905060018216806200018157607f821691505b602082108114156200019857620001976200019e565b5b50919050565b7f4e487b7100000000000000000000000000000000000000000000000000000000600052602260045260246000fd5b6131c780620001dd6000396000f3fe608060405234801561001057600080fd5b506004361061010b5760003560e01c80636352211e116100a2578063a22cb46511610071578063a22cb465146102de578063b60b8d95146102fa578063b88d4fde1461032c578063c87b56dd14610348578063e985e9c5146103785761010b565b80636352211e1461024257806370a08231146102725780638cfe67f5146102a257806395d89b41146102c05761010b565b8063095ea7b3116100de578063095ea7b3146101be5780631a1d924d146101da57806323b872dd1461020a57806342842e0e146102265761010b565b806301ffc9a714610110578063058179481461014057806306fdde0314610170578063081812fc1461018e575b600080fd5b61012a6004803603810190610125919061210e565b6103a8565b6040516101379190612a57565b60405180910390f35b61015a60048036038101906101559190612160565b61048a565b6040516101679190612c54565b60405180910390f35b61017861062f565b6040516101859190612a72565b60405180910390f35b6101a860048036038101906101a39190612160565b6106c1565b6040516101b591906129ce565b60405180910390f35b6101d860048036038101906101d391906120d2565b610746565b005b6101f460048036038101906101ef9190612042565b61085e565b6040516102019190612c76565b60405180910390f35b610224600480360381019061021f9190611f78565b610986565b005b610240600480360381019061023b9190611f78565b6109e6565b005b61025c60048036038101906102579190612160565b610a06565b60405161026991906129ce565b60405180910390f35b61028c60048036038101906102879190611f13565b610ab8565b6040516102999190612c76565b60405180910390f35b6102aa610b70565b6040516102b79190612a35565b60405180910390f35b6102c8610d12565b6040516102d59190612a72565b60405180910390f35b6102f860048036038101906102f39190612096565b610da4565b005b610314600480360381019061030f9190612160565b610f25565b60405161032393929190612c91565b60405180910390f35b61034660048036038101906103419190611fc7565b610f7f565b005b610362600480360381019061035d9190612160565b610fe1565b60405161036f9190612a72565b60405180910390f35b610392600480360381019061038d9190611f3c565b611088565b60405161039f9190612a57565b60405180910390f35b60007f80ac58cd000000000000000000000000000000000000000000000000000000007bffffffffffffffffffffffffffffffffffffffffffffffffffffffff1916827bffffffffffffffffffffffffffffffffffffffffffffffffffffffff1916148061047357507f5b5e139f000000000000000000000000000000000000000000000000000000007bffffffffffffffffffffffffffffffffffffffffffffffffffffffff1916827bffffffffffffffffffffffffffffffffffffffffffffffffffffffff1916145b8061048357506104828261111c565b5b9050919050565b610492611bae565b600782815481106104cc577f4e487b7100000000000000000000000000000000000000000000000000000000600052603260045260246000fd5b9060005260206000209060040201604051806080016040529081600082015481526020016001820160009054906101000a900473ffffffffffffffffffffffffffffffffffffffff1673ffffffffffffffffffffffffffffffffffffffff1673ffffffffffffffffffffffffffffffffffffffff16815260200160028201805480602002602001604051908101604052809291908181526020016000905b8282101561061657838290600052602060002001805461058990612fbc565b80601f01602080910402602001604051908101604052809291908181526020018280546105b590612fbc565b80156106025780601f106105d757610100808354040283529160200191610602565b820191906000526020600020905b8154815290600101906020018083116105e557829003601f168201915b50505050508152602001906001019061056a565b5050505081526020016003820154815250509050919050565b60606000805461063e90612fbc565b80601f016020809104026020016040519081016040528092919081815260200182805461066a90612fbc565b80156106b75780601f1061068c576101008083540402835291602001916106b7565b820191906000526020600020905b81548152906001019060200180831161069a57829003601f168201915b5050505050905090565b60006106cc82611186565b61070b576040517f08c379a000000000000000000000000000000000000000000000000000000000815260040161070290612bb4565b60405180910390fd5b6004600083815260200190815260200160002060009054906101000a900473ffffffffffffffffffffffffffffffffffffffff169050919050565b600061075182610a06565b90508073ffffffffffffffffffffffffffffffffffffffff168373ffffffffffffffffffffffffffffffffffffffff1614156107c2576040517f08c379a00000000000000000000000000000000000000000000000000000000081526004016107b990612c14565b60405180910390fd5b8073ffffffffffffffffffffffffffffffffffffffff166107e16111f2565b73ffffffffffffffffffffffffffffffffffffffff161480610810575061080f8161080a6111f2565b611088565b5b61084f576040517f08c379a000000000000000000000000000000000000000000000000000000000815260040161084690612b34565b60405180910390fd5b61085983836111fa565b505050565b600061086a60066112b3565b600061087660066112c9565b905061088284826112d7565b61088a611bae565b8181600001818152505084816020019073ffffffffffffffffffffffffffffffffffffffff16908173ffffffffffffffffffffffffffffffffffffffff168152505083816040018190525060078190806001815401808255809150506001900390600052602060002090600402016000909190919091506000820151816000015560208201518160010160006101000a81548173ffffffffffffffffffffffffffffffffffffffff021916908373ffffffffffffffffffffffffffffffffffffffff160217905550604082015181600201908051906020019061096e929190611bec565b50606082015181600301555050819250505092915050565b6109976109916111f2565b826114a5565b6109d6576040517f08c379a00000000000000000000000000000000000000000000000000000000081526004016109cd90612c34565b60405180910390fd5b6109e1838383611583565b505050565b610a0183838360405180602001604052806000815250610f7f565b505050565b6000806002600084815260200190815260200160002060009054906101000a900473ffffffffffffffffffffffffffffffffffffffff169050600073ffffffffffffffffffffffffffffffffffffffff168173ffffffffffffffffffffffffffffffffffffffff161415610aaf576040517f08c379a0000000000000000000000000000000000000000000000000000000008152600401610aa690612b74565b60405180910390fd5b80915050919050565b60008073ffffffffffffffffffffffffffffffffffffffff168273ffffffffffffffffffffffffffffffffffffffff161415610b29576040517f08c379a0000000000000000000000000000000000000000000000000000000008152600401610b2090612b54565b60405180910390fd5b600360008373ffffffffffffffffffffffffffffffffffffffff1673ffffffffffffffffffffffffffffffffffffffff168152602001908152602001600020549050919050565b60606007805480602002602001604051908101604052809291908181526020016000905b82821015610d095783829060005260206000209060040201604051806080016040529081600082015481526020016001820160009054906101000a900473ffffffffffffffffffffffffffffffffffffffff1673ffffffffffffffffffffffffffffffffffffffff1673ffffffffffffffffffffffffffffffffffffffff16815260200160028201805480602002602001604051908101604052809291908181526020016000905b82821015610ce8578382906000526020600020018054610c5b90612fbc565b80601f0160208091040260200160405190810160405280929190818152602001828054610c8790612fbc565b8015610cd45780601f10610ca957610100808354040283529160200191610cd4565b820191906000526020600020905b815481529060010190602001808311610cb757829003601f168201915b505050505081526020019060010190610c3c565b50505050815260200160038201548152505081526020019060010190610b94565b50505050905090565b606060018054610d2190612fbc565b80601f0160208091040260200160405190810160405280929190818152602001828054610d4d90612fbc565b8015610d9a5780601f10610d6f57610100808354040283529160200191610d9a565b820191906000526020600020905b815481529060010190602001808311610d7d57829003601f168201915b5050505050905090565b610dac6111f2565b73ffffffffffffffffffffffffffffffffffffffff168273ffffffffffffffffffffffffffffffffffffffff161415610e1a576040517f08c379a0000000000000000000000000000000000000000000000000000000008152600401610e1190612af4565b60405180910390fd5b8060056000610e276111f2565b73ffffffffffffffffffffffffffffffffffffffff1673ffffffffffffffffffffffffffffffffffffffff16815260200190815260200160002060008473ffffffffffffffffffffffffffffffffffffffff1673ffffffffffffffffffffffffffffffffffffffff16815260200190815260200160002060006101000a81548160ff0219169083151502179055508173ffffffffffffffffffffffffffffffffffffffff16610ed46111f2565b73ffffffffffffffffffffffffffffffffffffffff167f17307eab39ab6107e8899845ad3d59bd9653f200f220920489ca2b5937696c3183604051610f199190612a57565b60405180910390a35050565b60078181548110610f3557600080fd5b90600052602060002090600402016000915090508060000154908060010160009054906101000a900473ffffffffffffffffffffffffffffffffffffffff16908060030154905083565b610f90610f8a6111f2565b836114a5565b610fcf576040517f08c379a0000000000000000000000000000000000000000000000000000000008152600401610fc690612c34565b60405180910390fd5b610fdb848484846117df565b50505050565b6060610fec82611186565b61102b576040517f08c379a000000000000000000000000000000000000000000000000000000000815260040161102290612bf4565b60405180910390fd5b600061103561183b565b905060008151116110555760405180602001604052806000815250611080565b8061105f84611852565b6040516020016110709291906129aa565b6040516020818303038152906040525b915050919050565b6000600560008473ffffffffffffffffffffffffffffffffffffffff1673ffffffffffffffffffffffffffffffffffffffff16815260200190815260200160002060008373ffffffffffffffffffffffffffffffffffffffff1673ffffffffffffffffffffffffffffffffffffffff16815260200190815260200160002060009054906101000a900460ff16905092915050565b60007f01ffc9a7000000000000000000000000000000000000000000000000000000007bffffffffffffffffffffffffffffffffffffffffffffffffffffffff1916827bffffffffffffffffffffffffffffffffffffffffffffffffffffffff1916149050919050565b60008073ffffffffffffffffffffffffffffffffffffffff166002600084815260200190815260200160002060009054906101000a900473ffffffffffffffffffffffffffffffffffffffff1673ffffffffffffffffffffffffffffffffffffffff1614159050919050565b600033905090565b816004600083815260200190815260200160002060006101000a81548173ffffffffffffffffffffffffffffffffffffffff021916908373ffffffffffffffffffffffffffffffffffffffff160217905550808273ffffffffffffffffffffffffffffffffffffffff1661126d83610a06565b73ffffffffffffffffffffffffffffffffffffffff167f8c5be1e5ebec7d5bd14f71427d1e84f3dd0314c0f7b2291e5b200ac8c7c3b92560405160405180910390a45050565b6001816000016000828254019250508190555050565b600081600001549050919050565b600073ffffffffffffffffffffffffffffffffffffffff168273ffffffffffffffffffffffffffffffffffffffff161415611347576040517f08c379a000000000000000000000000000000000000000000000000000000000815260040161133e90612b94565b60405180910390fd5b61135081611186565b15611390576040517f08c379a000000000000000000000000000000000000000000000000000000000815260040161138790612ab4565b60405180910390fd5b61139c600083836119ff565b6001600360008473ffffffffffffffffffffffffffffffffffffffff1673ffffffffffffffffffffffffffffffffffffffff16815260200190815260200160002060008282546113ec9190612e4b565b92505081905550816002600083815260200190815260200160002060006101000a81548173ffffffffffffffffffffffffffffffffffffffff021916908373ffffffffffffffffffffffffffffffffffffffff160217905550808273ffffffffffffffffffffffffffffffffffffffff16600073ffffffffffffffffffffffffffffffffffffffff167fddf252ad1be2c89b69c2b068fc378daa952ba7f163c4a11628f55a4df523b3ef60405160405180910390a45050565b60006114b082611186565b6114ef576040517f08c379a00000000000000000000000000000000000000000000000000000000081526004016114e690612b14565b60405180910390fd5b60006114fa83610a06565b90508073ffffffffffffffffffffffffffffffffffffffff168473ffffffffffffffffffffffffffffffffffffffff16148061156957508373ffffffffffffffffffffffffffffffffffffffff16611551846106c1565b73ffffffffffffffffffffffffffffffffffffffff16145b8061157a57506115798185611088565b5b91505092915050565b8273ffffffffffffffffffffffffffffffffffffffff166115a382610a06565b73ffffffffffffffffffffffffffffffffffffffff16146115f9576040517f08c379a00000000000000000000000000000000000000000000000000000000081526004016115f090612bd4565b60405180910390fd5b600073ffffffffffffffffffffffffffffffffffffffff168273ffffffffffffffffffffffffffffffffffffffff161415611669576040517f08c379a000000000000000000000000000000000000000000000000000000000815260040161166090612ad4565b60405180910390fd5b6116748383836119ff565b61167f6000826111fa565b6001600360008573ffffffffffffffffffffffffffffffffffffffff1673ffffffffffffffffffffffffffffffffffffffff16815260200190815260200160002060008282546116cf9190612ed2565b925050819055506001600360008473ffffffffffffffffffffffffffffffffffffffff1673ffffffffffffffffffffffffffffffffffffffff16815260200190815260200160002060008282546117269190612e4b565b92505081905550816002600083815260200190815260200160002060006101000a81548173ffffffffffffffffffffffffffffffffffffffff021916908373ffffffffffffffffffffffffffffffffffffffff160217905550808273ffffffffffffffffffffffffffffffffffffffff168473ffffffffffffffffffffffffffffffffffffffff167fddf252ad1be2c89b69c2b068fc378daa952ba7f163c4a11628f55a4df523b3ef60405160405180910390a4505050565b6117ea848484611583565b6117f684848484611a04565b611835576040517f08c379a000000000000000000000000000000000000000000000000000000000815260040161182c90612a94565b60405180910390fd5b50505050565b606060405180602001604052806000815250905090565b6060600082141561189a576040518060400160405280600181526020017f300000000000000000000000000000000000000000000000000000000000000081525090506119fa565b600082905060005b600082146118cc5780806118b590612fee565b915050600a826118c59190612ea1565b91506118a2565b60008167ffffffffffffffff81111561190e577f4e487b7100000000000000000000000000000000000000000000000000000000600052604160045260246000fd5b6040519080825280601f01601f1916602001820160405280156119405781602001600182028036833780820191505090505b5090505b600085146119f3576001826119599190612ed2565b9150600a856119689190613037565b60306119749190612e4b565b60f81b8183815181106119b0577f4e487b7100000000000000000000000000000000000000000000000000000000600052603260045260246000fd5b60200101907effffffffffffffffffffffffffffffffffffffffffffffffffffffffffffff1916908160001a905350600a856119ec9190612ea1565b9450611944565b8093505050505b919050565b505050565b6000611a258473ffffffffffffffffffffffffffffffffffffffff16611b9b565b15611b8e578373ffffffffffffffffffffffffffffffffffffffff1663150b7a02611a4e6111f2565b8786866040518563ffffffff1660e01b8152600401611a7094939291906129e9565b602060405180830381600087803b158015611a8a57600080fd5b505af1925050508015611abb57506040513d601f19601f82011682018060405250810190611ab89190612137565b60015b611b3e573d8060008114611aeb576040519150601f19603f3d011682016040523d82523d6000602084013e611af0565b606091505b50600081511415611b36576040517f08c379a0000000000000000000000000000000000000000000000000000000008152600401611b2d90612a94565b60405180910390fd5b805181602001fd5b63150b7a0260e01b7bffffffffffffffffffffffffffffffffffffffffffffffffffffffff1916817bffffffffffffffffffffffffffffffffffffffffffffffffffffffff191614915050611b93565b600190505b949350505050565b600080823b905060008111915050919050565b604051806080016040528060008152602001600073ffffffffffffffffffffffffffffffffffffffff16815260200160608152602001600081525090565b828054828255906000526020600020908101928215611c3b579160200282015b82811115611c3a578251829080519060200190611c2a929190611c4c565b5091602001919060010190611c0c565b5b509050611c489190611cd2565b5090565b828054611c5890612fbc565b90600052602060002090601f016020900481019282611c7a5760008555611cc1565b82601f10611c9357805160ff1916838001178555611cc1565b82800160010185558215611cc1579182015b82811115611cc0578251825591602001919060010190611ca5565b5b509050611cce9190611cf6565b5090565b5b80821115611cf25760008181611ce99190611d13565b50600101611cd3565b5090565b5b80821115611d0f576000816000905550600101611cf7565b5090565b508054611d1f90612fbc565b6000825580601f10611d315750611d50565b601f016020900490600052602060002090810190611d4f9190611cf6565b5b50565b6000611d66611d6184612cf9565b612cc8565b9050808382526020820190508260005b85811015611da65781358501611d8c8882611ed4565b845260208401935060208301925050600181019050611d76565b5050509392505050565b6000611dc3611dbe84612d25565b612cc8565b905082815260208101848484011115611ddb57600080fd5b611de6848285612f7a565b509392505050565b6000611e01611dfc84612d55565b612cc8565b905082815260208101848484011115611e1957600080fd5b611e24848285612f7a565b509392505050565b600081359050611e3b81613135565b92915050565b600082601f830112611e5257600080fd5b8135611e62848260208601611d53565b91505092915050565b600081359050611e7a8161314c565b92915050565b600081359050611e8f81613163565b92915050565b600081519050611ea481613163565b92915050565b600082601f830112611ebb57600080fd5b8135611ecb848260208601611db0565b91505092915050565b600082601f830112611ee557600080fd5b8135611ef5848260208601611dee565b91505092915050565b600081359050611f0d8161317a565b92915050565b600060208284031215611f2557600080fd5b6000611f3384828501611e2c565b91505092915050565b60008060408385031215611f4f57600080fd5b6000611f5d85828601611e2c565b9250506020611f6e85828601611e2c565b9150509250929050565b600080600060608486031215611f8d57600080fd5b6000611f9b86828701611e2c565b9350506020611fac86828701611e2c565b9250506040611fbd86828701611efe565b9150509250925092565b60008060008060808587031215611fdd57600080fd5b6000611feb87828801611e2c565b9450506020611ffc87828801611e2c565b935050604061200d87828801611efe565b925050606085013567ffffffffffffffff81111561202a57600080fd5b61203687828801611eaa565b91505092959194509250565b6000806040838503121561205557600080fd5b600061206385828601611e2c565b925050602083013567ffffffffffffffff81111561208057600080fd5b61208c85828601611e41565b9150509250929050565b600080604083850312156120a957600080fd5b60006120b785828601611e2c565b92505060206120c885828601611e6b565b9150509250929050565b600080604083850312156120e557600080fd5b60006120f385828601611e2c565b925050602061210485828601611efe565b9150509250929050565b60006020828403121561212057600080fd5b600061212e84828501611e80565b91505092915050565b60006020828403121561214957600080fd5b600061215784828501611e95565b91505092915050565b60006020828403121561217257600080fd5b600061218084828501611efe565b91505092915050565b60006121958383612301565b905092915050565b60006121a983836128c6565b905092915050565b6121ba81612f06565b82525050565b6121c981612f06565b82525050565b60006121da82612da5565b6121e48185612deb565b9350836020820285016121f685612d85565b8060005b8581101561223257848403895281516122138582612189565b945061221e83612dd1565b925060208a019950506001810190506121fa565b50829750879550505050505092915050565b600061224f82612db0565b6122598185612dfc565b93508360208202850161226b85612d95565b8060005b858110156122a75784840389528151612288858261219d565b945061229383612dde565b925060208a0199505060018101905061226f565b50829750879550505050505092915050565b6122c281612f18565b82525050565b60006122d382612dbb565b6122dd8185612e0d565b93506122ed818560208601612f89565b6122f681613124565b840191505092915050565b600061230c82612dc6565b6123168185612e1e565b9350612326818560208601612f89565b61232f81613124565b840191505092915050565b600061234582612dc6565b61234f8185612e2f565b935061235f818560208601612f89565b61236881613124565b840191505092915050565b600061237e82612dc6565b6123888185612e40565b9350612398818560208601612f89565b80840191505092915050565b60006123b1603283612e2f565b91507f4552433732313a207472616e7366657220746f206e6f6e20455243373231526560008301527f63656976657220696d706c656d656e74657200000000000000000000000000006020830152604082019050919050565b6000612417601c83612e2f565b91507f4552433732313a20746f6b656e20616c7265616479206d696e746564000000006000830152602082019050919050565b6000612457602483612e2f565b91507f4552433732313a207472616e7366657220746f20746865207a65726f2061646460008301527f72657373000000000000000000000000000000000000000000000000000000006020830152604082019050919050565b60006124bd601983612e2f565b91507f4552433732313a20617070726f766520746f2063616c6c6572000000000000006000830152602082019050919050565b60006124fd602c83612e2f565b91507f4552433732313a206f70657261746f7220717565727920666f72206e6f6e657860008301527f697374656e7420746f6b656e00000000000000000000000000000000000000006020830152604082019050919050565b6000612563603883612e2f565b91507f4552433732313a20617070726f76652063616c6c6572206973206e6f74206f7760008301527f6e6572206e6f7220617070726f76656420666f7220616c6c00000000000000006020830152604082019050919050565b60006125c9602a83612e2f565b91507f4552433732313a2062616c616e636520717565727920666f7220746865207a6560008301527f726f2061646472657373000000000000000000000000000000000000000000006020830152604082019050919050565b600061262f602983612e2f565b91507f4552433732313a206f776e657220717565727920666f72206e6f6e657869737460008301527f656e7420746f6b656e00000000000000000000000000000000000000000000006020830152604082019050919050565b6000612695602083612e2f565b91507f4552433732313a206d696e7420746f20746865207a65726f20616464726573736000830152602082019050919050565b60006126d5602c83612e2f565b91507f4552433732313a20617070726f76656420717565727920666f72206e6f6e657860008301527f697374656e7420746f6b656e00000000000000000000000000000000000000006020830152604082019050919050565b600061273b602983612e2f565b91507f4552433732313a207472616e73666572206f6620746f6b656e2074686174206960008301527f73206e6f74206f776e00000000000000000000000000000000000000000000006020830152604082019050919050565b60006127a1602f83612e2f565b91507f4552433732314d657461646174613a2055524920717565727920666f72206e6f60008301527f6e6578697374656e7420746f6b656e00000000000000000000000000000000006020830152604082019050919050565b6000612807602183612e2f565b91507f4552433732313a20617070726f76616c20746f2063757272656e74206f776e6560008301527f72000000000000000000000000000000000000000000000000000000000000006020830152604082019050919050565b600061286d603183612e2f565b91507f4552433732313a207472616e736665722063616c6c6572206973206e6f74206f60008301527f776e6572206e6f7220617070726f7665640000000000000000000000000000006020830152604082019050919050565b60006080830160008301516128de600086018261298c565b5060208301516128f160208601826121b1565b506040830151848203604086015261290982826121cf565b915050606083015161291e606086018261298c565b508091505092915050565b6000608083016000830151612941600086018261298c565b50602083015161295460208601826121b1565b506040830151848203604086015261296c82826121cf565b9150506060830151612981606086018261298c565b508091505092915050565b61299581612f70565b82525050565b6129a481612f70565b82525050565b60006129b68285612373565b91506129c28284612373565b91508190509392505050565b60006020820190506129e360008301846121c0565b92915050565b60006080820190506129fe60008301876121c0565b612a0b60208301866121c0565b612a18604083018561299b565b8181036060830152612a2a81846122c8565b905095945050505050565b60006020820190508181036000830152612a4f8184612244565b905092915050565b6000602082019050612a6c60008301846122b9565b92915050565b60006020820190508181036000830152612a8c818461233a565b905092915050565b60006020820190508181036000830152612aad816123a4565b9050919050565b60006020820190508181036000830152612acd8161240a565b9050919050565b60006020820190508181036000830152612aed8161244a565b9050919050565b60006020820190508181036000830152612b0d816124b0565b9050919050565b60006020820190508181036000830152612b2d816124f0565b9050919050565b60006020820190508181036000830152612b4d81612556565b9050919050565b60006020820190508181036000830152612b6d816125bc565b9050919050565b60006020820190508181036000830152612b8d81612622565b9050919050565b60006020820190508181036000830152612bad81612688565b9050919050565b60006020820190508181036000830152612bcd816126c8565b9050919050565b60006020820190508181036000830152612bed8161272e565b9050919050565b60006020820190508181036000830152612c0d81612794565b9050919050565b60006020820190508181036000830152612c2d816127fa565b9050919050565b60006020820190508181036000830152612c4d81612860565b9050919050565b60006020820190508181036000830152612c6e8184612929565b905092915050565b6000602082019050612c8b600083018461299b565b92915050565b6000606082019050612ca6600083018661299b565b612cb360208301856121c0565b612cc0604083018461299b565b949350505050565b6000604051905081810181811067ffffffffffffffff82111715612cef57612cee6130f5565b5b8060405250919050565b600067ffffffffffffffff821115612d1457612d136130f5565b5b602082029050602081019050919050565b600067ffffffffffffffff821115612d4057612d3f6130f5565b5b601f19601f8301169050602081019050919050565b600067ffffffffffffffff821115612d7057612d6f6130f5565b5b601f19601f8301169050602081019050919050565b6000819050602082019050919050565b6000819050602082019050919050565b600081519050919050565b600081519050919050565b600081519050919050565b600081519050919050565b6000602082019050919050565b6000602082019050919050565b600082825260208201905092915050565b600082825260208201905092915050565b600082825260208201905092915050565b600082825260208201905092915050565b600082825260208201905092915050565b600081905092915050565b6000612e5682612f70565b9150612e6183612f70565b9250827fffffffffffffffffffffffffffffffffffffffffffffffffffffffffffffffff03821115612e9657612e95613068565b5b828201905092915050565b6000612eac82612f70565b9150612eb783612f70565b925082612ec757612ec6613097565b5b828204905092915050565b6000612edd82612f70565b9150612ee883612f70565b925082821015612efb57612efa613068565b5b828203905092915050565b6000612f1182612f50565b9050919050565b60008115159050919050565b60007fffffffff0000000000000000000000000000000000000000000000000000000082169050919050565b600073ffffffffffffffffffffffffffffffffffffffff82169050919050565b6000819050919050565b82818337600083830152505050565b60005b83811015612fa7578082015181840152602081019050612f8c565b83811115612fb6576000848401525b50505050565b60006002820490506001821680612fd457607f821691505b60208210811415612fe857612fe76130c6565b5b50919050565b6000612ff982612f70565b91507fffffffffffffffffffffffffffffffffffffffffffffffffffffffffffffffff82141561302c5761302b613068565b5b600182019050919050565b600061304282612f70565b915061304d83612f70565b92508261305d5761305c613097565b5b828206905092915050565b7f4e487b7100000000000000000000000000000000000000000000000000000000600052601160045260246000fd5b7f4e487b7100000000000000000000000000000000000000000000000000000000600052601260045260246000fd5b7f4e487b7100000000000000000000000000000000000000000000000000000000600052602260045260246000fd5b7f4e487b7100000000000000000000000000000000000000000000000000000000600052604160045260246000fd5b6000601f19601f8301169050919050565b61313e81612f06565b811461314957600080fd5b50565b61315581612f18565b811461316057600080fd5b50565b61316c81612f24565b811461317757600080fd5b50565b61318381612f70565b811461318e57600080fd5b5056fea2646970667358221220187396c133535db368831a90647cf6207b7e4a561c9eaa42a8f0db00c11fbfa964736f6c63430008000033",
  "immutableReferences": {},
  "source": "// SPDX-License-Identifier: MIT\r\npragma solidity ^0.8.0;\r\n\r\nimport \"@openzeppelin/contracts/token/ERC721/ERC721.sol\";\r\nimport \"@openzeppelin/contracts/utils/Counters.sol\";\r\n\r\ncontract Orbs is ERC721{\r\n    using Counters for Counters.Counter;\r\n    Counters.Counter private _tokenIds;\r\n    OrbProps[] public orbsMap;\r\n\r\n    struct OrbProps {\r\n        uint256 id;\r\n        address owner;\r\n        string[] sample_data;\r\n        uint price;\r\n    }\r\n\r\n    constructor() ERC721(\"Orbs\", \"ORBS\") {\r\n    }\r\n\r\n    function getOrb(uint id) external view returns(OrbProps memory){\r\n        return orbsMap[id];\r\n    }\r\n\r\n    function getOrbs() external view returns(OrbProps[] memory){\r\n        return orbsMap;\r\n    }\r\n\r\n    // 0 -> ['tone','note','time','hashmark'] ...\r\n    function mintCollectable(address _owner, string[] memory _sample_data)\r\n        public\r\n        returns (uint256)\r\n    {\r\n        _tokenIds.increment();\r\n        uint256 newItemId = _tokenIds.current();\r\n        _mint(_owner, newItemId);\r\n        OrbProps memory orbm;\r\n\r\n        orbm.id=newItemId;\r\n        orbm.owner=_owner;\r\n        orbm.sample_data = _sample_data;\r\n\r\n        orbsMap.push(orbm);\r\n        \r\n        return newItemId;\r\n    }\r\n\r\n\r\n}",
  "sourcePath": "C:/Users/Usuario/Desktop/NEW_PROJECT/music_generator/nftContract/contracts/Orbs.sol",
  "compiler": {
    "name": "solc",
    "version": "0.8.0+commit.c7dfd78e.Emscripten.clang"
  },
  "schemaVersion": "3.4.1",
  "updatedAt": "2021-07-25T15:43:18.978Z",
  "networkType": "ethereum",
  "devdoc": {
    "kind": "dev",
    "methods": {
      "approve(address,uint256)": {
        "details": "See {IERC721-approve}."
      },
      "balanceOf(address)": {
        "details": "See {IERC721-balanceOf}."
      },
      "getApproved(uint256)": {
        "details": "See {IERC721-getApproved}."
      },
      "isApprovedForAll(address,address)": {
        "details": "See {IERC721-isApprovedForAll}."
      },
      "name()": {
        "details": "See {IERC721Metadata-name}."
      },
      "ownerOf(uint256)": {
        "details": "See {IERC721-ownerOf}."
      },
      "safeTransferFrom(address,address,uint256)": {
        "details": "See {IERC721-safeTransferFrom}."
      },
      "safeTransferFrom(address,address,uint256,bytes)": {
        "details": "See {IERC721-safeTransferFrom}."
      },
      "setApprovalForAll(address,bool)": {
        "details": "See {IERC721-setApprovalForAll}."
      },
      "supportsInterface(bytes4)": {
        "details": "See {IERC165-supportsInterface}."
      },
      "symbol()": {
        "details": "See {IERC721Metadata-symbol}."
      },
      "tokenURI(uint256)": {
        "details": "See {IERC721Metadata-tokenURI}."
      },
      "transferFrom(address,address,uint256)": {
        "details": "See {IERC721-transferFrom}."
      }
    },
    "version": 1
  },
  "userdoc": {
    "kind": "user",
    "methods": {},
    "version": 1
  }
}