{
  "contractName": "Orbs",
  "abi": [
    {
      "inputs": [],
      "stateMutability": "nonpayable",
      "type": "constructor"
    },
    {
      "anonymous": false,
      "inputs": [
        {
          "indexed": true,
          "internalType": "address",
          "name": "owner",
          "type": "address"
        },
        {
          "indexed": true,
          "internalType": "address",
          "name": "approved",
          "type": "address"
        },
        {
          "indexed": true,
          "internalType": "uint256",
          "name": "tokenId",
          "type": "uint256"
        }
      ],
      "name": "Approval",
      "type": "event"
    },
    {
      "anonymous": false,
      "inputs": [
        {
          "indexed": true,
          "internalType": "address",
          "name": "owner",
          "type": "address"
        },
        {
          "indexed": true,
          "internalType": "address",
          "name": "operator",
          "type": "address"
        },
        {
          "indexed": false,
          "internalType": "bool",
          "name": "approved",
          "type": "bool"
        }
      ],
      "name": "ApprovalForAll",
      "type": "event"
    },
    {
      "anonymous": false,
      "inputs": [
        {
          "indexed": true,
          "internalType": "address",
          "name": "from",
          "type": "address"
        },
        {
          "indexed": true,
          "internalType": "address",
          "name": "to",
          "type": "address"
        },
        {
          "indexed": true,
          "internalType": "uint256",
          "name": "tokenId",
          "type": "uint256"
        }
      ],
      "name": "Transfer",
      "type": "event"
    },
    {
      "inputs": [
        {
          "internalType": "address",
          "name": "to",
          "type": "address"
        },
        {
          "internalType": "uint256",
          "name": "tokenId",
          "type": "uint256"
        }
      ],
      "name": "approve",
      "outputs": [],
      "stateMutability": "nonpayable",
      "type": "function"
    },
    {
      "inputs": [
        {
          "internalType": "address",
          "name": "owner",
          "type": "address"
        }
      ],
      "name": "balanceOf",
      "outputs": [
        {
          "internalType": "uint256",
          "name": "",
          "type": "uint256"
        }
      ],
      "stateMutability": "view",
      "type": "function",
      "constant": true
    },
    {
      "inputs": [
        {
          "internalType": "uint256",
          "name": "tokenId",
          "type": "uint256"
        }
      ],
      "name": "getApproved",
      "outputs": [
        {
          "internalType": "address",
          "name": "",
          "type": "address"
        }
      ],
      "stateMutability": "view",
      "type": "function",
      "constant": true
    },
    {
      "inputs": [
        {
          "internalType": "address",
          "name": "owner",
          "type": "address"
        },
        {
          "internalType": "address",
          "name": "operator",
          "type": "address"
        }
      ],
      "name": "isApprovedForAll",
      "outputs": [
        {
          "internalType": "bool",
          "name": "",
          "type": "bool"
        }
      ],
      "stateMutability": "view",
      "type": "function",
      "constant": true
    },
    {
      "inputs": [],
      "name": "name",
      "outputs": [
        {
          "internalType": "string",
          "name": "",
          "type": "string"
        }
      ],
      "stateMutability": "view",
      "type": "function",
      "constant": true
    },
    {
      "inputs": [
        {
          "internalType": "uint256",
          "name": "tokenId",
          "type": "uint256"
        }
      ],
      "name": "ownerOf",
      "outputs": [
        {
          "internalType": "address",
          "name": "",
          "type": "address"
        }
      ],
      "stateMutability": "view",
      "type": "function",
      "constant": true
    },
    {
      "inputs": [
        {
          "internalType": "address",
          "name": "from",
          "type": "address"
        },
        {
          "internalType": "address",
          "name": "to",
          "type": "address"
        },
        {
          "internalType": "uint256",
          "name": "tokenId",
          "type": "uint256"
        }
      ],
      "name": "safeTransferFrom",
      "outputs": [],
      "stateMutability": "nonpayable",
      "type": "function"
    },
    {
      "inputs": [
        {
          "internalType": "address",
          "name": "from",
          "type": "address"
        },
        {
          "internalType": "address",
          "name": "to",
          "type": "address"
        },
        {
          "internalType": "uint256",
          "name": "tokenId",
          "type": "uint256"
        },
        {
          "internalType": "bytes",
          "name": "_data",
          "type": "bytes"
        }
      ],
      "name": "safeTransferFrom",
      "outputs": [],
      "stateMutability": "nonpayable",
      "type": "function"
    },
    {
      "inputs": [
        {
          "internalType": "address",
          "name": "operator",
          "type": "address"
        },
        {
          "internalType": "bool",
          "name": "approved",
          "type": "bool"
        }
      ],
      "name": "setApprovalForAll",
      "outputs": [],
      "stateMutability": "nonpayable",
      "type": "function"
    },
    {
      "inputs": [
        {
          "internalType": "bytes4",
          "name": "interfaceId",
          "type": "bytes4"
        }
      ],
      "name": "supportsInterface",
      "outputs": [
        {
          "internalType": "bool",
          "name": "",
          "type": "bool"
        }
      ],
      "stateMutability": "view",
      "type": "function",
      "constant": true
    },
    {
      "inputs": [],
      "name": "symbol",
      "outputs": [
        {
          "internalType": "string",
          "name": "",
          "type": "string"
        }
      ],
      "stateMutability": "view",
      "type": "function",
      "constant": true
    },
    {
      "inputs": [
        {
          "internalType": "uint256",
          "name": "tokenId",
          "type": "uint256"
        }
      ],
      "name": "tokenURI",
      "outputs": [
        {
          "internalType": "string",
          "name": "",
          "type": "string"
        }
      ],
      "stateMutability": "view",
      "type": "function",
      "constant": true
    },
    {
      "inputs": [
        {
          "internalType": "address",
          "name": "from",
          "type": "address"
        },
        {
          "internalType": "address",
          "name": "to",
          "type": "address"
        },
        {
          "internalType": "uint256",
          "name": "tokenId",
          "type": "uint256"
        }
      ],
      "name": "transferFrom",
      "outputs": [],
      "stateMutability": "nonpayable",
      "type": "function"
    },
    {
      "inputs": [],
      "name": "getAllOrbs",
      "outputs": [
        {
          "components": [
            {
              "internalType": "uint256",
              "name": "id",
              "type": "uint256"
            },
            {
              "internalType": "address",
              "name": "owner",
              "type": "address"
            },
            {
              "internalType": "uint256",
              "name": "price",
              "type": "uint256"
            },
            {
              "internalType": "string",
              "name": "dna",
              "type": "string"
            }
          ],
          "internalType": "struct Orbs.OrbProps[]",
          "name": "",
          "type": "tuple[]"
        }
      ],
      "stateMutability": "view",
      "type": "function",
      "constant": true
    },
    {
      "inputs": [
        {
          "internalType": "uint256",
          "name": "tokenId",
          "type": "uint256"
        },
        {
          "internalType": "uint256",
          "name": "_price",
          "type": "uint256"
        }
      ],
      "name": "setTokenPrice",
      "outputs": [],
      "stateMutability": "nonpayable",
      "type": "function"
    },
    {
      "inputs": [
        {
          "internalType": "uint256",
          "name": "tokenId",
          "type": "uint256"
        },
        {
          "internalType": "string",
          "name": "_dna",
          "type": "string"
        }
      ],
      "name": "setTokenDna",
      "outputs": [],
      "stateMutability": "nonpayable",
      "type": "function"
    },
    {
      "inputs": [
        {
          "internalType": "address",
          "name": "_owner",
          "type": "address"
        },
        {
          "internalType": "string",
          "name": "_dna",
          "type": "string"
        }
      ],
      "name": "mintCollectable",
      "outputs": [
        {
          "internalType": "uint256",
          "name": "",
          "type": "uint256"
        }
      ],
      "stateMutability": "nonpayable",
      "type": "function"
    }
  ],
  "bytecode": "0x60806040523480156200001157600080fd5b506040518060400160405280600481526020017f4f726273000000000000000000000000000000000000000000000000000000008152506040518060400160405280600481526020017f4f52425300000000000000000000000000000000000000000000000000000000815250816000908051906020019062000096929190620000b8565b508060019080519060200190620000af929190620000b8565b505050620001cd565b828054620000c69062000168565b90600052602060002090601f016020900481019282620000ea576000855562000136565b82601f106200010557805160ff191683800117855562000136565b8280016001018555821562000136579182015b828111156200013557825182559160200191906001019062000118565b5b50905062000145919062000149565b5090565b5b80821115620001645760008160009055506001016200014a565b5090565b600060028204905060018216806200018157607f821691505b602082108114156200019857620001976200019e565b5b50919050565b7f4e487b7100000000000000000000000000000000000000000000000000000000600052602260045260246000fd5b612dd280620001dd6000396000f3fe608060405234801561001057600080fd5b506004361061010b5760003560e01c806370a08231116100a2578063b88d4fde11610071578063b88d4fde146102b6578063c87b56dd146102d2578063e4fd153814610302578063e985e9c514610332578063eb685c47146103625761010b565b806370a082311461022e578063728b6fc71461025e57806395d89b411461027c578063a22cb4651461029a5761010b565b806323b872dd116100de57806323b872dd146101aa57806342842e0e146101c6578063553cc808146101e25780636352211e146101fe5761010b565b806301ffc9a71461011057806306fdde0314610140578063081812fc1461015e578063095ea7b31461018e575b600080fd5b61012a60048036038101906101259190611dad565b61037e565b6040516101379190612700565b60405180910390f35b610148610460565b604051610155919061271b565b60405180910390f35b61017860048036038101906101739190611dff565b6104f2565b6040516101859190612677565b60405180910390f35b6101a860048036038101906101a39190611d71565b610577565b005b6101c460048036038101906101bf9190611c17565b61068f565b005b6101e060048036038101906101db9190611c17565b6106ef565b005b6101fc60048036038101906101f79190611e28565b61070f565b005b61021860048036038101906102139190611dff565b61073b565b6040516102259190612677565b60405180910390f35b61024860048036038101906102439190611bb2565b6107ed565b604051610255919061291d565b60405180910390f35b6102666108a5565b60405161027391906126de565b60405180910390f35b610284610aba565b604051610291919061271b565b60405180910390f35b6102b460048036038101906102af9190611ce1565b610b4c565b005b6102d060048036038101906102cb9190611c66565b610ccd565b005b6102ec60048036038101906102e79190611dff565b610d2f565b6040516102f9919061271b565b60405180910390f35b61031c60048036038101906103179190611d1d565b610dd6565b604051610329919061291d565b60405180910390f35b61034c60048036038101906103479190611bdb565b610e0e565b6040516103599190612700565b60405180910390f35b61037c60048036038101906103779190611e7c565b610ea2565b005b60007f80ac58cd000000000000000000000000000000000000000000000000000000007bffffffffffffffffffffffffffffffffffffffffffffffffffffffff1916827bffffffffffffffffffffffffffffffffffffffffffffffffffffffff1916148061044957507f5b5e139f000000000000000000000000000000000000000000000000000000007bffffffffffffffffffffffffffffffffffffffffffffffffffffffff1916827bffffffffffffffffffffffffffffffffffffffffffffffffffffffff1916145b80610459575061045882610f06565b5b9050919050565b60606000805461046f90612bc7565b80601f016020809104026020016040519081016040528092919081815260200182805461049b90612bc7565b80156104e85780601f106104bd576101008083540402835291602001916104e8565b820191906000526020600020905b8154815290600101906020018083116104cb57829003601f168201915b5050505050905090565b60006104fd82610f70565b61053c576040517f08c379a00000000000000000000000000000000000000000000000000000000081526004016105339061285d565b60405180910390fd5b6004600083815260200190815260200160002060009054906101000a900473ffffffffffffffffffffffffffffffffffffffff169050919050565b60006105828261073b565b90508073ffffffffffffffffffffffffffffffffffffffff168373ffffffffffffffffffffffffffffffffffffffff1614156105f3576040517f08c379a00000000000000000000000000000000000000000000000000000000081526004016105ea906128dd565b60405180910390fd5b8073ffffffffffffffffffffffffffffffffffffffff16610612610fdc565b73ffffffffffffffffffffffffffffffffffffffff16148061064157506106408161063b610fdc565b610e0e565b5b610680576040517f08c379a0000000000000000000000000000000000000000000000000000000008152600401610677906127dd565b60405180910390fd5b61068a8383610fe4565b505050565b6106a061069a610fdc565b8261109d565b6106df576040517f08c379a00000000000000000000000000000000000000000000000000000000081526004016106d6906128fd565b60405180910390fd5b6106ea83838361117b565b505050565b61070a83838360405180602001604052806000815250610ccd565b505050565b80600860008481526020019081526020016000209080519060200190610736929190611998565b505050565b6000806002600084815260200190815260200160002060009054906101000a900473ffffffffffffffffffffffffffffffffffffffff169050600073ffffffffffffffffffffffffffffffffffffffff168173ffffffffffffffffffffffffffffffffffffffff1614156107e4576040517f08c379a00000000000000000000000000000000000000000000000000000000081526004016107db9061281d565b60405180910390fd5b80915050919050565b60008073ffffffffffffffffffffffffffffffffffffffff168273ffffffffffffffffffffffffffffffffffffffff16141561085e576040517f08c379a0000000000000000000000000000000000000000000000000000000008152600401610855906127fd565b60405180910390fd5b600360008373ffffffffffffffffffffffffffffffffffffffff1673ffffffffffffffffffffffffffffffffffffffff168152602001908152602001600020549050919050565b606060006108b360066113d7565b67ffffffffffffffff8111156108f2577f4e487b7100000000000000000000000000000000000000000000000000000000600052604160045260246000fd5b60405190808252806020026020018201604052801561092b57816020015b610918611a1e565b8152602001906001900390816109105790505b509050600080600190505b600161094260066113d7565b61094c9190612a56565b811015610ab157600061095e8261073b565b9050600060405180608001604052808481526020018373ffffffffffffffffffffffffffffffffffffffff168152602001600760008681526020019081526020016000205481526020016008600086815260200190815260200160002080546109c690612bc7565b80601f01602080910402602001604051908101604052809291908181526020018280546109f290612bc7565b8015610a3f5780601f10610a1457610100808354040283529160200191610a3f565b820191906000526020600020905b815481529060010190602001808311610a2257829003601f168201915b5050505050815250905080858581518110610a83577f4e487b7100000000000000000000000000000000000000000000000000000000600052603260045260246000fd5b60200260200101819052508380610a9990612bf9565b94505050508080610aa990612bf9565b915050610936565b50819250505090565b606060018054610ac990612bc7565b80601f0160208091040260200160405190810160405280929190818152602001828054610af590612bc7565b8015610b425780601f10610b1757610100808354040283529160200191610b42565b820191906000526020600020905b815481529060010190602001808311610b2557829003601f168201915b5050505050905090565b610b54610fdc565b73ffffffffffffffffffffffffffffffffffffffff168273ffffffffffffffffffffffffffffffffffffffff161415610bc2576040517f08c379a0000000000000000000000000000000000000000000000000000000008152600401610bb99061279d565b60405180910390fd5b8060056000610bcf610fdc565b73ffffffffffffffffffffffffffffffffffffffff1673ffffffffffffffffffffffffffffffffffffffff16815260200190815260200160002060008473ffffffffffffffffffffffffffffffffffffffff1673ffffffffffffffffffffffffffffffffffffffff16815260200190815260200160002060006101000a81548160ff0219169083151502179055508173ffffffffffffffffffffffffffffffffffffffff16610c7c610fdc565b73ffffffffffffffffffffffffffffffffffffffff167f17307eab39ab6107e8899845ad3d59bd9653f200f220920489ca2b5937696c3183604051610cc19190612700565b60405180910390a35050565b610cde610cd8610fdc565b8361109d565b610d1d576040517f08c379a0000000000000000000000000000000000000000000000000000000008152600401610d14906128fd565b60405180910390fd5b610d29848484846113e5565b50505050565b6060610d3a82610f70565b610d79576040517f08c379a0000000000000000000000000000000000000000000000000000000008152600401610d70906128bd565b60405180910390fd5b6000610d83611441565b90506000815111610da35760405180602001604052806000815250610dce565b80610dad84611458565b604051602001610dbe929190612653565b6040516020818303038152906040525b915050919050565b6000610de26006611605565b6000610dee60066113d7565b9050610dfa848261161b565b610e04818461070f565b8091505092915050565b6000600560008473ffffffffffffffffffffffffffffffffffffffff1673ffffffffffffffffffffffffffffffffffffffff16815260200190815260200160002060008373ffffffffffffffffffffffffffffffffffffffff1673ffffffffffffffffffffffffffffffffffffffff16815260200190815260200160002060009054906101000a900460ff16905092915050565b610eab82610f70565b610eea576040517f08c379a0000000000000000000000000000000000000000000000000000000008152600401610ee19061287d565b60405180910390fd5b8060076000848152602001908152602001600020819055505050565b60007f01ffc9a7000000000000000000000000000000000000000000000000000000007bffffffffffffffffffffffffffffffffffffffffffffffffffffffff1916827bffffffffffffffffffffffffffffffffffffffffffffffffffffffff1916149050919050565b60008073ffffffffffffffffffffffffffffffffffffffff166002600084815260200190815260200160002060009054906101000a900473ffffffffffffffffffffffffffffffffffffffff1673ffffffffffffffffffffffffffffffffffffffff1614159050919050565b600033905090565b816004600083815260200190815260200160002060006101000a81548173ffffffffffffffffffffffffffffffffffffffff021916908373ffffffffffffffffffffffffffffffffffffffff160217905550808273ffffffffffffffffffffffffffffffffffffffff166110578361073b565b73ffffffffffffffffffffffffffffffffffffffff167f8c5be1e5ebec7d5bd14f71427d1e84f3dd0314c0f7b2291e5b200ac8c7c3b92560405160405180910390a45050565b60006110a882610f70565b6110e7576040517f08c379a00000000000000000000000000000000000000000000000000000000081526004016110de906127bd565b60405180910390fd5b60006110f28361073b565b90508073ffffffffffffffffffffffffffffffffffffffff168473ffffffffffffffffffffffffffffffffffffffff16148061116157508373ffffffffffffffffffffffffffffffffffffffff16611149846104f2565b73ffffffffffffffffffffffffffffffffffffffff16145b8061117257506111718185610e0e565b5b91505092915050565b8273ffffffffffffffffffffffffffffffffffffffff1661119b8261073b565b73ffffffffffffffffffffffffffffffffffffffff16146111f1576040517f08c379a00000000000000000000000000000000000000000000000000000000081526004016111e89061289d565b60405180910390fd5b600073ffffffffffffffffffffffffffffffffffffffff168273ffffffffffffffffffffffffffffffffffffffff161415611261576040517f08c379a00000000000000000000000000000000000000000000000000000000081526004016112589061277d565b60405180910390fd5b61126c8383836117e9565b611277600082610fe4565b6001600360008573ffffffffffffffffffffffffffffffffffffffff1673ffffffffffffffffffffffffffffffffffffffff16815260200190815260200160002060008282546112c79190612add565b925050819055506001600360008473ffffffffffffffffffffffffffffffffffffffff1673ffffffffffffffffffffffffffffffffffffffff168152602001908152602001600020600082825461131e9190612a56565b92505081905550816002600083815260200190815260200160002060006101000a81548173ffffffffffffffffffffffffffffffffffffffff021916908373ffffffffffffffffffffffffffffffffffffffff160217905550808273ffffffffffffffffffffffffffffffffffffffff168473ffffffffffffffffffffffffffffffffffffffff167fddf252ad1be2c89b69c2b068fc378daa952ba7f163c4a11628f55a4df523b3ef60405160405180910390a4505050565b600081600001549050919050565b6113f084848461117b565b6113fc848484846117ee565b61143b576040517f08c379a00000000000000000000000000000000000000000000000000000000081526004016114329061273d565b60405180910390fd5b50505050565b606060405180602001604052806000815250905090565b606060008214156114a0576040518060400160405280600181526020017f30000000000000000000000000000000000000000000000000000000000000008152509050611600565b600082905060005b600082146114d25780806114bb90612bf9565b915050600a826114cb9190612aac565b91506114a8565b60008167ffffffffffffffff811115611514577f4e487b7100000000000000000000000000000000000000000000000000000000600052604160045260246000fd5b6040519080825280601f01601f1916602001820160405280156115465781602001600182028036833780820191505090505b5090505b600085146115f95760018261155f9190612add565b9150600a8561156e9190612c42565b603061157a9190612a56565b60f81b8183815181106115b6577f4e487b7100000000000000000000000000000000000000000000000000000000600052603260045260246000fd5b60200101907effffffffffffffffffffffffffffffffffffffffffffffffffffffffffffff1916908160001a905350600a856115f29190612aac565b945061154a565b8093505050505b919050565b6001816000016000828254019250508190555050565b600073ffffffffffffffffffffffffffffffffffffffff168273ffffffffffffffffffffffffffffffffffffffff16141561168b576040517f08c379a00000000000000000000000000000000000000000000000000000000081526004016116829061283d565b60405180910390fd5b61169481610f70565b156116d4576040517f08c379a00000000000000000000000000000000000000000000000000000000081526004016116cb9061275d565b60405180910390fd5b6116e0600083836117e9565b6001600360008473ffffffffffffffffffffffffffffffffffffffff1673ffffffffffffffffffffffffffffffffffffffff16815260200190815260200160002060008282546117309190612a56565b92505081905550816002600083815260200190815260200160002060006101000a81548173ffffffffffffffffffffffffffffffffffffffff021916908373ffffffffffffffffffffffffffffffffffffffff160217905550808273ffffffffffffffffffffffffffffffffffffffff16600073ffffffffffffffffffffffffffffffffffffffff167fddf252ad1be2c89b69c2b068fc378daa952ba7f163c4a11628f55a4df523b3ef60405160405180910390a45050565b505050565b600061180f8473ffffffffffffffffffffffffffffffffffffffff16611985565b15611978578373ffffffffffffffffffffffffffffffffffffffff1663150b7a02611838610fdc565b8786866040518563ffffffff1660e01b815260040161185a9493929190612692565b602060405180830381600087803b15801561187457600080fd5b505af19250505080156118a557506040513d601f19601f820116820180604052508101906118a29190611dd6565b60015b611928573d80600081146118d5576040519150601f19603f3d011682016040523d82523d6000602084013e6118da565b606091505b50600081511415611920576040517f08c379a00000000000000000000000000000000000000000000000000000000081526004016119179061273d565b60405180910390fd5b805181602001fd5b63150b7a0260e01b7bffffffffffffffffffffffffffffffffffffffffffffffffffffffff1916817bffffffffffffffffffffffffffffffffffffffffffffffffffffffff19161491505061197d565b600190505b949350505050565b600080823b905060008111915050919050565b8280546119a490612bc7565b90600052602060002090601f0160209004810192826119c65760008555611a0d565b82601f106119df57805160ff1916838001178555611a0d565b82800160010185558215611a0d579182015b82811115611a0c5782518255916020019190600101906119f1565b5b509050611a1a9190611a5c565b5090565b604051806080016040528060008152602001600073ffffffffffffffffffffffffffffffffffffffff16815260200160008152602001606081525090565b5b80821115611a75576000816000905550600101611a5d565b5090565b6000611a8c611a8784612969565b612938565b905082815260208101848484011115611aa457600080fd5b611aaf848285612b85565b509392505050565b6000611aca611ac584612999565b612938565b905082815260208101848484011115611ae257600080fd5b611aed848285612b85565b509392505050565b600081359050611b0481612d40565b92915050565b600081359050611b1981612d57565b92915050565b600081359050611b2e81612d6e565b92915050565b600081519050611b4381612d6e565b92915050565b600082601f830112611b5a57600080fd5b8135611b6a848260208601611a79565b91505092915050565b600082601f830112611b8457600080fd5b8135611b94848260208601611ab7565b91505092915050565b600081359050611bac81612d85565b92915050565b600060208284031215611bc457600080fd5b6000611bd284828501611af5565b91505092915050565b60008060408385031215611bee57600080fd5b6000611bfc85828601611af5565b9250506020611c0d85828601611af5565b9150509250929050565b600080600060608486031215611c2c57600080fd5b6000611c3a86828701611af5565b9350506020611c4b86828701611af5565b9250506040611c5c86828701611b9d565b9150509250925092565b60008060008060808587031215611c7c57600080fd5b6000611c8a87828801611af5565b9450506020611c9b87828801611af5565b9350506040611cac87828801611b9d565b925050606085013567ffffffffffffffff811115611cc957600080fd5b611cd587828801611b49565b91505092959194509250565b60008060408385031215611cf457600080fd5b6000611d0285828601611af5565b9250506020611d1385828601611b0a565b9150509250929050565b60008060408385031215611d3057600080fd5b6000611d3e85828601611af5565b925050602083013567ffffffffffffffff811115611d5b57600080fd5b611d6785828601611b73565b9150509250929050565b60008060408385031215611d8457600080fd5b6000611d9285828601611af5565b9250506020611da385828601611b9d565b9150509250929050565b600060208284031215611dbf57600080fd5b6000611dcd84828501611b1f565b91505092915050565b600060208284031215611de857600080fd5b6000611df684828501611b34565b91505092915050565b600060208284031215611e1157600080fd5b6000611e1f84828501611b9d565b91505092915050565b60008060408385031215611e3b57600080fd5b6000611e4985828601611b9d565b925050602083013567ffffffffffffffff811115611e6657600080fd5b611e7285828601611b73565b9150509250929050565b60008060408385031215611e8f57600080fd5b6000611e9d85828601611b9d565b9250506020611eae85828601611b9d565b9150509250929050565b6000611ec483836125d2565b905092915050565b611ed581612b11565b82525050565b611ee481612b11565b82525050565b6000611ef5826129d9565b611eff8185612a07565b935083602082028501611f11856129c9565b8060005b85811015611f4d5784840389528151611f2e8582611eb8565b9450611f39836129fa565b925060208a01995050600181019050611f15565b50829750879550505050505092915050565b611f6881612b23565b82525050565b6000611f79826129e4565b611f838185612a18565b9350611f93818560208601612b94565b611f9c81612d2f565b840191505092915050565b6000611fb2826129ef565b611fbc8185612a29565b9350611fcc818560208601612b94565b611fd581612d2f565b840191505092915050565b6000611feb826129ef565b611ff58185612a3a565b9350612005818560208601612b94565b61200e81612d2f565b840191505092915050565b6000612024826129ef565b61202e8185612a4b565b935061203e818560208601612b94565b80840191505092915050565b6000612057603283612a3a565b91507f4552433732313a207472616e7366657220746f206e6f6e20455243373231526560008301527f63656976657220696d706c656d656e74657200000000000000000000000000006020830152604082019050919050565b60006120bd601c83612a3a565b91507f4552433732313a20746f6b656e20616c7265616479206d696e746564000000006000830152602082019050919050565b60006120fd602483612a3a565b91507f4552433732313a207472616e7366657220746f20746865207a65726f2061646460008301527f72657373000000000000000000000000000000000000000000000000000000006020830152604082019050919050565b6000612163601983612a3a565b91507f4552433732313a20617070726f766520746f2063616c6c6572000000000000006000830152602082019050919050565b60006121a3602c83612a3a565b91507f4552433732313a206f70657261746f7220717565727920666f72206e6f6e657860008301527f697374656e7420746f6b656e00000000000000000000000000000000000000006020830152604082019050919050565b6000612209603883612a3a565b91507f4552433732313a20617070726f76652063616c6c6572206973206e6f74206f7760008301527f6e6572206e6f7220617070726f76656420666f7220616c6c00000000000000006020830152604082019050919050565b600061226f602a83612a3a565b91507f4552433732313a2062616c616e636520717565727920666f7220746865207a6560008301527f726f2061646472657373000000000000000000000000000000000000000000006020830152604082019050919050565b60006122d5602983612a3a565b91507f4552433732313a206f776e657220717565727920666f72206e6f6e657869737460008301527f656e7420746f6b656e00000000000000000000000000000000000000000000006020830152604082019050919050565b600061233b602083612a3a565b91507f4552433732313a206d696e7420746f20746865207a65726f20616464726573736000830152602082019050919050565b600061237b602c83612a3a565b91507f4552433732313a20617070726f76656420717565727920666f72206e6f6e657860008301527f697374656e7420746f6b656e00000000000000000000000000000000000000006020830152604082019050919050565b60006123e1602e83612a3a565b91507f4552433732314d657461646174613a20507269636520736574206f66206e6f6e60008301527f6578697374656e7420746f6b656e0000000000000000000000000000000000006020830152604082019050919050565b6000612447602983612a3a565b91507f4552433732313a207472616e73666572206f6620746f6b656e2074686174206960008301527f73206e6f74206f776e00000000000000000000000000000000000000000000006020830152604082019050919050565b60006124ad602f83612a3a565b91507f4552433732314d657461646174613a2055524920717565727920666f72206e6f60008301527f6e6578697374656e7420746f6b656e00000000000000000000000000000000006020830152604082019050919050565b6000612513602183612a3a565b91507f4552433732313a20617070726f76616c20746f2063757272656e74206f776e6560008301527f72000000000000000000000000000000000000000000000000000000000000006020830152604082019050919050565b6000612579603183612a3a565b91507f4552433732313a207472616e736665722063616c6c6572206973206e6f74206f60008301527f776e6572206e6f7220617070726f7665640000000000000000000000000000006020830152604082019050919050565b60006080830160008301516125ea6000860182612635565b5060208301516125fd6020860182611ecc565b5060408301516126106040860182612635565b50606083015184820360608601526126288282611fa7565b9150508091505092915050565b61263e81612b7b565b82525050565b61264d81612b7b565b82525050565b600061265f8285612019565b915061266b8284612019565b91508190509392505050565b600060208201905061268c6000830184611edb565b92915050565b60006080820190506126a76000830187611edb565b6126b46020830186611edb565b6126c16040830185612644565b81810360608301526126d38184611f6e565b905095945050505050565b600060208201905081810360008301526126f88184611eea565b905092915050565b60006020820190506127156000830184611f5f565b92915050565b600060208201905081810360008301526127358184611fe0565b905092915050565b600060208201905081810360008301526127568161204a565b9050919050565b60006020820190508181036000830152612776816120b0565b9050919050565b60006020820190508181036000830152612796816120f0565b9050919050565b600060208201905081810360008301526127b681612156565b9050919050565b600060208201905081810360008301526127d681612196565b9050919050565b600060208201905081810360008301526127f6816121fc565b9050919050565b6000602082019050818103600083015261281681612262565b9050919050565b60006020820190508181036000830152612836816122c8565b9050919050565b600060208201905081810360008301526128568161232e565b9050919050565b600060208201905081810360008301526128768161236e565b9050919050565b60006020820190508181036000830152612896816123d4565b9050919050565b600060208201905081810360008301526128b68161243a565b9050919050565b600060208201905081810360008301526128d6816124a0565b9050919050565b600060208201905081810360008301526128f681612506565b9050919050565b600060208201905081810360008301526129168161256c565b9050919050565b60006020820190506129326000830184612644565b92915050565b6000604051905081810181811067ffffffffffffffff8211171561295f5761295e612d00565b5b8060405250919050565b600067ffffffffffffffff82111561298457612983612d00565b5b601f19601f8301169050602081019050919050565b600067ffffffffffffffff8211156129b4576129b3612d00565b5b601f19601f8301169050602081019050919050565b6000819050602082019050919050565b600081519050919050565b600081519050919050565b600081519050919050565b6000602082019050919050565b600082825260208201905092915050565b600082825260208201905092915050565b600082825260208201905092915050565b600082825260208201905092915050565b600081905092915050565b6000612a6182612b7b565b9150612a6c83612b7b565b9250827fffffffffffffffffffffffffffffffffffffffffffffffffffffffffffffffff03821115612aa157612aa0612c73565b5b828201905092915050565b6000612ab782612b7b565b9150612ac283612b7b565b925082612ad257612ad1612ca2565b5b828204905092915050565b6000612ae882612b7b565b9150612af383612b7b565b925082821015612b0657612b05612c73565b5b828203905092915050565b6000612b1c82612b5b565b9050919050565b60008115159050919050565b60007fffffffff0000000000000000000000000000000000000000000000000000000082169050919050565b600073ffffffffffffffffffffffffffffffffffffffff82169050919050565b6000819050919050565b82818337600083830152505050565b60005b83811015612bb2578082015181840152602081019050612b97565b83811115612bc1576000848401525b50505050565b60006002820490506001821680612bdf57607f821691505b60208210811415612bf357612bf2612cd1565b5b50919050565b6000612c0482612b7b565b91507fffffffffffffffffffffffffffffffffffffffffffffffffffffffffffffffff821415612c3757612c36612c73565b5b600182019050919050565b6000612c4d82612b7b565b9150612c5883612b7b565b925082612c6857612c67612ca2565b5b828206905092915050565b7f4e487b7100000000000000000000000000000000000000000000000000000000600052601160045260246000fd5b7f4e487b7100000000000000000000000000000000000000000000000000000000600052601260045260246000fd5b7f4e487b7100000000000000000000000000000000000000000000000000000000600052602260045260246000fd5b7f4e487b7100000000000000000000000000000000000000000000000000000000600052604160045260246000fd5b6000601f19601f8301169050919050565b612d4981612b11565b8114612d5457600080fd5b50565b612d6081612b23565b8114612d6b57600080fd5b50565b612d7781612b2f565b8114612d8257600080fd5b50565b612d8e81612b7b565b8114612d9957600080fd5b5056fea2646970667358221220f213b5b19da9c29a8bfee0c0b4f07ba3de5fee2f275f34b7a4691ca56712fcaf64736f6c63430008000033",
  "immutableReferences": {},
  "source": "// SPDX-License-Identifier: MIT\r\npragma solidity ^0.8.0;\r\n\r\nimport \"@openzeppelin/contracts/token/ERC721/ERC721.sol\";\r\nimport \"@openzeppelin/contracts/utils/Counters.sol\";\r\n\r\ncontract Orbs is ERC721{\r\n    using Counters for Counters.Counter;\r\n    Counters.Counter private _tokenIds;\r\n\r\n\r\n    mapping (uint256 => uint256) private _tokenPrices;\r\n    mapping (uint256 => string) private _tokenDnas;\r\n\r\n    struct OrbProps {\r\n        uint256 id;\r\n        address owner;\r\n        uint256 price;\r\n        string dna;\r\n    }\r\n\r\n    constructor() ERC721(\"Orbs\", \"ORBS\") {\r\n    }\r\n    \r\n\r\n    function getAllOrbs () public view virtual returns( OrbProps[] memory ) {\r\n        OrbProps[] memory tokens = new OrbProps[](_tokenIds.current());\r\n        uint256 counter = 0;\r\n\r\n        for(uint i = 1; i < _tokenIds.current() + 1; i++) {\r\n                address owner = ownerOf(i);\r\n                OrbProps memory token = OrbProps(i,owner, _tokenPrices[i], _tokenDnas[i]);\r\n                tokens[counter] = token;\r\n                counter++;\r\n        }\r\n        return tokens;\r\n    }\r\n\r\n    function setTokenPrice(uint256 tokenId, uint256 _price) public {\r\n        require(_exists(tokenId), \"ERC721Metadata: Price set of nonexistent token\");\r\n        _tokenPrices[tokenId] = _price;\r\n    }\r\n\r\n    function setTokenDna(uint256 tokenId,string memory _dna) public {\r\n        _tokenDnas[tokenId] = _dna;\r\n    }\r\n    \r\n    \r\n\r\n    // 0 -> ['tone','note','time','hashmark'] ...\r\n    function mintCollectable(address _owner, string memory _dna)\r\n        public\r\n        returns (uint256)\r\n    {\r\n        _tokenIds.increment();\r\n        uint256 newItemId = _tokenIds.current();\r\n        _mint(_owner, newItemId);\r\n        setTokenDna(newItemId, _dna);\r\n        return newItemId;\r\n    }\r\n\r\n    //receive() external payable {}\r\n\r\n\r\n}",
  "sourcePath": "C:/Users/Usuario/Desktop/ORBS_PROJECT/OrbsContract/contracts/Orbs.sol",
  "compiler": {
    "name": "solc",
    "version": "0.8.0+commit.c7dfd78e.Emscripten.clang"
  },
  "schemaVersion": "3.4.1",
  "updatedAt": "2021-07-27T22:53:09.177Z",
  "networkType": "ethereum",
  "devdoc": {
    "kind": "dev",
    "methods": {
      "approve(address,uint256)": {
        "details": "See {IERC721-approve}."
      },
      "balanceOf(address)": {
        "details": "See {IERC721-balanceOf}."
      },
      "getApproved(uint256)": {
        "details": "See {IERC721-getApproved}."
      },
      "isApprovedForAll(address,address)": {
        "details": "See {IERC721-isApprovedForAll}."
      },
      "name()": {
        "details": "See {IERC721Metadata-name}."
      },
      "ownerOf(uint256)": {
        "details": "See {IERC721-ownerOf}."
      },
      "safeTransferFrom(address,address,uint256)": {
        "details": "See {IERC721-safeTransferFrom}."
      },
      "safeTransferFrom(address,address,uint256,bytes)": {
        "details": "See {IERC721-safeTransferFrom}."
      },
      "setApprovalForAll(address,bool)": {
        "details": "See {IERC721-setApprovalForAll}."
      },
      "supportsInterface(bytes4)": {
        "details": "See {IERC165-supportsInterface}."
      },
      "symbol()": {
        "details": "See {IERC721Metadata-symbol}."
      },
      "tokenURI(uint256)": {
        "details": "See {IERC721Metadata-tokenURI}."
      },
      "transferFrom(address,address,uint256)": {
        "details": "See {IERC721-transferFrom}."
      }
    },
    "version": 1
  },
  "userdoc": {
    "kind": "user",
    "methods": {},
    "version": 1
  }
}