{
  "contractName": "Orbs",
  "abi": [
    {
      "inputs": [],
      "stateMutability": "nonpayable",
      "type": "constructor"
    },
    {
      "anonymous": false,
      "inputs": [
        {
          "indexed": true,
          "internalType": "address",
          "name": "owner",
          "type": "address"
        },
        {
          "indexed": true,
          "internalType": "address",
          "name": "approved",
          "type": "address"
        },
        {
          "indexed": true,
          "internalType": "uint256",
          "name": "tokenId",
          "type": "uint256"
        }
      ],
      "name": "Approval",
      "type": "event"
    },
    {
      "anonymous": false,
      "inputs": [
        {
          "indexed": true,
          "internalType": "address",
          "name": "owner",
          "type": "address"
        },
        {
          "indexed": true,
          "internalType": "address",
          "name": "operator",
          "type": "address"
        },
        {
          "indexed": false,
          "internalType": "bool",
          "name": "approved",
          "type": "bool"
        }
      ],
      "name": "ApprovalForAll",
      "type": "event"
    },
    {
      "anonymous": false,
      "inputs": [
        {
          "indexed": true,
          "internalType": "address",
          "name": "from",
          "type": "address"
        },
        {
          "indexed": true,
          "internalType": "address",
          "name": "to",
          "type": "address"
        },
        {
          "indexed": true,
          "internalType": "uint256",
          "name": "tokenId",
          "type": "uint256"
        }
      ],
      "name": "Transfer",
      "type": "event"
    },
    {
      "inputs": [
        {
          "internalType": "address",
          "name": "to",
          "type": "address"
        },
        {
          "internalType": "uint256",
          "name": "tokenId",
          "type": "uint256"
        }
      ],
      "name": "approve",
      "outputs": [],
      "stateMutability": "nonpayable",
      "type": "function"
    },
    {
      "inputs": [
        {
          "internalType": "address",
          "name": "owner",
          "type": "address"
        }
      ],
      "name": "balanceOf",
      "outputs": [
        {
          "internalType": "uint256",
          "name": "",
          "type": "uint256"
        }
      ],
      "stateMutability": "view",
      "type": "function",
      "constant": true
    },
    {
      "inputs": [
        {
          "internalType": "uint256",
          "name": "tokenId",
          "type": "uint256"
        }
      ],
      "name": "getApproved",
      "outputs": [
        {
          "internalType": "address",
          "name": "",
          "type": "address"
        }
      ],
      "stateMutability": "view",
      "type": "function",
      "constant": true
    },
    {
      "inputs": [
        {
          "internalType": "address",
          "name": "owner",
          "type": "address"
        },
        {
          "internalType": "address",
          "name": "operator",
          "type": "address"
        }
      ],
      "name": "isApprovedForAll",
      "outputs": [
        {
          "internalType": "bool",
          "name": "",
          "type": "bool"
        }
      ],
      "stateMutability": "view",
      "type": "function",
      "constant": true
    },
    {
      "inputs": [],
      "name": "name",
      "outputs": [
        {
          "internalType": "string",
          "name": "",
          "type": "string"
        }
      ],
      "stateMutability": "view",
      "type": "function",
      "constant": true
    },
    {
      "inputs": [
        {
          "internalType": "uint256",
          "name": "tokenId",
          "type": "uint256"
        }
      ],
      "name": "ownerOf",
      "outputs": [
        {
          "internalType": "address",
          "name": "",
          "type": "address"
        }
      ],
      "stateMutability": "view",
      "type": "function",
      "constant": true
    },
    {
      "inputs": [
        {
          "internalType": "address",
          "name": "from",
          "type": "address"
        },
        {
          "internalType": "address",
          "name": "to",
          "type": "address"
        },
        {
          "internalType": "uint256",
          "name": "tokenId",
          "type": "uint256"
        }
      ],
      "name": "safeTransferFrom",
      "outputs": [],
      "stateMutability": "nonpayable",
      "type": "function"
    },
    {
      "inputs": [
        {
          "internalType": "address",
          "name": "from",
          "type": "address"
        },
        {
          "internalType": "address",
          "name": "to",
          "type": "address"
        },
        {
          "internalType": "uint256",
          "name": "tokenId",
          "type": "uint256"
        },
        {
          "internalType": "bytes",
          "name": "_data",
          "type": "bytes"
        }
      ],
      "name": "safeTransferFrom",
      "outputs": [],
      "stateMutability": "nonpayable",
      "type": "function"
    },
    {
      "inputs": [
        {
          "internalType": "address",
          "name": "operator",
          "type": "address"
        },
        {
          "internalType": "bool",
          "name": "approved",
          "type": "bool"
        }
      ],
      "name": "setApprovalForAll",
      "outputs": [],
      "stateMutability": "nonpayable",
      "type": "function"
    },
    {
      "inputs": [
        {
          "internalType": "bytes4",
          "name": "interfaceId",
          "type": "bytes4"
        }
      ],
      "name": "supportsInterface",
      "outputs": [
        {
          "internalType": "bool",
          "name": "",
          "type": "bool"
        }
      ],
      "stateMutability": "view",
      "type": "function",
      "constant": true
    },
    {
      "inputs": [],
      "name": "symbol",
      "outputs": [
        {
          "internalType": "string",
          "name": "",
          "type": "string"
        }
      ],
      "stateMutability": "view",
      "type": "function",
      "constant": true
    },
    {
      "inputs": [
        {
          "internalType": "uint256",
          "name": "tokenId",
          "type": "uint256"
        }
      ],
      "name": "tokenURI",
      "outputs": [
        {
          "internalType": "string",
          "name": "",
          "type": "string"
        }
      ],
      "stateMutability": "view",
      "type": "function",
      "constant": true
    },
    {
      "inputs": [
        {
          "internalType": "address",
          "name": "from",
          "type": "address"
        },
        {
          "internalType": "address",
          "name": "to",
          "type": "address"
        },
        {
          "internalType": "uint256",
          "name": "tokenId",
          "type": "uint256"
        }
      ],
      "name": "transferFrom",
      "outputs": [],
      "stateMutability": "nonpayable",
      "type": "function"
    },
    {
      "stateMutability": "payable",
      "type": "receive",
      "payable": true
    },
    {
      "inputs": [
        {
          "internalType": "uint256",
          "name": "_token_id",
          "type": "uint256"
        },
        {
          "internalType": "uint256",
          "name": "_number_of_orbs",
          "type": "uint256"
        }
      ],
      "name": "getNthsOrbs",
      "outputs": [
        {
          "components": [
            {
              "internalType": "uint256",
              "name": "id",
              "type": "uint256"
            },
            {
              "internalType": "address",
              "name": "owner",
              "type": "address"
            },
            {
              "internalType": "uint256",
              "name": "price",
              "type": "uint256"
            },
            {
              "internalType": "string",
              "name": "dna",
              "type": "string"
            },
            {
              "internalType": "uint256",
              "name": "likes",
              "type": "uint256"
            }
          ],
          "internalType": "struct Orbs.OrbProps[]",
          "name": "",
          "type": "tuple[]"
        }
      ],
      "stateMutability": "view",
      "type": "function",
      "constant": true
    },
    {
      "inputs": [],
      "name": "getNumberOfOrbs",
      "outputs": [
        {
          "internalType": "uint256",
          "name": "",
          "type": "uint256"
        }
      ],
      "stateMutability": "view",
      "type": "function",
      "constant": true
    },
    {
      "inputs": [],
      "name": "getAllOrbs",
      "outputs": [
        {
          "components": [
            {
              "internalType": "uint256",
              "name": "id",
              "type": "uint256"
            },
            {
              "internalType": "address",
              "name": "owner",
              "type": "address"
            },
            {
              "internalType": "uint256",
              "name": "price",
              "type": "uint256"
            },
            {
              "internalType": "string",
              "name": "dna",
              "type": "string"
            },
            {
              "internalType": "uint256",
              "name": "likes",
              "type": "uint256"
            }
          ],
          "internalType": "struct Orbs.OrbProps[]",
          "name": "",
          "type": "tuple[]"
        }
      ],
      "stateMutability": "view",
      "type": "function",
      "constant": true
    },
    {
      "inputs": [
        {
          "internalType": "uint256",
          "name": "tokenId",
          "type": "uint256"
        },
        {
          "internalType": "uint256",
          "name": "_price",
          "type": "uint256"
        }
      ],
      "name": "setTokenPrice",
      "outputs": [],
      "stateMutability": "nonpayable",
      "type": "function"
    },
    {
      "inputs": [
        {
          "internalType": "uint256",
          "name": "tokenId",
          "type": "uint256"
        },
        {
          "internalType": "uint256",
          "name": "_like",
          "type": "uint256"
        }
      ],
      "name": "setLikeToken",
      "outputs": [
        {
          "internalType": "bool",
          "name": "",
          "type": "bool"
        }
      ],
      "stateMutability": "nonpayable",
      "type": "function"
    },
    {
      "inputs": [
        {
          "internalType": "uint256",
          "name": "tokenId",
          "type": "uint256"
        },
        {
          "internalType": "uint256",
          "name": "_like",
          "type": "uint256"
        }
      ],
      "name": "setUnLikeToken",
      "outputs": [
        {
          "internalType": "bool",
          "name": "",
          "type": "bool"
        }
      ],
      "stateMutability": "nonpayable",
      "type": "function"
    },
    {
      "inputs": [
        {
          "internalType": "address",
          "name": "_owner",
          "type": "address"
        },
        {
          "internalType": "string",
          "name": "_dna",
          "type": "string"
        }
      ],
      "name": "mintCollectable",
      "outputs": [
        {
          "internalType": "uint256",
          "name": "",
          "type": "uint256"
        }
      ],
      "stateMutability": "payable",
      "type": "function",
      "payable": true
    },
    {
      "inputs": [],
      "name": "transferBalanceToOwner",
      "outputs": [],
      "stateMutability": "payable",
      "type": "function",
      "payable": true
    }
  ],
  "bytecode": "0x60806040523480156200001157600080fd5b506040518060400160405280600481526020017f4f726273000000000000000000000000000000000000000000000000000000008152506040518060400160405280600481526020017f4f52425300000000000000000000000000000000000000000000000000000000815250816000908051906020019062000096929190620000f9565b508060019080519060200190620000af929190620000f9565b50505033600760006101000a81548173ffffffffffffffffffffffffffffffffffffffff021916908373ffffffffffffffffffffffffffffffffffffffff1602179055506200020e565b8280546200010790620001a9565b90600052602060002090601f0160209004810192826200012b576000855562000177565b82601f106200014657805160ff191683800117855562000177565b8280016001018555821562000177579182015b828111156200017657825182559160200191906001019062000159565b5b5090506200018691906200018a565b5090565b5b80821115620001a55760008160009055506001016200018b565b5090565b60006002820490506001821680620001c257607f821691505b60208210811415620001d957620001d8620001df565b5b50919050565b7f4e487b7100000000000000000000000000000000000000000000000000000000600052602260045260246000fd5b613a71806200021e6000396000f3fe60806040526004361061012e5760003560e01c8063728b6fc7116100ab578063b88d4fde1161006f578063b88d4fde14610402578063c67892e11461042b578063c87b56dd14610468578063e4fd1538146104a5578063e985e9c5146104d5578063eb685c471461051257610135565b8063728b6fc7146103095780637cf1c25d1461033457806395d89b4114610371578063a22cb4651461039c578063ac34d418146103c557610135565b8063265b1768116100f2578063265b17681461023157806342842e0e1461025c57806347f07a8e146102855780636352211e1461028f57806370a08231146102cc57610135565b806301ffc9a71461013a57806306fdde0314610177578063081812fc146101a2578063095ea7b3146101df57806323b872dd1461020857610135565b3661013557005b600080fd5b34801561014657600080fd5b50610161600480360381019061015c9190612887565b61053b565b60405161016e91906132ff565b60405180910390f35b34801561018357600080fd5b5061018c61061d565b604051610199919061331a565b60405180910390f35b3480156101ae57600080fd5b506101c960048036038101906101c491906128d9565b6106af565b6040516101d69190613276565b60405180910390f35b3480156101eb57600080fd5b506102066004803603810190610201919061284b565b610734565b005b34801561021457600080fd5b5061022f600480360381019061022a91906126f1565b61084c565b005b34801561023d57600080fd5b506102466108ac565b60405161025391906135bc565b60405180910390f35b34801561026857600080fd5b50610283600480360381019061027e91906126f1565b6108bd565b005b61028d6108dd565b005b34801561029b57600080fd5b506102b660048036038101906102b191906128d9565b6109d8565b6040516102c39190613276565b60405180910390f35b3480156102d857600080fd5b506102f360048036038101906102ee919061268c565b610a8a565b60405161030091906135bc565b60405180910390f35b34801561031557600080fd5b5061031e610b42565b60405161032b91906132dd565b60405180910390f35b34801561034057600080fd5b5061035b60048036038101906103569190612902565b610d70565b60405161036891906132dd565b60405180910390f35b34801561037d57600080fd5b5061038661131a565b604051610393919061331a565b60405180910390f35b3480156103a857600080fd5b506103c360048036038101906103be91906127bb565b6113ac565b005b3480156103d157600080fd5b506103ec60048036038101906103e79190612902565b61152d565b6040516103f991906132ff565b60405180910390f35b34801561040e57600080fd5b5061042960048036038101906104249190612740565b6115d8565b005b34801561043757600080fd5b50610452600480360381019061044d9190612902565b61163a565b60405161045f91906132ff565b60405180910390f35b34801561047457600080fd5b5061048f600480360381019061048a91906128d9565b6116c8565b60405161049c919061331a565b60405180910390f35b6104bf60048036038101906104ba91906127f7565b61176f565b6040516104cc91906135bc565b60405180910390f35b3480156104e157600080fd5b506104fc60048036038101906104f791906126b5565b6117f1565b60405161050991906132ff565b60405180910390f35b34801561051e57600080fd5b5061053960048036038101906105349190612902565b611885565b005b60007f80ac58cd000000000000000000000000000000000000000000000000000000007bffffffffffffffffffffffffffffffffffffffffffffffffffffffff1916827bffffffffffffffffffffffffffffffffffffffffffffffffffffffff1916148061060657507f5b5e139f000000000000000000000000000000000000000000000000000000007bffffffffffffffffffffffffffffffffffffffffffffffffffffffff1916827bffffffffffffffffffffffffffffffffffffffffffffffffffffffff1916145b80610616575061061582611963565b5b9050919050565b60606000805461062c90613866565b80601f016020809104026020016040519081016040528092919081815260200182805461065890613866565b80156106a55780601f1061067a576101008083540402835291602001916106a5565b820191906000526020600020905b81548152906001019060200180831161068857829003601f168201915b5050505050905090565b60006106ba826119cd565b6106f9576040517f08c379a00000000000000000000000000000000000000000000000000000000081526004016106f0906134fc565b60405180910390fd5b6004600083815260200190815260200160002060009054906101000a900473ffffffffffffffffffffffffffffffffffffffff169050919050565b600061073f826109d8565b90508073ffffffffffffffffffffffffffffffffffffffff168373ffffffffffffffffffffffffffffffffffffffff1614156107b0576040517f08c379a00000000000000000000000000000000000000000000000000000000081526004016107a79061355c565b60405180910390fd5b8073ffffffffffffffffffffffffffffffffffffffff166107cf611a39565b73ffffffffffffffffffffffffffffffffffffffff1614806107fe57506107fd816107f8611a39565b6117f1565b5b61083d576040517f08c379a00000000000000000000000000000000000000000000000000000000081526004016108349061345c565b60405180910390fd5b6108478383611a41565b505050565b61085d610857611a39565b82611afa565b61089c576040517f08c379a00000000000000000000000000000000000000000000000000000000081526004016108939061357c565b60405180910390fd5b6108a7838383611bd8565b505050565b60006108b86006611e34565b905090565b6108d8838383604051806020016040528060008152506115d8565b505050565b600760009054906101000a900473ffffffffffffffffffffffffffffffffffffffff1673ffffffffffffffffffffffffffffffffffffffff163373ffffffffffffffffffffffffffffffffffffffff161461096d576040517f08c379a00000000000000000000000000000000000000000000000000000000081526004016109649061343c565b60405180910390fd5b600760009054906101000a900473ffffffffffffffffffffffffffffffffffffffff1673ffffffffffffffffffffffffffffffffffffffff166108fc479081150290604051600060405180830381858888f193505050501580156109d5573d6000803e3d6000fd5b50565b6000806002600084815260200190815260200160002060009054906101000a900473ffffffffffffffffffffffffffffffffffffffff169050600073ffffffffffffffffffffffffffffffffffffffff168173ffffffffffffffffffffffffffffffffffffffff161415610a81576040517f08c379a0000000000000000000000000000000000000000000000000000000008152600401610a78906134bc565b60405180910390fd5b80915050919050565b60008073ffffffffffffffffffffffffffffffffffffffff168273ffffffffffffffffffffffffffffffffffffffff161415610afb576040517f08c379a0000000000000000000000000000000000000000000000000000000008152600401610af29061349c565b60405180910390fd5b600360008373ffffffffffffffffffffffffffffffffffffffff1673ffffffffffffffffffffffffffffffffffffffff168152602001908152602001600020549050919050565b60606000610b506006611e34565b67ffffffffffffffff811115610b8f577f4e487b7100000000000000000000000000000000000000000000000000000000600052604160045260246000fd5b604051908082528060200260200182016040528015610bc857816020015b610bb561246b565b815260200190600190039081610bad5790505b509050600080600190505b6001610bdf6006611e34565b610be991906136f5565b811015610d67576000610bfb826109d8565b905060006040518060a001604052808481526020018373ffffffffffffffffffffffffffffffffffffffff16815260200160086000868152602001908152602001600020548152602001600960008681526020019081526020016000208054610c6390613866565b80601f0160208091040260200160405190810160405280929190818152602001828054610c8f90613866565b8015610cdc5780601f10610cb157610100808354040283529160200191610cdc565b820191906000526020600020905b815481529060010190602001808311610cbf57829003601f168201915b50505050508152602001600a600086815260200190815260200160002054815250905080858581518110610d39577f4e487b7100000000000000000000000000000000000000000000000000000000600052603260045260246000fd5b60200260200101819052508380610d4f90613898565b94505050508080610d5f90613898565b915050610bd3565b50819250505090565b606060008211610db5576040517f08c379a0000000000000000000000000000000000000000000000000000000008152600401610dac9061359c565b60405180910390fd5b6000610dc16006611e34565b1415610e4957600067ffffffffffffffff811115610e08577f4e487b7100000000000000000000000000000000000000000000000000000000600052604160045260246000fd5b604051908082528060200260200182016040528015610e4157816020015b610e2e61246b565b815260200190600190039081610e265790505b509050611314565b6001610e556006611e34565b1415611033576000600167ffffffffffffffff811115610e9e577f4e487b7100000000000000000000000000000000000000000000000000000000600052604160045260246000fd5b604051908082528060200260200182016040528015610ed757816020015b610ec461246b565b815260200190600190039081610ebc5790505b5090506040518060a0016040528060018152602001610ef660016109d8565b73ffffffffffffffffffffffffffffffffffffffff168152602001600860006001815260200190815260200160002054815260200160096000600181526020019081526020016000208054610f4a90613866565b80601f0160208091040260200160405190810160405280929190818152602001828054610f7690613866565b8015610fc35780601f10610f9857610100808354040283529160200191610fc3565b820191906000526020600020905b815481529060010190602001808311610fa657829003601f168201915b50505050508152602001600a600060018152602001908152602001600020548152508160008151811061101f577f4e487b7100000000000000000000000000000000000000000000000000000000600052603260045260246000fd5b602002602001018190525080915050611314565b61103d6006611e34565b831061107e576040517f08c379a00000000000000000000000000000000000000000000000000000000081526004016110759061333c565b60405180910390fd5b60008261108b6006611e34565b116110b65760018461109d6006611e34565b6110a7919061377c565b6110b191906136f5565b6110fb565b82846110c291906136f5565b6110cc6006611e34565b10156110f8576001846110df6006611e34565b6110e9919061377c565b6110f391906136f5565b6110fa565b825b5b905060008167ffffffffffffffff81111561113f577f4e487b7100000000000000000000000000000000000000000000000000000000600052604160045260246000fd5b60405190808252806020026020018201604052801561117857816020015b61116561246b565b81526020019060019003908161115d5790505b5090506000808690505b868461118e91906136f5565b81101561130c5760006111a0826109d8565b905060006040518060a001604052808481526020018373ffffffffffffffffffffffffffffffffffffffff1681526020016008600086815260200190815260200160002054815260200160096000868152602001908152602001600020805461120890613866565b80601f016020809104026020016040519081016040528092919081815260200182805461123490613866565b80156112815780601f1061125657610100808354040283529160200191611281565b820191906000526020600020905b81548152906001019060200180831161126457829003601f168201915b50505050508152602001600a6000868152602001908152602001600020548152509050808585815181106112de577f4e487b7100000000000000000000000000000000000000000000000000000000600052603260045260246000fd5b602002602001018190525083806112f490613898565b9450505050808061130490613898565b915050611182565b508193505050505b92915050565b60606001805461132990613866565b80601f016020809104026020016040519081016040528092919081815260200182805461135590613866565b80156113a25780601f10611377576101008083540402835291602001916113a2565b820191906000526020600020905b81548152906001019060200180831161138557829003601f168201915b5050505050905090565b6113b4611a39565b73ffffffffffffffffffffffffffffffffffffffff168273ffffffffffffffffffffffffffffffffffffffff161415611422576040517f08c379a0000000000000000000000000000000000000000000000000000000008152600401611419906133fc565b60405180910390fd5b806005600061142f611a39565b73ffffffffffffffffffffffffffffffffffffffff1673ffffffffffffffffffffffffffffffffffffffff16815260200190815260200160002060008473ffffffffffffffffffffffffffffffffffffffff1673ffffffffffffffffffffffffffffffffffffffff16815260200190815260200160002060006101000a81548160ff0219169083151502179055508173ffffffffffffffffffffffffffffffffffffffff166114dc611a39565b73ffffffffffffffffffffffffffffffffffffffff167f17307eab39ab6107e8899845ad3d59bd9653f200f220920489ca2b5937696c318360405161152191906132ff565b60405180910390a35050565b600082611539816119cd565b611578576040517f08c379a000000000000000000000000000000000000000000000000000000000815260040161156f9061347c565b60405180910390fd5b6001831461158557600080fd5b6000600a60008681526020019081526020016000205411156115cd576001600a600086815260200190815260200160002060008282546115c5919061377c565b925050819055505b600191505092915050565b6115e96115e3611a39565b83611afa565b611628576040517f08c379a000000000000000000000000000000000000000000000000000000000815260040161161f9061357c565b60405180910390fd5b61163484848484611e42565b50505050565b600082611646816119cd565b611685576040517f08c379a000000000000000000000000000000000000000000000000000000000815260040161167c9061347c565b60405180910390fd5b6001831461169257600080fd5b6001600a600086815260200190815260200160002060008282546116b691906136f5565b92505081905550600191505092915050565b60606116d3826119cd565b611712576040517f08c379a00000000000000000000000000000000000000000000000000000000081526004016117099061353c565b60405180910390fd5b600061171c611e9e565b9050600081511161173c5760405180602001604052806000815250611767565b8061174684611eb5565b604051602001611757929190613252565b6040516020818303038152906040525b915050919050565b6000662386f26fc100003410156117bb576040517f08c379a00000000000000000000000000000000000000000000000000000000081526004016117b2906133bc565b60405180910390fd5b6117c56006612062565b60006117d16006611e34565b90506117dd8482612078565b6117e78184612246565b8091505092915050565b6000600560008473ffffffffffffffffffffffffffffffffffffffff1673ffffffffffffffffffffffffffffffffffffffff16815260200190815260200160002060008373ffffffffffffffffffffffffffffffffffffffff1673ffffffffffffffffffffffffffffffffffffffff16815260200190815260200160002060009054906101000a900460ff16905092915050565b8161188f816109d8565b73ffffffffffffffffffffffffffffffffffffffff163373ffffffffffffffffffffffffffffffffffffffff16146118fc576040517f08c379a00000000000000000000000000000000000000000000000000000000081526004016118f39061335c565b60405180910390fd5b82611906816119cd565b611945576040517f08c379a000000000000000000000000000000000000000000000000000000000815260040161193c9061347c565b60405180910390fd5b82600860008681526020019081526020016000208190555050505050565b60007f01ffc9a7000000000000000000000000000000000000000000000000000000007bffffffffffffffffffffffffffffffffffffffffffffffffffffffff1916827bffffffffffffffffffffffffffffffffffffffffffffffffffffffff1916149050919050565b60008073ffffffffffffffffffffffffffffffffffffffff166002600084815260200190815260200160002060009054906101000a900473ffffffffffffffffffffffffffffffffffffffff1673ffffffffffffffffffffffffffffffffffffffff1614159050919050565b600033905090565b816004600083815260200190815260200160002060006101000a81548173ffffffffffffffffffffffffffffffffffffffff021916908373ffffffffffffffffffffffffffffffffffffffff160217905550808273ffffffffffffffffffffffffffffffffffffffff16611ab4836109d8565b73ffffffffffffffffffffffffffffffffffffffff167f8c5be1e5ebec7d5bd14f71427d1e84f3dd0314c0f7b2291e5b200ac8c7c3b92560405160405180910390a45050565b6000611b05826119cd565b611b44576040517f08c379a0000000000000000000000000000000000000000000000000000000008152600401611b3b9061341c565b60405180910390fd5b6000611b4f836109d8565b90508073ffffffffffffffffffffffffffffffffffffffff168473ffffffffffffffffffffffffffffffffffffffff161480611bbe57508373ffffffffffffffffffffffffffffffffffffffff16611ba6846106af565b73ffffffffffffffffffffffffffffffffffffffff16145b80611bcf5750611bce81856117f1565b5b91505092915050565b8273ffffffffffffffffffffffffffffffffffffffff16611bf8826109d8565b73ffffffffffffffffffffffffffffffffffffffff1614611c4e576040517f08c379a0000000000000000000000000000000000000000000000000000000008152600401611c459061351c565b60405180910390fd5b600073ffffffffffffffffffffffffffffffffffffffff168273ffffffffffffffffffffffffffffffffffffffff161415611cbe576040517f08c379a0000000000000000000000000000000000000000000000000000000008152600401611cb5906133dc565b60405180910390fd5b611cc98383836122bc565b611cd4600082611a41565b6001600360008573ffffffffffffffffffffffffffffffffffffffff1673ffffffffffffffffffffffffffffffffffffffff1681526020019081526020016000206000828254611d24919061377c565b925050819055506001600360008473ffffffffffffffffffffffffffffffffffffffff1673ffffffffffffffffffffffffffffffffffffffff1681526020019081526020016000206000828254611d7b91906136f5565b92505081905550816002600083815260200190815260200160002060006101000a81548173ffffffffffffffffffffffffffffffffffffffff021916908373ffffffffffffffffffffffffffffffffffffffff160217905550808273ffffffffffffffffffffffffffffffffffffffff168473ffffffffffffffffffffffffffffffffffffffff167fddf252ad1be2c89b69c2b068fc378daa952ba7f163c4a11628f55a4df523b3ef60405160405180910390a4505050565b600081600001549050919050565b611e4d848484611bd8565b611e59848484846122c1565b611e98576040517f08c379a0000000000000000000000000000000000000000000000000000000008152600401611e8f9061337c565b60405180910390fd5b50505050565b606060405180602001604052806000815250905090565b60606000821415611efd576040518060400160405280600181526020017f3000000000000000000000000000000000000000000000000000000000000000815250905061205d565b600082905060005b60008214611f2f578080611f1890613898565b915050600a82611f28919061374b565b9150611f05565b60008167ffffffffffffffff811115611f71577f4e487b7100000000000000000000000000000000000000000000000000000000600052604160045260246000fd5b6040519080825280601f01601f191660200182016040528015611fa35781602001600182028036833780820191505090505b5090505b6000851461205657600182611fbc919061377c565b9150600a85611fcb91906138e1565b6030611fd791906136f5565b60f81b818381518110612013577f4e487b7100000000000000000000000000000000000000000000000000000000600052603260045260246000fd5b60200101907effffffffffffffffffffffffffffffffffffffffffffffffffffffffffffff1916908160001a905350600a8561204f919061374b565b9450611fa7565b8093505050505b919050565b6001816000016000828254019250508190555050565b600073ffffffffffffffffffffffffffffffffffffffff168273ffffffffffffffffffffffffffffffffffffffff1614156120e8576040517f08c379a00000000000000000000000000000000000000000000000000000000081526004016120df906134dc565b60405180910390fd5b6120f1816119cd565b15612131576040517f08c379a00000000000000000000000000000000000000000000000000000000081526004016121289061339c565b60405180910390fd5b61213d600083836122bc565b6001600360008473ffffffffffffffffffffffffffffffffffffffff1673ffffffffffffffffffffffffffffffffffffffff168152602001908152602001600020600082825461218d91906136f5565b92505081905550816002600083815260200190815260200160002060006101000a81548173ffffffffffffffffffffffffffffffffffffffff021916908373ffffffffffffffffffffffffffffffffffffffff160217905550808273ffffffffffffffffffffffffffffffffffffffff16600073ffffffffffffffffffffffffffffffffffffffff167fddf252ad1be2c89b69c2b068fc378daa952ba7f163c4a11628f55a4df523b3ef60405160405180910390a45050565b81612250816119cd565b61228f576040517f08c379a00000000000000000000000000000000000000000000000000000000081526004016122869061347c565b60405180910390fd5b816009600085815260200190815260200160002090805190602001906122b69291906124b0565b50505050565b505050565b60006122e28473ffffffffffffffffffffffffffffffffffffffff16612458565b1561244b578373ffffffffffffffffffffffffffffffffffffffff1663150b7a0261230b611a39565b8786866040518563ffffffff1660e01b815260040161232d9493929190613291565b602060405180830381600087803b15801561234757600080fd5b505af192505050801561237857506040513d601f19601f8201168201806040525081019061237591906128b0565b60015b6123fb573d80600081146123a8576040519150601f19603f3d011682016040523d82523d6000602084013e6123ad565b606091505b506000815114156123f3576040517f08c379a00000000000000000000000000000000000000000000000000000000081526004016123ea9061337c565b60405180910390fd5b805181602001fd5b63150b7a0260e01b7bffffffffffffffffffffffffffffffffffffffffffffffffffffffff1916817bffffffffffffffffffffffffffffffffffffffffffffffffffffffff191614915050612450565b600190505b949350505050565b600080823b905060008111915050919050565b6040518060a0016040528060008152602001600073ffffffffffffffffffffffffffffffffffffffff1681526020016000815260200160608152602001600081525090565b8280546124bc90613866565b90600052602060002090601f0160209004810192826124de5760008555612525565b82601f106124f757805160ff1916838001178555612525565b82800160010185558215612525579182015b82811115612524578251825591602001919060010190612509565b5b5090506125329190612536565b5090565b5b8082111561254f576000816000905550600101612537565b5090565b600061256661256184613608565b6135d7565b90508281526020810184848401111561257e57600080fd5b612589848285613824565b509392505050565b60006125a461259f84613638565b6135d7565b9050828152602081018484840111156125bc57600080fd5b6125c7848285613824565b509392505050565b6000813590506125de816139df565b92915050565b6000813590506125f3816139f6565b92915050565b60008135905061260881613a0d565b92915050565b60008151905061261d81613a0d565b92915050565b600082601f83011261263457600080fd5b8135612644848260208601612553565b91505092915050565b600082601f83011261265e57600080fd5b813561266e848260208601612591565b91505092915050565b60008135905061268681613a24565b92915050565b60006020828403121561269e57600080fd5b60006126ac848285016125cf565b91505092915050565b600080604083850312156126c857600080fd5b60006126d6858286016125cf565b92505060206126e7858286016125cf565b9150509250929050565b60008060006060848603121561270657600080fd5b6000612714868287016125cf565b9350506020612725868287016125cf565b925050604061273686828701612677565b9150509250925092565b6000806000806080858703121561275657600080fd5b6000612764878288016125cf565b9450506020612775878288016125cf565b935050604061278687828801612677565b925050606085013567ffffffffffffffff8111156127a357600080fd5b6127af87828801612623565b91505092959194509250565b600080604083850312156127ce57600080fd5b60006127dc858286016125cf565b92505060206127ed858286016125e4565b9150509250929050565b6000806040838503121561280a57600080fd5b6000612818858286016125cf565b925050602083013567ffffffffffffffff81111561283557600080fd5b6128418582860161264d565b9150509250929050565b6000806040838503121561285e57600080fd5b600061286c858286016125cf565b925050602061287d85828601612677565b9150509250929050565b60006020828403121561289957600080fd5b60006128a7848285016125f9565b91505092915050565b6000602082840312156128c257600080fd5b60006128d08482850161260e565b91505092915050565b6000602082840312156128eb57600080fd5b60006128f984828501612677565b91505092915050565b6000806040838503121561291557600080fd5b600061292385828601612677565b925050602061293485828601612677565b9150509250929050565b600061294a83836131be565b905092915050565b61295b816137b0565b82525050565b61296a816137b0565b82525050565b600061297b82613678565b61298581856136a6565b93508360208202850161299785613668565b8060005b858110156129d357848403895281516129b4858261293e565b94506129bf83613699565b925060208a0199505060018101905061299b565b50829750879550505050505092915050565b6129ee816137c2565b82525050565b60006129ff82613683565b612a0981856136b7565b9350612a19818560208601613833565b612a22816139ce565b840191505092915050565b6000612a388261368e565b612a4281856136c8565b9350612a52818560208601613833565b612a5b816139ce565b840191505092915050565b6000612a718261368e565b612a7b81856136d9565b9350612a8b818560208601613833565b612a94816139ce565b840191505092915050565b6000612aaa8261368e565b612ab481856136ea565b9350612ac4818560208601613833565b80840191505092915050565b6000612add600c836136d9565b91507f6f7574206f6620696e64657800000000000000000000000000000000000000006000830152602082019050919050565b6000612b1d6019836136d9565b91507f6f6e6c792063726561746f72206f662074686520746f6b656e000000000000006000830152602082019050919050565b6000612b5d6032836136d9565b91507f4552433732313a207472616e7366657220746f206e6f6e20455243373231526560008301527f63656976657220696d706c656d656e74657200000000000000000000000000006020830152604082019050919050565b6000612bc3601c836136d9565b91507f4552433732313a20746f6b656e20616c7265616479206d696e746564000000006000830152602082019050919050565b6000612c036015836136d9565b91507f4e65656420746f2073656e6420302e30312045544800000000000000000000006000830152602082019050919050565b6000612c436024836136d9565b91507f4552433732313a207472616e7366657220746f20746865207a65726f2061646460008301527f72657373000000000000000000000000000000000000000000000000000000006020830152604082019050919050565b6000612ca96019836136d9565b91507f4552433732313a20617070726f766520746f2063616c6c6572000000000000006000830152602082019050919050565b6000612ce9602c836136d9565b91507f4552433732313a206f70657261746f7220717565727920666f72206e6f6e657860008301527f697374656e7420746f6b656e00000000000000000000000000000000000000006020830152604082019050919050565b6000612d4f600c836136d9565b91507f6f6e6c792063726561746f7200000000000000000000000000000000000000006000830152602082019050919050565b6000612d8f6038836136d9565b91507f4552433732313a20617070726f76652063616c6c6572206973206e6f74206f7760008301527f6e6572206e6f7220617070726f76656420666f7220616c6c00000000000000006020830152604082019050919050565b6000612df5602d836136d9565b91507f4552433732314d657461646174613a207365742064617461206f66206e6f6e6560008301527f78697374656e7420746f6b656e000000000000000000000000000000000000006020830152604082019050919050565b6000612e5b602a836136d9565b91507f4552433732313a2062616c616e636520717565727920666f7220746865207a6560008301527f726f2061646472657373000000000000000000000000000000000000000000006020830152604082019050919050565b6000612ec16029836136d9565b91507f4552433732313a206f776e657220717565727920666f72206e6f6e657869737460008301527f656e7420746f6b656e00000000000000000000000000000000000000000000006020830152604082019050919050565b6000612f276020836136d9565b91507f4552433732313a206d696e7420746f20746865207a65726f20616464726573736000830152602082019050919050565b6000612f67602c836136d9565b91507f4552433732313a20617070726f76656420717565727920666f72206e6f6e657860008301527f697374656e7420746f6b656e00000000000000000000000000000000000000006020830152604082019050919050565b6000612fcd6029836136d9565b91507f4552433732313a207472616e73666572206f6620746f6b656e2074686174206960008301527f73206e6f74206f776e00000000000000000000000000000000000000000000006020830152604082019050919050565b6000613033602f836136d9565b91507f4552433732314d657461646174613a2055524920717565727920666f72206e6f60008301527f6e6578697374656e7420746f6b656e00000000000000000000000000000000006020830152604082019050919050565b60006130996021836136d9565b91507f4552433732313a20617070726f76616c20746f2063757272656e74206f776e6560008301527f72000000000000000000000000000000000000000000000000000000000000006020830152604082019050919050565b60006130ff6031836136d9565b91507f4552433732313a207472616e736665722063616c6c6572206973206e6f74206f60008301527f776e6572206e6f7220617070726f7665640000000000000000000000000000006020830152604082019050919050565b60006131656027836136d9565b91507f6e756d626572206f66206f7262732073686f756c64206265206772656174657260008301527f207468616e2030000000000000000000000000000000000000000000000000006020830152604082019050919050565b600060a0830160008301516131d66000860182613234565b5060208301516131e96020860182612952565b5060408301516131fc6040860182613234565b50606083015184820360608601526132148282612a2d565b91505060808301516132296080860182613234565b508091505092915050565b61323d8161381a565b82525050565b61324c8161381a565b82525050565b600061325e8285612a9f565b915061326a8284612a9f565b91508190509392505050565b600060208201905061328b6000830184612961565b92915050565b60006080820190506132a66000830187612961565b6132b36020830186612961565b6132c06040830185613243565b81810360608301526132d281846129f4565b905095945050505050565b600060208201905081810360008301526132f78184612970565b905092915050565b600060208201905061331460008301846129e5565b92915050565b600060208201905081810360008301526133348184612a66565b905092915050565b6000602082019050818103600083015261335581612ad0565b9050919050565b6000602082019050818103600083015261337581612b10565b9050919050565b6000602082019050818103600083015261339581612b50565b9050919050565b600060208201905081810360008301526133b581612bb6565b9050919050565b600060208201905081810360008301526133d581612bf6565b9050919050565b600060208201905081810360008301526133f581612c36565b9050919050565b6000602082019050818103600083015261341581612c9c565b9050919050565b6000602082019050818103600083015261343581612cdc565b9050919050565b6000602082019050818103600083015261345581612d42565b9050919050565b6000602082019050818103600083015261347581612d82565b9050919050565b6000602082019050818103600083015261349581612de8565b9050919050565b600060208201905081810360008301526134b581612e4e565b9050919050565b600060208201905081810360008301526134d581612eb4565b9050919050565b600060208201905081810360008301526134f581612f1a565b9050919050565b6000602082019050818103600083015261351581612f5a565b9050919050565b6000602082019050818103600083015261353581612fc0565b9050919050565b6000602082019050818103600083015261355581613026565b9050919050565b600060208201905081810360008301526135758161308c565b9050919050565b60006020820190508181036000830152613595816130f2565b9050919050565b600060208201905081810360008301526135b581613158565b9050919050565b60006020820190506135d16000830184613243565b92915050565b6000604051905081810181811067ffffffffffffffff821117156135fe576135fd61399f565b5b8060405250919050565b600067ffffffffffffffff8211156136235761362261399f565b5b601f19601f8301169050602081019050919050565b600067ffffffffffffffff8211156136535761365261399f565b5b601f19601f8301169050602081019050919050565b6000819050602082019050919050565b600081519050919050565b600081519050919050565b600081519050919050565b6000602082019050919050565b600082825260208201905092915050565b600082825260208201905092915050565b600082825260208201905092915050565b600082825260208201905092915050565b600081905092915050565b60006137008261381a565b915061370b8361381a565b9250827fffffffffffffffffffffffffffffffffffffffffffffffffffffffffffffffff038211156137405761373f613912565b5b828201905092915050565b60006137568261381a565b91506137618361381a565b92508261377157613770613941565b5b828204905092915050565b60006137878261381a565b91506137928361381a565b9250828210156137a5576137a4613912565b5b828203905092915050565b60006137bb826137fa565b9050919050565b60008115159050919050565b60007fffffffff0000000000000000000000000000000000000000000000000000000082169050919050565b600073ffffffffffffffffffffffffffffffffffffffff82169050919050565b6000819050919050565b82818337600083830152505050565b60005b83811015613851578082015181840152602081019050613836565b83811115613860576000848401525b50505050565b6000600282049050600182168061387e57607f821691505b6020821081141561389257613891613970565b5b50919050565b60006138a38261381a565b91507fffffffffffffffffffffffffffffffffffffffffffffffffffffffffffffffff8214156138d6576138d5613912565b5b600182019050919050565b60006138ec8261381a565b91506138f78361381a565b92508261390757613906613941565b5b828206905092915050565b7f4e487b7100000000000000000000000000000000000000000000000000000000600052601160045260246000fd5b7f4e487b7100000000000000000000000000000000000000000000000000000000600052601260045260246000fd5b7f4e487b7100000000000000000000000000000000000000000000000000000000600052602260045260246000fd5b7f4e487b7100000000000000000000000000000000000000000000000000000000600052604160045260246000fd5b6000601f19601f8301169050919050565b6139e8816137b0565b81146139f357600080fd5b50565b6139ff816137c2565b8114613a0a57600080fd5b50565b613a16816137ce565b8114613a2157600080fd5b50565b613a2d8161381a565b8114613a3857600080fd5b5056fea2646970667358221220eb76a4bcab7fe386a88e1a63bc9e6276996d8ced31f9f8d801fd54f09a58058f64736f6c63430008000033",
  "immutableReferences": {},
  "source": "// SPDX-License-Identifier: MIT\r\npragma solidity ^0.8.0;\r\n\r\nimport \"@openzeppelin/contracts/token/ERC721/ERC721.sol\";\r\nimport \"@openzeppelin/contracts/utils/Counters.sol\";\r\n\r\ncontract Orbs is ERC721{\r\n    using Counters for Counters.Counter;\r\n    Counters.Counter private _tokenIds;\r\n\r\n    address payable orbsGod;\r\n\r\n\r\n    mapping (uint256 => uint256) private _tokenPrices;\r\n    mapping (uint256 => string) private _tokenDnas;\r\n    mapping (uint256 => uint256) private _tokenLikes;\r\n\r\n    struct OrbProps {\r\n        uint256 id;\r\n        address owner;\r\n        uint256 price;\r\n        string dna;\r\n        uint likes;\r\n    }\r\n\r\n    constructor() ERC721(\"Orbs\", \"ORBS\") {\r\n        orbsGod = payable(msg.sender);\r\n    }\r\n    \r\n    //EX TKID = 6, NO = 5, CURRENT = 7\r\n    function getNthsOrbs(uint _token_id,uint _number_of_orbs) public view returns(OrbProps[] memory ){\r\n        require(_number_of_orbs > 0,'number of orbs should be greater than 0');\r\n\r\n        //particular case 0 elements\r\n        if(_tokenIds.current()==0)\r\n        return new OrbProps[](0);\r\n\r\n        //particular case 1 element\r\n        if(_tokenIds.current()==1){\r\n         OrbProps[] memory token = new OrbProps[](1);\r\n         token[0] = OrbProps(1,ownerOf(1), _tokenPrices[1], _tokenDnas[1],_tokenLikes[1]);\r\n         return token;\r\n        }        \r\n\r\n        //more than 1 element\r\n        require(_token_id < _tokenIds.current(),'out of index');\r\n\r\n        //6,5\r\n        uint totalOrbs =    (_tokenIds.current() > _number_of_orbs) \r\n                            ? (_tokenIds.current() >= _token_id+_number_of_orbs) \r\n                                ? _number_of_orbs \r\n                                : _tokenIds.current() - _token_id + 1\r\n                            : _tokenIds.current() - _token_id + 1;\r\n\r\n\r\n        OrbProps[] memory tokens = new OrbProps[](totalOrbs);\r\n        uint256 counter = 0;\r\n\r\n\r\n        for(uint i = _token_id; i < totalOrbs+_token_id; i++) {\r\n                address owner = ownerOf(i);\r\n                OrbProps memory token = OrbProps(i,owner, _tokenPrices[i], _tokenDnas[i],_tokenLikes[i]);\r\n                tokens[counter] = token;\r\n                counter++;\r\n        }\r\n\r\n        return tokens;\r\n    }\r\n\r\n    function getNumberOfOrbs() public view returns(uint){\r\n        return _tokenIds.current();\r\n    }\r\n\r\n    function getAllOrbs () public view returns(OrbProps[] memory ) {\r\n        OrbProps[] memory tokens = new OrbProps[](_tokenIds.current());\r\n        uint256 counter = 0;\r\n\r\n        for(uint i = 1; i < _tokenIds.current() + 1; i++) {\r\n                address owner = ownerOf(i);\r\n                OrbProps memory token = OrbProps(i,owner, _tokenPrices[i], _tokenDnas[i],_tokenLikes[i]);\r\n                tokens[counter] = token;\r\n                counter++;\r\n        }\r\n\r\n        return tokens;\r\n    }\r\n\r\n    function setTokenPrice(uint256 tokenId, uint256 _price) public onlyOwnerOfToken(tokenId) tokenExist(tokenId){\r\n        _tokenPrices[tokenId] = _price;\r\n    }\r\n\r\n    function setTokenDna(uint256 tokenId,string memory _dna) internal tokenExist(tokenId){\r\n        _tokenDnas[tokenId] = _dna;\r\n    }\r\n    \r\n    function setLikeToken(uint256 tokenId,uint _like) external tokenExist(tokenId) returns(bool) {\r\n        require(_like == 1);\r\n        _tokenLikes[tokenId]+=1;\r\n        return true;\r\n    }\r\n\r\n    function setUnLikeToken(uint256 tokenId,uint _like) external tokenExist(tokenId) returns(bool) {\r\n        require(_like == 1);\r\n        \r\n        if(_tokenLikes[tokenId] > 0)\r\n        _tokenLikes[tokenId]-=1;\r\n\r\n        return true;\r\n    }\r\n\r\n    // 0 -> ['tone','note','time','hashmark'] ...\r\n    function mintCollectable(address _owner, string memory _dna)\r\n        public payable\r\n        returns (uint256)\r\n    {\r\n        require(msg.value >= 0.01 ether, 'Need to send 0.01 ETH');\r\n        _tokenIds.increment();\r\n        uint256 newItemId = _tokenIds.current();\r\n        _mint(_owner, newItemId);\r\n        setTokenDna(newItemId, _dna);\r\n        return newItemId;\r\n    }\r\n\r\n    receive() external payable {}\r\n\r\n\r\n    function transferBalanceToOwner() payable external onlyCreator{\r\n        orbsGod.transfer(address(this).balance);\r\n    }\r\n\r\n    modifier onlyOwnerOfToken(uint256 tokenId){\r\n        require(msg.sender == ownerOf(tokenId), 'only creator of the token');\r\n        _;\r\n    }\r\n\r\n    modifier onlyCreator{\r\n        require(msg.sender == orbsGod, 'only creator');\r\n        _;\r\n    }\r\n\r\n    modifier tokenExist(uint _token_id){\r\n        require(_exists(_token_id), \"ERC721Metadata: set data of nonexistent token\");\r\n        _;\r\n    }\r\n\r\n\r\n}",
  "sourcePath": "C:/Users/Usuario/Desktop/ORBS_PROJECT/OrbsContract/contracts/Orbs.sol",
  "compiler": {
    "name": "solc",
    "version": "0.8.0+commit.c7dfd78e.Emscripten.clang"
  },
  "schemaVersion": "3.4.1",
  "updatedAt": "2021-07-28T22:46:49.584Z",
  "networkType": "ethereum",
  "devdoc": {
    "kind": "dev",
    "methods": {
      "approve(address,uint256)": {
        "details": "See {IERC721-approve}."
      },
      "balanceOf(address)": {
        "details": "See {IERC721-balanceOf}."
      },
      "getApproved(uint256)": {
        "details": "See {IERC721-getApproved}."
      },
      "isApprovedForAll(address,address)": {
        "details": "See {IERC721-isApprovedForAll}."
      },
      "name()": {
        "details": "See {IERC721Metadata-name}."
      },
      "ownerOf(uint256)": {
        "details": "See {IERC721-ownerOf}."
      },
      "safeTransferFrom(address,address,uint256)": {
        "details": "See {IERC721-safeTransferFrom}."
      },
      "safeTransferFrom(address,address,uint256,bytes)": {
        "details": "See {IERC721-safeTransferFrom}."
      },
      "setApprovalForAll(address,bool)": {
        "details": "See {IERC721-setApprovalForAll}."
      },
      "supportsInterface(bytes4)": {
        "details": "See {IERC165-supportsInterface}."
      },
      "symbol()": {
        "details": "See {IERC721Metadata-symbol}."
      },
      "tokenURI(uint256)": {
        "details": "See {IERC721Metadata-tokenURI}."
      },
      "transferFrom(address,address,uint256)": {
        "details": "See {IERC721-transferFrom}."
      }
    },
    "version": 1
  },
  "userdoc": {
    "kind": "user",
    "methods": {},
    "version": 1
  }
}