{
  "contractName": "Orbs",
  "abi": [
    {
      "inputs": [],
      "stateMutability": "nonpayable",
      "type": "constructor"
    },
    {
      "anonymous": false,
      "inputs": [
        {
          "indexed": true,
          "internalType": "address",
          "name": "owner",
          "type": "address"
        },
        {
          "indexed": true,
          "internalType": "address",
          "name": "approved",
          "type": "address"
        },
        {
          "indexed": true,
          "internalType": "uint256",
          "name": "tokenId",
          "type": "uint256"
        }
      ],
      "name": "Approval",
      "type": "event"
    },
    {
      "anonymous": false,
      "inputs": [
        {
          "indexed": true,
          "internalType": "address",
          "name": "owner",
          "type": "address"
        },
        {
          "indexed": true,
          "internalType": "address",
          "name": "operator",
          "type": "address"
        },
        {
          "indexed": false,
          "internalType": "bool",
          "name": "approved",
          "type": "bool"
        }
      ],
      "name": "ApprovalForAll",
      "type": "event"
    },
    {
      "anonymous": false,
      "inputs": [
        {
          "indexed": true,
          "internalType": "address",
          "name": "from",
          "type": "address"
        },
        {
          "indexed": true,
          "internalType": "address",
          "name": "to",
          "type": "address"
        },
        {
          "indexed": true,
          "internalType": "uint256",
          "name": "tokenId",
          "type": "uint256"
        }
      ],
      "name": "Transfer",
      "type": "event"
    },
    {
      "inputs": [
        {
          "internalType": "address",
          "name": "to",
          "type": "address"
        },
        {
          "internalType": "uint256",
          "name": "tokenId",
          "type": "uint256"
        }
      ],
      "name": "approve",
      "outputs": [],
      "stateMutability": "nonpayable",
      "type": "function"
    },
    {
      "inputs": [
        {
          "internalType": "address",
          "name": "owner",
          "type": "address"
        }
      ],
      "name": "balanceOf",
      "outputs": [
        {
          "internalType": "uint256",
          "name": "",
          "type": "uint256"
        }
      ],
      "stateMutability": "view",
      "type": "function",
      "constant": true
    },
    {
      "inputs": [
        {
          "internalType": "uint256",
          "name": "tokenId",
          "type": "uint256"
        }
      ],
      "name": "getApproved",
      "outputs": [
        {
          "internalType": "address",
          "name": "",
          "type": "address"
        }
      ],
      "stateMutability": "view",
      "type": "function",
      "constant": true
    },
    {
      "inputs": [
        {
          "internalType": "address",
          "name": "owner",
          "type": "address"
        },
        {
          "internalType": "address",
          "name": "operator",
          "type": "address"
        }
      ],
      "name": "isApprovedForAll",
      "outputs": [
        {
          "internalType": "bool",
          "name": "",
          "type": "bool"
        }
      ],
      "stateMutability": "view",
      "type": "function",
      "constant": true
    },
    {
      "inputs": [],
      "name": "name",
      "outputs": [
        {
          "internalType": "string",
          "name": "",
          "type": "string"
        }
      ],
      "stateMutability": "view",
      "type": "function",
      "constant": true
    },
    {
      "inputs": [
        {
          "internalType": "uint256",
          "name": "tokenId",
          "type": "uint256"
        }
      ],
      "name": "ownerOf",
      "outputs": [
        {
          "internalType": "address",
          "name": "",
          "type": "address"
        }
      ],
      "stateMutability": "view",
      "type": "function",
      "constant": true
    },
    {
      "inputs": [
        {
          "internalType": "address",
          "name": "from",
          "type": "address"
        },
        {
          "internalType": "address",
          "name": "to",
          "type": "address"
        },
        {
          "internalType": "uint256",
          "name": "tokenId",
          "type": "uint256"
        }
      ],
      "name": "safeTransferFrom",
      "outputs": [],
      "stateMutability": "nonpayable",
      "type": "function"
    },
    {
      "inputs": [
        {
          "internalType": "address",
          "name": "from",
          "type": "address"
        },
        {
          "internalType": "address",
          "name": "to",
          "type": "address"
        },
        {
          "internalType": "uint256",
          "name": "tokenId",
          "type": "uint256"
        },
        {
          "internalType": "bytes",
          "name": "_data",
          "type": "bytes"
        }
      ],
      "name": "safeTransferFrom",
      "outputs": [],
      "stateMutability": "nonpayable",
      "type": "function"
    },
    {
      "inputs": [
        {
          "internalType": "address",
          "name": "operator",
          "type": "address"
        },
        {
          "internalType": "bool",
          "name": "approved",
          "type": "bool"
        }
      ],
      "name": "setApprovalForAll",
      "outputs": [],
      "stateMutability": "nonpayable",
      "type": "function"
    },
    {
      "inputs": [
        {
          "internalType": "bytes4",
          "name": "interfaceId",
          "type": "bytes4"
        }
      ],
      "name": "supportsInterface",
      "outputs": [
        {
          "internalType": "bool",
          "name": "",
          "type": "bool"
        }
      ],
      "stateMutability": "view",
      "type": "function",
      "constant": true
    },
    {
      "inputs": [],
      "name": "symbol",
      "outputs": [
        {
          "internalType": "string",
          "name": "",
          "type": "string"
        }
      ],
      "stateMutability": "view",
      "type": "function",
      "constant": true
    },
    {
      "inputs": [
        {
          "internalType": "uint256",
          "name": "tokenId",
          "type": "uint256"
        }
      ],
      "name": "tokenURI",
      "outputs": [
        {
          "internalType": "string",
          "name": "",
          "type": "string"
        }
      ],
      "stateMutability": "view",
      "type": "function",
      "constant": true
    },
    {
      "inputs": [
        {
          "internalType": "address",
          "name": "from",
          "type": "address"
        },
        {
          "internalType": "address",
          "name": "to",
          "type": "address"
        },
        {
          "internalType": "uint256",
          "name": "tokenId",
          "type": "uint256"
        }
      ],
      "name": "transferFrom",
      "outputs": [],
      "stateMutability": "nonpayable",
      "type": "function"
    },
    {
      "inputs": [],
      "name": "getAllOrbs",
      "outputs": [
        {
          "components": [
            {
              "internalType": "uint256",
              "name": "id",
              "type": "uint256"
            },
            {
              "internalType": "uint256",
              "name": "price",
              "type": "uint256"
            },
            {
              "internalType": "string",
              "name": "uri",
              "type": "string"
            }
          ],
          "internalType": "struct Orbs.OrbProps[]",
          "name": "",
          "type": "tuple[]"
        }
      ],
      "stateMutability": "view",
      "type": "function",
      "constant": true
    },
    {
      "inputs": [
        {
          "internalType": "address",
          "name": "_owner",
          "type": "address"
        },
        {
          "internalType": "string",
          "name": "_tokenURI",
          "type": "string"
        }
      ],
      "name": "mintCollectable",
      "outputs": [
        {
          "internalType": "uint256",
          "name": "",
          "type": "uint256"
        }
      ],
      "stateMutability": "nonpayable",
      "type": "function"
    }
  ],
  "bytecode": "0x60806040523480156200001157600080fd5b506040518060400160405280600481526020017f4f726273000000000000000000000000000000000000000000000000000000008152506040518060400160405280600481526020017f4f52425300000000000000000000000000000000000000000000000000000000815250816000908051906020019062000096929190620000b8565b508060019080519060200190620000af929190620000b8565b505050620001cd565b828054620000c69062000168565b90600052602060002090601f016020900481019282620000ea576000855562000136565b82601f106200010557805160ff191683800117855562000136565b8280016001018555821562000136579182015b828111156200013557825182559160200191906001019062000118565b5b50905062000145919062000149565b5090565b5b80821115620001645760008160009055506001016200014a565b5090565b600060028204905060018216806200018157607f821691505b602082108114156200019857620001976200019e565b5b50919050565b7f4e487b7100000000000000000000000000000000000000000000000000000000600052602260045260246000fd5b612dda80620001dd6000396000f3fe608060405234801561001057600080fd5b50600436106100f55760003560e01c806370a0823111610097578063b88d4fde11610066578063b88d4fde14610284578063c87b56dd146102a0578063e4fd1538146102d0578063e985e9c514610300576100f5565b806370a08231146101fc578063728b6fc71461022c57806395d89b411461024a578063a22cb46514610268576100f5565b8063095ea7b3116100d3578063095ea7b31461017857806323b872dd1461019457806342842e0e146101b05780636352211e146101cc576100f5565b806301ffc9a7146100fa57806306fdde031461012a578063081812fc14610148575b600080fd5b610114600480360381019061010f9190611de1565b610330565b60405161012191906126e8565b60405180910390f35b610132610412565b60405161013f9190612703565b60405180910390f35b610162600480360381019061015d9190611e33565b6104a4565b60405161016f919061265f565b60405180910390f35b610192600480360381019061018d9190611da5565b610529565b005b6101ae60048036038101906101a99190611c4b565b610641565b005b6101ca60048036038101906101c59190611c4b565b6106a1565b005b6101e660048036038101906101e19190611e33565b6106c1565b6040516101f3919061265f565b60405180910390f35b61021660048036038101906102119190611be6565b610773565b6040516102239190612925565b60405180910390f35b61023461082b565b60405161024191906126c6565b60405180910390f35b610252610983565b60405161025f9190612703565b60405180910390f35b610282600480360381019061027d9190611d15565b610a15565b005b61029e60048036038101906102999190611c9a565b610b96565b005b6102ba60048036038101906102b59190611e33565b610bf8565b6040516102c79190612703565b60405180910390f35b6102ea60048036038101906102e59190611d51565b610d4a565b6040516102f79190612925565b60405180910390f35b61031a60048036038101906103159190611c0f565b610d82565b60405161032791906126e8565b60405180910390f35b60007f80ac58cd000000000000000000000000000000000000000000000000000000007bffffffffffffffffffffffffffffffffffffffffffffffffffffffff1916827bffffffffffffffffffffffffffffffffffffffffffffffffffffffff191614806103fb57507f5b5e139f000000000000000000000000000000000000000000000000000000007bffffffffffffffffffffffffffffffffffffffffffffffffffffffff1916827bffffffffffffffffffffffffffffffffffffffffffffffffffffffff1916145b8061040b575061040a82610e16565b5b9050919050565b60606000805461042190612bcf565b80601f016020809104026020016040519081016040528092919081815260200182805461044d90612bcf565b801561049a5780601f1061046f5761010080835404028352916020019161049a565b820191906000526020600020905b81548152906001019060200180831161047d57829003601f168201915b5050505050905090565b60006104af82610e80565b6104ee576040517f08c379a00000000000000000000000000000000000000000000000000000000081526004016104e590612885565b60405180910390fd5b6004600083815260200190815260200160002060009054906101000a900473ffffffffffffffffffffffffffffffffffffffff169050919050565b6000610534826106c1565b90508073ffffffffffffffffffffffffffffffffffffffff168373ffffffffffffffffffffffffffffffffffffffff1614156105a5576040517f08c379a000000000000000000000000000000000000000000000000000000000815260040161059c906128e5565b60405180910390fd5b8073ffffffffffffffffffffffffffffffffffffffff166105c4610eec565b73ffffffffffffffffffffffffffffffffffffffff1614806105f357506105f2816105ed610eec565b610d82565b5b610632576040517f08c379a0000000000000000000000000000000000000000000000000000000008152600401610629906127c5565b60405180910390fd5b61063c8383610ef4565b505050565b61065261064c610eec565b82610fad565b610691576040517f08c379a000000000000000000000000000000000000000000000000000000000815260040161068890612905565b60405180910390fd5b61069c83838361108b565b505050565b6106bc83838360405180602001604052806000815250610b96565b505050565b6000806002600084815260200190815260200160002060009054906101000a900473ffffffffffffffffffffffffffffffffffffffff169050600073ffffffffffffffffffffffffffffffffffffffff168173ffffffffffffffffffffffffffffffffffffffff16141561076a576040517f08c379a000000000000000000000000000000000000000000000000000000000815260040161076190612805565b60405180910390fd5b80915050919050565b60008073ffffffffffffffffffffffffffffffffffffffff168273ffffffffffffffffffffffffffffffffffffffff1614156107e4576040517f08c379a00000000000000000000000000000000000000000000000000000000081526004016107db906127e5565b60405180910390fd5b600360008373ffffffffffffffffffffffffffffffffffffffff1673ffffffffffffffffffffffffffffffffffffffff168152602001908152602001600020549050919050565b6060600061083960076112e7565b67ffffffffffffffff811115610878577f4e487b7100000000000000000000000000000000000000000000000000000000600052604160045260246000fd5b6040519080825280602002602001820160405280156108b157816020015b61089e6119e9565b8152602001906001900390816108965790505b509050600080600190505b60016108c860076112e7565b6108d29190612a5e565b81101561097a57600060405180606001604052808381526020016008600085815260200190815260200160002054815260200161090e84610bf8565b81525090508084848151811061094d577f4e487b7100000000000000000000000000000000000000000000000000000000600052603260045260246000fd5b6020026020010181905250828061096390612c01565b93505050808061097290612c01565b9150506108bc565b50819250505090565b60606001805461099290612bcf565b80601f01602080910402602001604051908101604052809291908181526020018280546109be90612bcf565b8015610a0b5780601f106109e057610100808354040283529160200191610a0b565b820191906000526020600020905b8154815290600101906020018083116109ee57829003601f168201915b5050505050905090565b610a1d610eec565b73ffffffffffffffffffffffffffffffffffffffff168273ffffffffffffffffffffffffffffffffffffffff161415610a8b576040517f08c379a0000000000000000000000000000000000000000000000000000000008152600401610a8290612785565b60405180910390fd5b8060056000610a98610eec565b73ffffffffffffffffffffffffffffffffffffffff1673ffffffffffffffffffffffffffffffffffffffff16815260200190815260200160002060008473ffffffffffffffffffffffffffffffffffffffff1673ffffffffffffffffffffffffffffffffffffffff16815260200190815260200160002060006101000a81548160ff0219169083151502179055508173ffffffffffffffffffffffffffffffffffffffff16610b45610eec565b73ffffffffffffffffffffffffffffffffffffffff167f17307eab39ab6107e8899845ad3d59bd9653f200f220920489ca2b5937696c3183604051610b8a91906126e8565b60405180910390a35050565b610ba7610ba1610eec565b83610fad565b610be6576040517f08c379a0000000000000000000000000000000000000000000000000000000008152600401610bdd90612905565b60405180910390fd5b610bf2848484846112f5565b50505050565b6060610c0382610e80565b610c42576040517f08c379a0000000000000000000000000000000000000000000000000000000008152600401610c3990612865565b60405180910390fd5b6000600660008481526020019081526020016000208054610c6290612bcf565b80601f0160208091040260200160405190810160405280929190818152602001828054610c8e90612bcf565b8015610cdb5780601f10610cb057610100808354040283529160200191610cdb565b820191906000526020600020905b815481529060010190602001808311610cbe57829003601f168201915b505050505090506000610cec611351565b9050600081511415610d02578192505050610d45565b600082511115610d37578082604051602001610d1f92919061263b565b60405160208183030381529060405292505050610d45565b610d408461138e565b925050505b919050565b6000610d566007611435565b6000610d6260076112e7565b9050610d6e848261144b565b610d788184611619565b8091505092915050565b6000600560008473ffffffffffffffffffffffffffffffffffffffff1673ffffffffffffffffffffffffffffffffffffffff16815260200190815260200160002060008373ffffffffffffffffffffffffffffffffffffffff1673ffffffffffffffffffffffffffffffffffffffff16815260200190815260200160002060009054906101000a900460ff16905092915050565b60007f01ffc9a7000000000000000000000000000000000000000000000000000000007bffffffffffffffffffffffffffffffffffffffffffffffffffffffff1916827bffffffffffffffffffffffffffffffffffffffffffffffffffffffff1916149050919050565b60008073ffffffffffffffffffffffffffffffffffffffff166002600084815260200190815260200160002060009054906101000a900473ffffffffffffffffffffffffffffffffffffffff1673ffffffffffffffffffffffffffffffffffffffff1614159050919050565b600033905090565b816004600083815260200190815260200160002060006101000a81548173ffffffffffffffffffffffffffffffffffffffff021916908373ffffffffffffffffffffffffffffffffffffffff160217905550808273ffffffffffffffffffffffffffffffffffffffff16610f67836106c1565b73ffffffffffffffffffffffffffffffffffffffff167f8c5be1e5ebec7d5bd14f71427d1e84f3dd0314c0f7b2291e5b200ac8c7c3b92560405160405180910390a45050565b6000610fb882610e80565b610ff7576040517f08c379a0000000000000000000000000000000000000000000000000000000008152600401610fee906127a5565b60405180910390fd5b6000611002836106c1565b90508073ffffffffffffffffffffffffffffffffffffffff168473ffffffffffffffffffffffffffffffffffffffff16148061107157508373ffffffffffffffffffffffffffffffffffffffff16611059846104a4565b73ffffffffffffffffffffffffffffffffffffffff16145b8061108257506110818185610d82565b5b91505092915050565b8273ffffffffffffffffffffffffffffffffffffffff166110ab826106c1565b73ffffffffffffffffffffffffffffffffffffffff1614611101576040517f08c379a00000000000000000000000000000000000000000000000000000000081526004016110f8906128a5565b60405180910390fd5b600073ffffffffffffffffffffffffffffffffffffffff168273ffffffffffffffffffffffffffffffffffffffff161415611171576040517f08c379a000000000000000000000000000000000000000000000000000000000815260040161116890612765565b60405180910390fd5b61117c83838361168d565b611187600082610ef4565b6001600360008573ffffffffffffffffffffffffffffffffffffffff1673ffffffffffffffffffffffffffffffffffffffff16815260200190815260200160002060008282546111d79190612ae5565b925050819055506001600360008473ffffffffffffffffffffffffffffffffffffffff1673ffffffffffffffffffffffffffffffffffffffff168152602001908152602001600020600082825461122e9190612a5e565b92505081905550816002600083815260200190815260200160002060006101000a81548173ffffffffffffffffffffffffffffffffffffffff021916908373ffffffffffffffffffffffffffffffffffffffff160217905550808273ffffffffffffffffffffffffffffffffffffffff168473ffffffffffffffffffffffffffffffffffffffff167fddf252ad1be2c89b69c2b068fc378daa952ba7f163c4a11628f55a4df523b3ef60405160405180910390a4505050565b600081600001549050919050565b61130084848461108b565b61130c84848484611692565b61134b576040517f08c379a000000000000000000000000000000000000000000000000000000000815260040161134290612725565b60405180910390fd5b50505050565b60606040518060400160405280601c81526020017f68747470733a2f2f697066732e696e667572612e696f2f697066732f00000000815250905090565b606061139982610e80565b6113d8576040517f08c379a00000000000000000000000000000000000000000000000000000000081526004016113cf906128c5565b60405180910390fd5b60006113e2611351565b90506000815111611402576040518060200160405280600081525061142d565b8061140c84611829565b60405160200161141d92919061263b565b6040516020818303038152906040525b915050919050565b6001816000016000828254019250508190555050565b600073ffffffffffffffffffffffffffffffffffffffff168273ffffffffffffffffffffffffffffffffffffffff1614156114bb576040517f08c379a00000000000000000000000000000000000000000000000000000000081526004016114b290612845565b60405180910390fd5b6114c481610e80565b15611504576040517f08c379a00000000000000000000000000000000000000000000000000000000081526004016114fb90612745565b60405180910390fd5b6115106000838361168d565b6001600360008473ffffffffffffffffffffffffffffffffffffffff1673ffffffffffffffffffffffffffffffffffffffff16815260200190815260200160002060008282546115609190612a5e565b92505081905550816002600083815260200190815260200160002060006101000a81548173ffffffffffffffffffffffffffffffffffffffff021916908373ffffffffffffffffffffffffffffffffffffffff160217905550808273ffffffffffffffffffffffffffffffffffffffff16600073ffffffffffffffffffffffffffffffffffffffff167fddf252ad1be2c89b69c2b068fc378daa952ba7f163c4a11628f55a4df523b3ef60405160405180910390a45050565b61162282610e80565b611661576040517f08c379a000000000000000000000000000000000000000000000000000000000815260040161165890612825565b60405180910390fd5b80600660008481526020019081526020016000209080519060200190611688929190611a0a565b505050565b505050565b60006116b38473ffffffffffffffffffffffffffffffffffffffff166119d6565b1561181c578373ffffffffffffffffffffffffffffffffffffffff1663150b7a026116dc610eec565b8786866040518563ffffffff1660e01b81526004016116fe949392919061267a565b602060405180830381600087803b15801561171857600080fd5b505af192505050801561174957506040513d601f19601f820116820180604052508101906117469190611e0a565b60015b6117cc573d8060008114611779576040519150601f19603f3d011682016040523d82523d6000602084013e61177e565b606091505b506000815114156117c4576040517f08c379a00000000000000000000000000000000000000000000000000000000081526004016117bb90612725565b60405180910390fd5b805181602001fd5b63150b7a0260e01b7bffffffffffffffffffffffffffffffffffffffffffffffffffffffff1916817bffffffffffffffffffffffffffffffffffffffffffffffffffffffff191614915050611821565b600190505b949350505050565b60606000821415611871576040518060400160405280600181526020017f300000000000000000000000000000000000000000000000000000000000000081525090506119d1565b600082905060005b600082146118a357808061188c90612c01565b915050600a8261189c9190612ab4565b9150611879565b60008167ffffffffffffffff8111156118e5577f4e487b7100000000000000000000000000000000000000000000000000000000600052604160045260246000fd5b6040519080825280601f01601f1916602001820160405280156119175781602001600182028036833780820191505090505b5090505b600085146119ca576001826119309190612ae5565b9150600a8561193f9190612c4a565b603061194b9190612a5e565b60f81b818381518110611987577f4e487b7100000000000000000000000000000000000000000000000000000000600052603260045260246000fd5b60200101907effffffffffffffffffffffffffffffffffffffffffffffffffffffffffffff1916908160001a905350600a856119c39190612ab4565b945061191b565b8093505050505b919050565b600080823b905060008111915050919050565b60405180606001604052806000815260200160008152602001606081525090565b828054611a1690612bcf565b90600052602060002090601f016020900481019282611a385760008555611a7f565b82601f10611a5157805160ff1916838001178555611a7f565b82800160010185558215611a7f579182015b82811115611a7e578251825591602001919060010190611a63565b5b509050611a8c9190611a90565b5090565b5b80821115611aa9576000816000905550600101611a91565b5090565b6000611ac0611abb84612971565b612940565b905082815260208101848484011115611ad857600080fd5b611ae3848285612b8d565b509392505050565b6000611afe611af9846129a1565b612940565b905082815260208101848484011115611b1657600080fd5b611b21848285612b8d565b509392505050565b600081359050611b3881612d48565b92915050565b600081359050611b4d81612d5f565b92915050565b600081359050611b6281612d76565b92915050565b600081519050611b7781612d76565b92915050565b600082601f830112611b8e57600080fd5b8135611b9e848260208601611aad565b91505092915050565b600082601f830112611bb857600080fd5b8135611bc8848260208601611aeb565b91505092915050565b600081359050611be081612d8d565b92915050565b600060208284031215611bf857600080fd5b6000611c0684828501611b29565b91505092915050565b60008060408385031215611c2257600080fd5b6000611c3085828601611b29565b9250506020611c4185828601611b29565b9150509250929050565b600080600060608486031215611c6057600080fd5b6000611c6e86828701611b29565b9350506020611c7f86828701611b29565b9250506040611c9086828701611bd1565b9150509250925092565b60008060008060808587031215611cb057600080fd5b6000611cbe87828801611b29565b9450506020611ccf87828801611b29565b9350506040611ce087828801611bd1565b925050606085013567ffffffffffffffff811115611cfd57600080fd5b611d0987828801611b7d565b91505092959194509250565b60008060408385031215611d2857600080fd5b6000611d3685828601611b29565b9250506020611d4785828601611b3e565b9150509250929050565b60008060408385031215611d6457600080fd5b6000611d7285828601611b29565b925050602083013567ffffffffffffffff811115611d8f57600080fd5b611d9b85828601611ba7565b9150509250929050565b60008060408385031215611db857600080fd5b6000611dc685828601611b29565b9250506020611dd785828601611bd1565b9150509250929050565b600060208284031215611df357600080fd5b6000611e0184828501611b53565b91505092915050565b600060208284031215611e1c57600080fd5b6000611e2a84828501611b68565b91505092915050565b600060208284031215611e4557600080fd5b6000611e5384828501611bd1565b91505092915050565b6000611e6883836125cd565b905092915050565b611e7981612b19565b82525050565b6000611e8a826129e1565b611e948185612a0f565b935083602082028501611ea6856129d1565b8060005b85811015611ee25784840389528151611ec38582611e5c565b9450611ece83612a02565b925060208a01995050600181019050611eaa565b50829750879550505050505092915050565b611efd81612b2b565b82525050565b6000611f0e826129ec565b611f188185612a20565b9350611f28818560208601612b9c565b611f3181612d37565b840191505092915050565b6000611f47826129f7565b611f518185612a31565b9350611f61818560208601612b9c565b611f6a81612d37565b840191505092915050565b6000611f80826129f7565b611f8a8185612a42565b9350611f9a818560208601612b9c565b611fa381612d37565b840191505092915050565b6000611fb9826129f7565b611fc38185612a53565b9350611fd3818560208601612b9c565b80840191505092915050565b6000611fec603283612a42565b91507f4552433732313a207472616e7366657220746f206e6f6e20455243373231526560008301527f63656976657220696d706c656d656e74657200000000000000000000000000006020830152604082019050919050565b6000612052601c83612a42565b91507f4552433732313a20746f6b656e20616c7265616479206d696e746564000000006000830152602082019050919050565b6000612092602483612a42565b91507f4552433732313a207472616e7366657220746f20746865207a65726f2061646460008301527f72657373000000000000000000000000000000000000000000000000000000006020830152604082019050919050565b60006120f8601983612a42565b91507f4552433732313a20617070726f766520746f2063616c6c6572000000000000006000830152602082019050919050565b6000612138602c83612a42565b91507f4552433732313a206f70657261746f7220717565727920666f72206e6f6e657860008301527f697374656e7420746f6b656e00000000000000000000000000000000000000006020830152604082019050919050565b600061219e603883612a42565b91507f4552433732313a20617070726f76652063616c6c6572206973206e6f74206f7760008301527f6e6572206e6f7220617070726f76656420666f7220616c6c00000000000000006020830152604082019050919050565b6000612204602a83612a42565b91507f4552433732313a2062616c616e636520717565727920666f7220746865207a6560008301527f726f2061646472657373000000000000000000000000000000000000000000006020830152604082019050919050565b600061226a602983612a42565b91507f4552433732313a206f776e657220717565727920666f72206e6f6e657869737460008301527f656e7420746f6b656e00000000000000000000000000000000000000000000006020830152604082019050919050565b60006122d0602e83612a42565b91507f45524337323155524953746f726167653a2055524920736574206f66206e6f6e60008301527f6578697374656e7420746f6b656e0000000000000000000000000000000000006020830152604082019050919050565b6000612336602083612a42565b91507f4552433732313a206d696e7420746f20746865207a65726f20616464726573736000830152602082019050919050565b6000612376603183612a42565b91507f45524337323155524953746f726167653a2055524920717565727920666f722060008301527f6e6f6e6578697374656e7420746f6b656e0000000000000000000000000000006020830152604082019050919050565b60006123dc602c83612a42565b91507f4552433732313a20617070726f76656420717565727920666f72206e6f6e657860008301527f697374656e7420746f6b656e00000000000000000000000000000000000000006020830152604082019050919050565b6000612442602983612a42565b91507f4552433732313a207472616e73666572206f6620746f6b656e2074686174206960008301527f73206e6f74206f776e00000000000000000000000000000000000000000000006020830152604082019050919050565b60006124a8602f83612a42565b91507f4552433732314d657461646174613a2055524920717565727920666f72206e6f60008301527f6e6578697374656e7420746f6b656e00000000000000000000000000000000006020830152604082019050919050565b600061250e602183612a42565b91507f4552433732313a20617070726f76616c20746f2063757272656e74206f776e6560008301527f72000000000000000000000000000000000000000000000000000000000000006020830152604082019050919050565b6000612574603183612a42565b91507f4552433732313a207472616e736665722063616c6c6572206973206e6f74206f60008301527f776e6572206e6f7220617070726f7665640000000000000000000000000000006020830152604082019050919050565b60006060830160008301516125e5600086018261261d565b5060208301516125f8602086018261261d565b50604083015184820360408601526126108282611f3c565b9150508091505092915050565b61262681612b83565b82525050565b61263581612b83565b82525050565b60006126478285611fae565b91506126538284611fae565b91508190509392505050565b60006020820190506126746000830184611e70565b92915050565b600060808201905061268f6000830187611e70565b61269c6020830186611e70565b6126a9604083018561262c565b81810360608301526126bb8184611f03565b905095945050505050565b600060208201905081810360008301526126e08184611e7f565b905092915050565b60006020820190506126fd6000830184611ef4565b92915050565b6000602082019050818103600083015261271d8184611f75565b905092915050565b6000602082019050818103600083015261273e81611fdf565b9050919050565b6000602082019050818103600083015261275e81612045565b9050919050565b6000602082019050818103600083015261277e81612085565b9050919050565b6000602082019050818103600083015261279e816120eb565b9050919050565b600060208201905081810360008301526127be8161212b565b9050919050565b600060208201905081810360008301526127de81612191565b9050919050565b600060208201905081810360008301526127fe816121f7565b9050919050565b6000602082019050818103600083015261281e8161225d565b9050919050565b6000602082019050818103600083015261283e816122c3565b9050919050565b6000602082019050818103600083015261285e81612329565b9050919050565b6000602082019050818103600083015261287e81612369565b9050919050565b6000602082019050818103600083015261289e816123cf565b9050919050565b600060208201905081810360008301526128be81612435565b9050919050565b600060208201905081810360008301526128de8161249b565b9050919050565b600060208201905081810360008301526128fe81612501565b9050919050565b6000602082019050818103600083015261291e81612567565b9050919050565b600060208201905061293a600083018461262c565b92915050565b6000604051905081810181811067ffffffffffffffff8211171561296757612966612d08565b5b8060405250919050565b600067ffffffffffffffff82111561298c5761298b612d08565b5b601f19601f8301169050602081019050919050565b600067ffffffffffffffff8211156129bc576129bb612d08565b5b601f19601f8301169050602081019050919050565b6000819050602082019050919050565b600081519050919050565b600081519050919050565b600081519050919050565b6000602082019050919050565b600082825260208201905092915050565b600082825260208201905092915050565b600082825260208201905092915050565b600082825260208201905092915050565b600081905092915050565b6000612a6982612b83565b9150612a7483612b83565b9250827fffffffffffffffffffffffffffffffffffffffffffffffffffffffffffffffff03821115612aa957612aa8612c7b565b5b828201905092915050565b6000612abf82612b83565b9150612aca83612b83565b925082612ada57612ad9612caa565b5b828204905092915050565b6000612af082612b83565b9150612afb83612b83565b925082821015612b0e57612b0d612c7b565b5b828203905092915050565b6000612b2482612b63565b9050919050565b60008115159050919050565b60007fffffffff0000000000000000000000000000000000000000000000000000000082169050919050565b600073ffffffffffffffffffffffffffffffffffffffff82169050919050565b6000819050919050565b82818337600083830152505050565b60005b83811015612bba578082015181840152602081019050612b9f565b83811115612bc9576000848401525b50505050565b60006002820490506001821680612be757607f821691505b60208210811415612bfb57612bfa612cd9565b5b50919050565b6000612c0c82612b83565b91507fffffffffffffffffffffffffffffffffffffffffffffffffffffffffffffffff821415612c3f57612c3e612c7b565b5b600182019050919050565b6000612c5582612b83565b9150612c6083612b83565b925082612c7057612c6f612caa565b5b828206905092915050565b7f4e487b7100000000000000000000000000000000000000000000000000000000600052601160045260246000fd5b7f4e487b7100000000000000000000000000000000000000000000000000000000600052601260045260246000fd5b7f4e487b7100000000000000000000000000000000000000000000000000000000600052602260045260246000fd5b7f4e487b7100000000000000000000000000000000000000000000000000000000600052604160045260246000fd5b6000601f19601f8301169050919050565b612d5181612b19565b8114612d5c57600080fd5b50565b612d6881612b2b565b8114612d7357600080fd5b50565b612d7f81612b37565b8114612d8a57600080fd5b50565b612d9681612b83565b8114612da157600080fd5b5056fea2646970667358221220f633eec0f100d38c948d12fb9598a09afd71514e565ac042f51c96e0a2d85d6864736f6c63430008000033",
  "immutableReferences": {},
  "source": "// SPDX-License-Identifier: MIT\r\npragma solidity ^0.8.0;\r\n\r\nimport \"@openzeppelin/contracts/token/ERC721/ERC721.sol\";\r\nimport \"@openzeppelin/contracts/utils/Counters.sol\";\r\nimport \"@openzeppelin/contracts/token/ERC721/extensions/ERC721URIStorage.sol\";\r\n\r\ncontract Orbs is ERC721URIStorage{\r\n    using Counters for Counters.Counter;\r\n    Counters.Counter private _tokenIds;\r\n\r\n\r\n    mapping (uint256 => uint256) private _tokenPrices;\r\n\r\n    struct OrbProps {\r\n        uint256 id;\r\n        uint256 price;\r\n        string uri;\r\n    }\r\n\r\n    constructor() ERC721(\"Orbs\", \"ORBS\") {\r\n    }\r\n    \r\n\r\n    function getAllOrbs () public view virtual returns( OrbProps[] memory ) {\r\n        OrbProps[] memory tokens = new OrbProps[](_tokenIds.current());\r\n        uint256 counter = 0;\r\n\r\n        for(uint i = 1; i < _tokenIds.current() + 1; i++) {\r\n                OrbProps memory token = OrbProps(i, _tokenPrices[i], tokenURI(i));\r\n                tokens[counter] = token;\r\n                counter++;\r\n        }\r\n        return tokens;\r\n    }\r\n    \r\n    /**\r\n     * @dev Base URI for computing {tokenURI}. If set, the resulting URI for each\r\n     * token will be the concatenation of the `baseURI` and the `tokenId`. Empty\r\n     * by default, can be overriden in child contracts.\r\n     */\r\n    function _baseURI() override internal view virtual returns (string memory) {\r\n        return \"https://ipfs.infura.io/ipfs/\";\r\n    }\r\n\r\n\r\n    // 0 -> ['tone','note','time','hashmark'] ...\r\n    function mintCollectable(address _owner, string memory _tokenURI)\r\n        public\r\n        returns (uint256)\r\n    {\r\n        _tokenIds.increment();\r\n        uint256 newItemId = _tokenIds.current();\r\n        _mint(_owner, newItemId);\r\n        _setTokenURI(newItemId, _tokenURI);\r\n        \r\n        return newItemId;\r\n    }\r\n\r\n\r\n}",
  "sourcePath": "C:/Users/Usuario/Desktop/NEW_PROJECT/music_generator/nftContract/contracts/Orbs.sol",
  "compiler": {
    "name": "solc",
    "version": "0.8.0+commit.c7dfd78e.Emscripten.clang"
  },
  "schemaVersion": "3.4.1",
  "updatedAt": "2021-07-26T14:48:11.534Z",
  "networkType": "ethereum",
  "devdoc": {
    "kind": "dev",
    "methods": {
      "approve(address,uint256)": {
        "details": "See {IERC721-approve}."
      },
      "balanceOf(address)": {
        "details": "See {IERC721-balanceOf}."
      },
      "getApproved(uint256)": {
        "details": "See {IERC721-getApproved}."
      },
      "isApprovedForAll(address,address)": {
        "details": "See {IERC721-isApprovedForAll}."
      },
      "name()": {
        "details": "See {IERC721Metadata-name}."
      },
      "ownerOf(uint256)": {
        "details": "See {IERC721-ownerOf}."
      },
      "safeTransferFrom(address,address,uint256)": {
        "details": "See {IERC721-safeTransferFrom}."
      },
      "safeTransferFrom(address,address,uint256,bytes)": {
        "details": "See {IERC721-safeTransferFrom}."
      },
      "setApprovalForAll(address,bool)": {
        "details": "See {IERC721-setApprovalForAll}."
      },
      "supportsInterface(bytes4)": {
        "details": "See {IERC165-supportsInterface}."
      },
      "symbol()": {
        "details": "See {IERC721Metadata-symbol}."
      },
      "tokenURI(uint256)": {
        "details": "See {IERC721Metadata-tokenURI}."
      },
      "transferFrom(address,address,uint256)": {
        "details": "See {IERC721-transferFrom}."
      }
    },
    "version": 1
  },
  "userdoc": {
    "kind": "user",
    "methods": {},
    "version": 1
  }
}