{
  "contractName": "Orbs",
  "abi": [
    {
      "inputs": [],
      "stateMutability": "nonpayable",
      "type": "constructor"
    },
    {
      "anonymous": false,
      "inputs": [
        {
          "indexed": true,
          "internalType": "address",
          "name": "owner",
          "type": "address"
        },
        {
          "indexed": true,
          "internalType": "address",
          "name": "approved",
          "type": "address"
        },
        {
          "indexed": true,
          "internalType": "uint256",
          "name": "tokenId",
          "type": "uint256"
        }
      ],
      "name": "Approval",
      "type": "event"
    },
    {
      "anonymous": false,
      "inputs": [
        {
          "indexed": true,
          "internalType": "address",
          "name": "owner",
          "type": "address"
        },
        {
          "indexed": true,
          "internalType": "address",
          "name": "operator",
          "type": "address"
        },
        {
          "indexed": false,
          "internalType": "bool",
          "name": "approved",
          "type": "bool"
        }
      ],
      "name": "ApprovalForAll",
      "type": "event"
    },
    {
      "anonymous": false,
      "inputs": [
        {
          "indexed": true,
          "internalType": "address",
          "name": "from",
          "type": "address"
        },
        {
          "indexed": true,
          "internalType": "address",
          "name": "to",
          "type": "address"
        },
        {
          "indexed": true,
          "internalType": "uint256",
          "name": "tokenId",
          "type": "uint256"
        }
      ],
      "name": "Transfer",
      "type": "event"
    },
    {
      "inputs": [
        {
          "internalType": "address",
          "name": "to",
          "type": "address"
        },
        {
          "internalType": "uint256",
          "name": "tokenId",
          "type": "uint256"
        }
      ],
      "name": "approve",
      "outputs": [],
      "stateMutability": "nonpayable",
      "type": "function"
    },
    {
      "inputs": [
        {
          "internalType": "address",
          "name": "owner",
          "type": "address"
        }
      ],
      "name": "balanceOf",
      "outputs": [
        {
          "internalType": "uint256",
          "name": "",
          "type": "uint256"
        }
      ],
      "stateMutability": "view",
      "type": "function",
      "constant": true
    },
    {
      "inputs": [
        {
          "internalType": "uint256",
          "name": "tokenId",
          "type": "uint256"
        }
      ],
      "name": "getApproved",
      "outputs": [
        {
          "internalType": "address",
          "name": "",
          "type": "address"
        }
      ],
      "stateMutability": "view",
      "type": "function",
      "constant": true
    },
    {
      "inputs": [
        {
          "internalType": "address",
          "name": "owner",
          "type": "address"
        },
        {
          "internalType": "address",
          "name": "operator",
          "type": "address"
        }
      ],
      "name": "isApprovedForAll",
      "outputs": [
        {
          "internalType": "bool",
          "name": "",
          "type": "bool"
        }
      ],
      "stateMutability": "view",
      "type": "function",
      "constant": true
    },
    {
      "inputs": [],
      "name": "name",
      "outputs": [
        {
          "internalType": "string",
          "name": "",
          "type": "string"
        }
      ],
      "stateMutability": "view",
      "type": "function",
      "constant": true
    },
    {
      "inputs": [
        {
          "internalType": "uint256",
          "name": "tokenId",
          "type": "uint256"
        }
      ],
      "name": "ownerOf",
      "outputs": [
        {
          "internalType": "address",
          "name": "",
          "type": "address"
        }
      ],
      "stateMutability": "view",
      "type": "function",
      "constant": true
    },
    {
      "inputs": [
        {
          "internalType": "address",
          "name": "from",
          "type": "address"
        },
        {
          "internalType": "address",
          "name": "to",
          "type": "address"
        },
        {
          "internalType": "uint256",
          "name": "tokenId",
          "type": "uint256"
        }
      ],
      "name": "safeTransferFrom",
      "outputs": [],
      "stateMutability": "nonpayable",
      "type": "function"
    },
    {
      "inputs": [
        {
          "internalType": "address",
          "name": "from",
          "type": "address"
        },
        {
          "internalType": "address",
          "name": "to",
          "type": "address"
        },
        {
          "internalType": "uint256",
          "name": "tokenId",
          "type": "uint256"
        },
        {
          "internalType": "bytes",
          "name": "_data",
          "type": "bytes"
        }
      ],
      "name": "safeTransferFrom",
      "outputs": [],
      "stateMutability": "nonpayable",
      "type": "function"
    },
    {
      "inputs": [
        {
          "internalType": "address",
          "name": "operator",
          "type": "address"
        },
        {
          "internalType": "bool",
          "name": "approved",
          "type": "bool"
        }
      ],
      "name": "setApprovalForAll",
      "outputs": [],
      "stateMutability": "nonpayable",
      "type": "function"
    },
    {
      "inputs": [
        {
          "internalType": "bytes4",
          "name": "interfaceId",
          "type": "bytes4"
        }
      ],
      "name": "supportsInterface",
      "outputs": [
        {
          "internalType": "bool",
          "name": "",
          "type": "bool"
        }
      ],
      "stateMutability": "view",
      "type": "function",
      "constant": true
    },
    {
      "inputs": [],
      "name": "symbol",
      "outputs": [
        {
          "internalType": "string",
          "name": "",
          "type": "string"
        }
      ],
      "stateMutability": "view",
      "type": "function",
      "constant": true
    },
    {
      "inputs": [
        {
          "internalType": "uint256",
          "name": "tokenId",
          "type": "uint256"
        }
      ],
      "name": "tokenURI",
      "outputs": [
        {
          "internalType": "string",
          "name": "",
          "type": "string"
        }
      ],
      "stateMutability": "view",
      "type": "function",
      "constant": true
    },
    {
      "inputs": [
        {
          "internalType": "address",
          "name": "from",
          "type": "address"
        },
        {
          "internalType": "address",
          "name": "to",
          "type": "address"
        },
        {
          "internalType": "uint256",
          "name": "tokenId",
          "type": "uint256"
        }
      ],
      "name": "transferFrom",
      "outputs": [],
      "stateMutability": "nonpayable",
      "type": "function"
    },
    {
      "stateMutability": "payable",
      "type": "receive",
      "payable": true
    },
    {
      "inputs": [],
      "name": "getAllOrbs",
      "outputs": [
        {
          "components": [
            {
              "internalType": "uint256",
              "name": "id",
              "type": "uint256"
            },
            {
              "internalType": "address",
              "name": "owner",
              "type": "address"
            },
            {
              "internalType": "uint256",
              "name": "price",
              "type": "uint256"
            },
            {
              "internalType": "string",
              "name": "dna",
              "type": "string"
            }
          ],
          "internalType": "struct Orbs.OrbProps[]",
          "name": "",
          "type": "tuple[]"
        }
      ],
      "stateMutability": "view",
      "type": "function",
      "constant": true
    },
    {
      "inputs": [
        {
          "internalType": "uint256",
          "name": "tokenId",
          "type": "uint256"
        },
        {
          "internalType": "uint256",
          "name": "_price",
          "type": "uint256"
        }
      ],
      "name": "setTokenPrice",
      "outputs": [],
      "stateMutability": "nonpayable",
      "type": "function"
    },
    {
      "inputs": [
        {
          "internalType": "address",
          "name": "_owner",
          "type": "address"
        },
        {
          "internalType": "string",
          "name": "_dna",
          "type": "string"
        }
      ],
      "name": "mintCollectable",
      "outputs": [
        {
          "internalType": "uint256",
          "name": "",
          "type": "uint256"
        }
      ],
      "stateMutability": "payable",
      "type": "function",
      "payable": true
    },
    {
      "inputs": [],
      "name": "transferBalanceToOwner",
      "outputs": [],
      "stateMutability": "payable",
      "type": "function",
      "payable": true
    }
  ],
  "bytecode": "0x60806040523480156200001157600080fd5b506040518060400160405280600481526020017f4f726273000000000000000000000000000000000000000000000000000000008152506040518060400160405280600481526020017f4f52425300000000000000000000000000000000000000000000000000000000815250816000908051906020019062000096929190620000f9565b508060019080519060200190620000af929190620000f9565b50505033600760006101000a81548173ffffffffffffffffffffffffffffffffffffffff021916908373ffffffffffffffffffffffffffffffffffffffff1602179055506200020e565b8280546200010790620001a9565b90600052602060002090601f0160209004810192826200012b576000855562000177565b82601f106200014657805160ff191683800117855562000177565b8280016001018555821562000177579182015b828111156200017657825182559160200191906001019062000159565b5b5090506200018691906200018a565b5090565b5b80821115620001a55760008160009055506001016200018b565b5090565b60006002820490506001821680620001c257607f821691505b60208210811415620001d957620001d8620001df565b5b50919050565b7f4e487b7100000000000000000000000000000000000000000000000000000000600052602260045260246000fd5b61310a806200021e6000396000f3fe6080604052600436106101025760003560e01c806370a0823111610095578063b88d4fde11610064578063b88d4fde14610331578063c87b56dd1461035a578063e4fd153814610397578063e985e9c5146103c7578063eb685c471461040457610109565b806370a0823114610275578063728b6fc7146102b257806395d89b41146102dd578063a22cb4651461030857610109565b806323b872dd116100d157806323b872dd146101dc57806342842e0e1461020557806347f07a8e1461022e5780636352211e1461023857610109565b806301ffc9a71461010e57806306fdde031461014b578063081812fc14610176578063095ea7b3146101b357610109565b3661010957005b600080fd5b34801561011a57600080fd5b5061013560048036038101906101309190612019565b61042d565b60405161014291906129d8565b60405180910390f35b34801561015757600080fd5b5061016061050f565b60405161016d91906129f3565b60405180910390f35b34801561018257600080fd5b5061019d6004803603810190610198919061206b565b6105a1565b6040516101aa919061294f565b60405180910390f35b3480156101bf57600080fd5b506101da60048036038101906101d59190611fdd565b610626565b005b3480156101e857600080fd5b5061020360048036038101906101fe9190611e83565b61073e565b005b34801561021157600080fd5b5061022c60048036038101906102279190611e83565b61079e565b005b6102366107be565b005b34801561024457600080fd5b5061025f600480360381019061025a919061206b565b6108b9565b60405161026c919061294f565b60405180910390f35b34801561028157600080fd5b5061029c60048036038101906102979190611e1e565b61096b565b6040516102a99190612c55565b60405180910390f35b3480156102be57600080fd5b506102c7610a23565b6040516102d491906129b6565b60405180910390f35b3480156102e957600080fd5b506102f2610c38565b6040516102ff91906129f3565b60405180910390f35b34801561031457600080fd5b5061032f600480360381019061032a9190611f4d565b610cca565b005b34801561033d57600080fd5b5061035860048036038101906103539190611ed2565b610e4b565b005b34801561036657600080fd5b50610381600480360381019061037c919061206b565b610ead565b60405161038e91906129f3565b60405180910390f35b6103b160048036038101906103ac9190611f89565b610f54565b6040516103be9190612c55565b60405180910390f35b3480156103d357600080fd5b506103ee60048036038101906103e99190611e47565b610fd6565b6040516103fb91906129d8565b60405180910390f35b34801561041057600080fd5b5061042b60048036038101906104269190612094565b61106a565b005b60007f80ac58cd000000000000000000000000000000000000000000000000000000007bffffffffffffffffffffffffffffffffffffffffffffffffffffffff1916827bffffffffffffffffffffffffffffffffffffffffffffffffffffffff191614806104f857507f5b5e139f000000000000000000000000000000000000000000000000000000007bffffffffffffffffffffffffffffffffffffffffffffffffffffffff1916827bffffffffffffffffffffffffffffffffffffffffffffffffffffffff1916145b80610508575061050782611146565b5b9050919050565b60606000805461051e90612eff565b80601f016020809104026020016040519081016040528092919081815260200182805461054a90612eff565b80156105975780601f1061056c57610100808354040283529160200191610597565b820191906000526020600020905b81548152906001019060200180831161057a57829003601f168201915b5050505050905090565b60006105ac826111b0565b6105eb576040517f08c379a00000000000000000000000000000000000000000000000000000000081526004016105e290612b95565b60405180910390fd5b6004600083815260200190815260200160002060009054906101000a900473ffffffffffffffffffffffffffffffffffffffff169050919050565b6000610631826108b9565b90508073ffffffffffffffffffffffffffffffffffffffff168373ffffffffffffffffffffffffffffffffffffffff1614156106a2576040517f08c379a000000000000000000000000000000000000000000000000000000000815260040161069990612c15565b60405180910390fd5b8073ffffffffffffffffffffffffffffffffffffffff166106c161121c565b73ffffffffffffffffffffffffffffffffffffffff1614806106f057506106ef816106ea61121c565b610fd6565b5b61072f576040517f08c379a000000000000000000000000000000000000000000000000000000000815260040161072690612b15565b60405180910390fd5b6107398383611224565b505050565b61074f61074961121c565b826112dd565b61078e576040517f08c379a000000000000000000000000000000000000000000000000000000000815260040161078590612c35565b60405180910390fd5b6107998383836113bb565b505050565b6107b983838360405180602001604052806000815250610e4b565b505050565b600760009054906101000a900473ffffffffffffffffffffffffffffffffffffffff1673ffffffffffffffffffffffffffffffffffffffff163373ffffffffffffffffffffffffffffffffffffffff161461084e576040517f08c379a000000000000000000000000000000000000000000000000000000000815260040161084590612af5565b60405180910390fd5b600760009054906101000a900473ffffffffffffffffffffffffffffffffffffffff1673ffffffffffffffffffffffffffffffffffffffff166108fc479081150290604051600060405180830381858888f193505050501580156108b6573d6000803e3d6000fd5b50565b6000806002600084815260200190815260200160002060009054906101000a900473ffffffffffffffffffffffffffffffffffffffff169050600073ffffffffffffffffffffffffffffffffffffffff168173ffffffffffffffffffffffffffffffffffffffff161415610962576040517f08c379a000000000000000000000000000000000000000000000000000000000815260040161095990612b55565b60405180910390fd5b80915050919050565b60008073ffffffffffffffffffffffffffffffffffffffff168273ffffffffffffffffffffffffffffffffffffffff1614156109dc576040517f08c379a00000000000000000000000000000000000000000000000000000000081526004016109d390612b35565b60405180910390fd5b600360008373ffffffffffffffffffffffffffffffffffffffff1673ffffffffffffffffffffffffffffffffffffffff168152602001908152602001600020549050919050565b60606000610a316006611617565b67ffffffffffffffff811115610a70577f4e487b7100000000000000000000000000000000000000000000000000000000600052604160045260246000fd5b604051908082528060200260200182016040528015610aa957816020015b610a96611c04565b815260200190600190039081610a8e5790505b509050600080600190505b6001610ac06006611617565b610aca9190612d8e565b811015610c2f576000610adc826108b9565b9050600060405180608001604052808481526020018373ffffffffffffffffffffffffffffffffffffffff16815260200160086000868152602001908152602001600020548152602001600960008681526020019081526020016000208054610b4490612eff565b80601f0160208091040260200160405190810160405280929190818152602001828054610b7090612eff565b8015610bbd5780601f10610b9257610100808354040283529160200191610bbd565b820191906000526020600020905b815481529060010190602001808311610ba057829003601f168201915b5050505050815250905080858581518110610c01577f4e487b7100000000000000000000000000000000000000000000000000000000600052603260045260246000fd5b60200260200101819052508380610c1790612f31565b94505050508080610c2790612f31565b915050610ab4565b50819250505090565b606060018054610c4790612eff565b80601f0160208091040260200160405190810160405280929190818152602001828054610c7390612eff565b8015610cc05780601f10610c9557610100808354040283529160200191610cc0565b820191906000526020600020905b815481529060010190602001808311610ca357829003601f168201915b5050505050905090565b610cd261121c565b73ffffffffffffffffffffffffffffffffffffffff168273ffffffffffffffffffffffffffffffffffffffff161415610d40576040517f08c379a0000000000000000000000000000000000000000000000000000000008152600401610d3790612ab5565b60405180910390fd5b8060056000610d4d61121c565b73ffffffffffffffffffffffffffffffffffffffff1673ffffffffffffffffffffffffffffffffffffffff16815260200190815260200160002060008473ffffffffffffffffffffffffffffffffffffffff1673ffffffffffffffffffffffffffffffffffffffff16815260200190815260200160002060006101000a81548160ff0219169083151502179055508173ffffffffffffffffffffffffffffffffffffffff16610dfa61121c565b73ffffffffffffffffffffffffffffffffffffffff167f17307eab39ab6107e8899845ad3d59bd9653f200f220920489ca2b5937696c3183604051610e3f91906129d8565b60405180910390a35050565b610e5c610e5661121c565b836112dd565b610e9b576040517f08c379a0000000000000000000000000000000000000000000000000000000008152600401610e9290612c35565b60405180910390fd5b610ea784848484611625565b50505050565b6060610eb8826111b0565b610ef7576040517f08c379a0000000000000000000000000000000000000000000000000000000008152600401610eee90612bf5565b60405180910390fd5b6000610f01611681565b90506000815111610f215760405180602001604052806000815250610f4c565b80610f2b84611698565b604051602001610f3c92919061292b565b6040516020818303038152906040525b915050919050565b6000662386f26fc10000341015610fa0576040517f08c379a0000000000000000000000000000000000000000000000000000000008152600401610f9790612a75565b60405180910390fd5b610faa6006611845565b6000610fb66006611617565b9050610fc2848261185b565b610fcc8184611a29565b8091505092915050565b6000600560008473ffffffffffffffffffffffffffffffffffffffff1673ffffffffffffffffffffffffffffffffffffffff16815260200190815260200160002060008373ffffffffffffffffffffffffffffffffffffffff1673ffffffffffffffffffffffffffffffffffffffff16815260200190815260200160002060009054906101000a900460ff16905092915050565b81611074816108b9565b73ffffffffffffffffffffffffffffffffffffffff163373ffffffffffffffffffffffffffffffffffffffff16146110e1576040517f08c379a00000000000000000000000000000000000000000000000000000000081526004016110d890612a15565b60405180910390fd5b6110ea836111b0565b611129576040517f08c379a000000000000000000000000000000000000000000000000000000000815260040161112090612bb5565b60405180910390fd5b816008600085815260200190815260200160002081905550505050565b60007f01ffc9a7000000000000000000000000000000000000000000000000000000007bffffffffffffffffffffffffffffffffffffffffffffffffffffffff1916827bffffffffffffffffffffffffffffffffffffffffffffffffffffffff1916149050919050565b60008073ffffffffffffffffffffffffffffffffffffffff166002600084815260200190815260200160002060009054906101000a900473ffffffffffffffffffffffffffffffffffffffff1673ffffffffffffffffffffffffffffffffffffffff1614159050919050565b600033905090565b816004600083815260200190815260200160002060006101000a81548173ffffffffffffffffffffffffffffffffffffffff021916908373ffffffffffffffffffffffffffffffffffffffff160217905550808273ffffffffffffffffffffffffffffffffffffffff16611297836108b9565b73ffffffffffffffffffffffffffffffffffffffff167f8c5be1e5ebec7d5bd14f71427d1e84f3dd0314c0f7b2291e5b200ac8c7c3b92560405160405180910390a45050565b60006112e8826111b0565b611327576040517f08c379a000000000000000000000000000000000000000000000000000000000815260040161131e90612ad5565b60405180910390fd5b6000611332836108b9565b90508073ffffffffffffffffffffffffffffffffffffffff168473ffffffffffffffffffffffffffffffffffffffff1614806113a157508373ffffffffffffffffffffffffffffffffffffffff16611389846105a1565b73ffffffffffffffffffffffffffffffffffffffff16145b806113b257506113b18185610fd6565b5b91505092915050565b8273ffffffffffffffffffffffffffffffffffffffff166113db826108b9565b73ffffffffffffffffffffffffffffffffffffffff1614611431576040517f08c379a000000000000000000000000000000000000000000000000000000000815260040161142890612bd5565b60405180910390fd5b600073ffffffffffffffffffffffffffffffffffffffff168273ffffffffffffffffffffffffffffffffffffffff1614156114a1576040517f08c379a000000000000000000000000000000000000000000000000000000000815260040161149890612a95565b60405180910390fd5b6114ac838383611a55565b6114b7600082611224565b6001600360008573ffffffffffffffffffffffffffffffffffffffff1673ffffffffffffffffffffffffffffffffffffffff16815260200190815260200160002060008282546115079190612e15565b925050819055506001600360008473ffffffffffffffffffffffffffffffffffffffff1673ffffffffffffffffffffffffffffffffffffffff168152602001908152602001600020600082825461155e9190612d8e565b92505081905550816002600083815260200190815260200160002060006101000a81548173ffffffffffffffffffffffffffffffffffffffff021916908373ffffffffffffffffffffffffffffffffffffffff160217905550808273ffffffffffffffffffffffffffffffffffffffff168473ffffffffffffffffffffffffffffffffffffffff167fddf252ad1be2c89b69c2b068fc378daa952ba7f163c4a11628f55a4df523b3ef60405160405180910390a4505050565b600081600001549050919050565b6116308484846113bb565b61163c84848484611a5a565b61167b576040517f08c379a000000000000000000000000000000000000000000000000000000000815260040161167290612a35565b60405180910390fd5b50505050565b606060405180602001604052806000815250905090565b606060008214156116e0576040518060400160405280600181526020017f30000000000000000000000000000000000000000000000000000000000000008152509050611840565b600082905060005b600082146117125780806116fb90612f31565b915050600a8261170b9190612de4565b91506116e8565b60008167ffffffffffffffff811115611754577f4e487b7100000000000000000000000000000000000000000000000000000000600052604160045260246000fd5b6040519080825280601f01601f1916602001820160405280156117865781602001600182028036833780820191505090505b5090505b600085146118395760018261179f9190612e15565b9150600a856117ae9190612f7a565b60306117ba9190612d8e565b60f81b8183815181106117f6577f4e487b7100000000000000000000000000000000000000000000000000000000600052603260045260246000fd5b60200101907effffffffffffffffffffffffffffffffffffffffffffffffffffffffffffff1916908160001a905350600a856118329190612de4565b945061178a565b8093505050505b919050565b6001816000016000828254019250508190555050565b600073ffffffffffffffffffffffffffffffffffffffff168273ffffffffffffffffffffffffffffffffffffffff1614156118cb576040517f08c379a00000000000000000000000000000000000000000000000000000000081526004016118c290612b75565b60405180910390fd5b6118d4816111b0565b15611914576040517f08c379a000000000000000000000000000000000000000000000000000000000815260040161190b90612a55565b60405180910390fd5b61192060008383611a55565b6001600360008473ffffffffffffffffffffffffffffffffffffffff1673ffffffffffffffffffffffffffffffffffffffff16815260200190815260200160002060008282546119709190612d8e565b92505081905550816002600083815260200190815260200160002060006101000a81548173ffffffffffffffffffffffffffffffffffffffff021916908373ffffffffffffffffffffffffffffffffffffffff160217905550808273ffffffffffffffffffffffffffffffffffffffff16600073ffffffffffffffffffffffffffffffffffffffff167fddf252ad1be2c89b69c2b068fc378daa952ba7f163c4a11628f55a4df523b3ef60405160405180910390a45050565b80600960008481526020019081526020016000209080519060200190611a50929190611c42565b505050565b505050565b6000611a7b8473ffffffffffffffffffffffffffffffffffffffff16611bf1565b15611be4578373ffffffffffffffffffffffffffffffffffffffff1663150b7a02611aa461121c565b8786866040518563ffffffff1660e01b8152600401611ac6949392919061296a565b602060405180830381600087803b158015611ae057600080fd5b505af1925050508015611b1157506040513d601f19601f82011682018060405250810190611b0e9190612042565b60015b611b94573d8060008114611b41576040519150601f19603f3d011682016040523d82523d6000602084013e611b46565b606091505b50600081511415611b8c576040517f08c379a0000000000000000000000000000000000000000000000000000000008152600401611b8390612a35565b60405180910390fd5b805181602001fd5b63150b7a0260e01b7bffffffffffffffffffffffffffffffffffffffffffffffffffffffff1916817bffffffffffffffffffffffffffffffffffffffffffffffffffffffff191614915050611be9565b600190505b949350505050565b600080823b905060008111915050919050565b604051806080016040528060008152602001600073ffffffffffffffffffffffffffffffffffffffff16815260200160008152602001606081525090565b828054611c4e90612eff565b90600052602060002090601f016020900481019282611c705760008555611cb7565b82601f10611c8957805160ff1916838001178555611cb7565b82800160010185558215611cb7579182015b82811115611cb6578251825591602001919060010190611c9b565b5b509050611cc49190611cc8565b5090565b5b80821115611ce1576000816000905550600101611cc9565b5090565b6000611cf8611cf384612ca1565b612c70565b905082815260208101848484011115611d1057600080fd5b611d1b848285612ebd565b509392505050565b6000611d36611d3184612cd1565b612c70565b905082815260208101848484011115611d4e57600080fd5b611d59848285612ebd565b509392505050565b600081359050611d7081613078565b92915050565b600081359050611d858161308f565b92915050565b600081359050611d9a816130a6565b92915050565b600081519050611daf816130a6565b92915050565b600082601f830112611dc657600080fd5b8135611dd6848260208601611ce5565b91505092915050565b600082601f830112611df057600080fd5b8135611e00848260208601611d23565b91505092915050565b600081359050611e18816130bd565b92915050565b600060208284031215611e3057600080fd5b6000611e3e84828501611d61565b91505092915050565b60008060408385031215611e5a57600080fd5b6000611e6885828601611d61565b9250506020611e7985828601611d61565b9150509250929050565b600080600060608486031215611e9857600080fd5b6000611ea686828701611d61565b9350506020611eb786828701611d61565b9250506040611ec886828701611e09565b9150509250925092565b60008060008060808587031215611ee857600080fd5b6000611ef687828801611d61565b9450506020611f0787828801611d61565b9350506040611f1887828801611e09565b925050606085013567ffffffffffffffff811115611f3557600080fd5b611f4187828801611db5565b91505092959194509250565b60008060408385031215611f6057600080fd5b6000611f6e85828601611d61565b9250506020611f7f85828601611d76565b9150509250929050565b60008060408385031215611f9c57600080fd5b6000611faa85828601611d61565b925050602083013567ffffffffffffffff811115611fc757600080fd5b611fd385828601611ddf565b9150509250929050565b60008060408385031215611ff057600080fd5b6000611ffe85828601611d61565b925050602061200f85828601611e09565b9150509250929050565b60006020828403121561202b57600080fd5b600061203984828501611d8b565b91505092915050565b60006020828403121561205457600080fd5b600061206284828501611da0565b91505092915050565b60006020828403121561207d57600080fd5b600061208b84828501611e09565b91505092915050565b600080604083850312156120a757600080fd5b60006120b585828601611e09565b92505060206120c685828601611e09565b9150509250929050565b60006120dc83836128aa565b905092915050565b6120ed81612e49565b82525050565b6120fc81612e49565b82525050565b600061210d82612d11565b6121178185612d3f565b93508360208202850161212985612d01565b8060005b85811015612165578484038952815161214685826120d0565b945061215183612d32565b925060208a0199505060018101905061212d565b50829750879550505050505092915050565b61218081612e5b565b82525050565b600061219182612d1c565b61219b8185612d50565b93506121ab818560208601612ecc565b6121b481613067565b840191505092915050565b60006121ca82612d27565b6121d48185612d61565b93506121e4818560208601612ecc565b6121ed81613067565b840191505092915050565b600061220382612d27565b61220d8185612d72565b935061221d818560208601612ecc565b61222681613067565b840191505092915050565b600061223c82612d27565b6122468185612d83565b9350612256818560208601612ecc565b80840191505092915050565b600061226f601983612d72565b91507f6f6e6c792063726561746f72206f662074686520746f6b656e000000000000006000830152602082019050919050565b60006122af603283612d72565b91507f4552433732313a207472616e7366657220746f206e6f6e20455243373231526560008301527f63656976657220696d706c656d656e74657200000000000000000000000000006020830152604082019050919050565b6000612315601c83612d72565b91507f4552433732313a20746f6b656e20616c7265616479206d696e746564000000006000830152602082019050919050565b6000612355601583612d72565b91507f4e65656420746f2073656e6420302e30312045544800000000000000000000006000830152602082019050919050565b6000612395602483612d72565b91507f4552433732313a207472616e7366657220746f20746865207a65726f2061646460008301527f72657373000000000000000000000000000000000000000000000000000000006020830152604082019050919050565b60006123fb601983612d72565b91507f4552433732313a20617070726f766520746f2063616c6c6572000000000000006000830152602082019050919050565b600061243b602c83612d72565b91507f4552433732313a206f70657261746f7220717565727920666f72206e6f6e657860008301527f697374656e7420746f6b656e00000000000000000000000000000000000000006020830152604082019050919050565b60006124a1600c83612d72565b91507f6f6e6c792063726561746f7200000000000000000000000000000000000000006000830152602082019050919050565b60006124e1603883612d72565b91507f4552433732313a20617070726f76652063616c6c6572206973206e6f74206f7760008301527f6e6572206e6f7220617070726f76656420666f7220616c6c00000000000000006020830152604082019050919050565b6000612547602a83612d72565b91507f4552433732313a2062616c616e636520717565727920666f7220746865207a6560008301527f726f2061646472657373000000000000000000000000000000000000000000006020830152604082019050919050565b60006125ad602983612d72565b91507f4552433732313a206f776e657220717565727920666f72206e6f6e657869737460008301527f656e7420746f6b656e00000000000000000000000000000000000000000000006020830152604082019050919050565b6000612613602083612d72565b91507f4552433732313a206d696e7420746f20746865207a65726f20616464726573736000830152602082019050919050565b6000612653602c83612d72565b91507f4552433732313a20617070726f76656420717565727920666f72206e6f6e657860008301527f697374656e7420746f6b656e00000000000000000000000000000000000000006020830152604082019050919050565b60006126b9602e83612d72565b91507f4552433732314d657461646174613a20507269636520736574206f66206e6f6e60008301527f6578697374656e7420746f6b656e0000000000000000000000000000000000006020830152604082019050919050565b600061271f602983612d72565b91507f4552433732313a207472616e73666572206f6620746f6b656e2074686174206960008301527f73206e6f74206f776e00000000000000000000000000000000000000000000006020830152604082019050919050565b6000612785602f83612d72565b91507f4552433732314d657461646174613a2055524920717565727920666f72206e6f60008301527f6e6578697374656e7420746f6b656e00000000000000000000000000000000006020830152604082019050919050565b60006127eb602183612d72565b91507f4552433732313a20617070726f76616c20746f2063757272656e74206f776e6560008301527f72000000000000000000000000000000000000000000000000000000000000006020830152604082019050919050565b6000612851603183612d72565b91507f4552433732313a207472616e736665722063616c6c6572206973206e6f74206f60008301527f776e6572206e6f7220617070726f7665640000000000000000000000000000006020830152604082019050919050565b60006080830160008301516128c2600086018261290d565b5060208301516128d560208601826120e4565b5060408301516128e8604086018261290d565b506060830151848203606086015261290082826121bf565b9150508091505092915050565b61291681612eb3565b82525050565b61292581612eb3565b82525050565b60006129378285612231565b91506129438284612231565b91508190509392505050565b600060208201905061296460008301846120f3565b92915050565b600060808201905061297f60008301876120f3565b61298c60208301866120f3565b612999604083018561291c565b81810360608301526129ab8184612186565b905095945050505050565b600060208201905081810360008301526129d08184612102565b905092915050565b60006020820190506129ed6000830184612177565b92915050565b60006020820190508181036000830152612a0d81846121f8565b905092915050565b60006020820190508181036000830152612a2e81612262565b9050919050565b60006020820190508181036000830152612a4e816122a2565b9050919050565b60006020820190508181036000830152612a6e81612308565b9050919050565b60006020820190508181036000830152612a8e81612348565b9050919050565b60006020820190508181036000830152612aae81612388565b9050919050565b60006020820190508181036000830152612ace816123ee565b9050919050565b60006020820190508181036000830152612aee8161242e565b9050919050565b60006020820190508181036000830152612b0e81612494565b9050919050565b60006020820190508181036000830152612b2e816124d4565b9050919050565b60006020820190508181036000830152612b4e8161253a565b9050919050565b60006020820190508181036000830152612b6e816125a0565b9050919050565b60006020820190508181036000830152612b8e81612606565b9050919050565b60006020820190508181036000830152612bae81612646565b9050919050565b60006020820190508181036000830152612bce816126ac565b9050919050565b60006020820190508181036000830152612bee81612712565b9050919050565b60006020820190508181036000830152612c0e81612778565b9050919050565b60006020820190508181036000830152612c2e816127de565b9050919050565b60006020820190508181036000830152612c4e81612844565b9050919050565b6000602082019050612c6a600083018461291c565b92915050565b6000604051905081810181811067ffffffffffffffff82111715612c9757612c96613038565b5b8060405250919050565b600067ffffffffffffffff821115612cbc57612cbb613038565b5b601f19601f8301169050602081019050919050565b600067ffffffffffffffff821115612cec57612ceb613038565b5b601f19601f8301169050602081019050919050565b6000819050602082019050919050565b600081519050919050565b600081519050919050565b600081519050919050565b6000602082019050919050565b600082825260208201905092915050565b600082825260208201905092915050565b600082825260208201905092915050565b600082825260208201905092915050565b600081905092915050565b6000612d9982612eb3565b9150612da483612eb3565b9250827fffffffffffffffffffffffffffffffffffffffffffffffffffffffffffffffff03821115612dd957612dd8612fab565b5b828201905092915050565b6000612def82612eb3565b9150612dfa83612eb3565b925082612e0a57612e09612fda565b5b828204905092915050565b6000612e2082612eb3565b9150612e2b83612eb3565b925082821015612e3e57612e3d612fab565b5b828203905092915050565b6000612e5482612e93565b9050919050565b60008115159050919050565b60007fffffffff0000000000000000000000000000000000000000000000000000000082169050919050565b600073ffffffffffffffffffffffffffffffffffffffff82169050919050565b6000819050919050565b82818337600083830152505050565b60005b83811015612eea578082015181840152602081019050612ecf565b83811115612ef9576000848401525b50505050565b60006002820490506001821680612f1757607f821691505b60208210811415612f2b57612f2a613009565b5b50919050565b6000612f3c82612eb3565b91507fffffffffffffffffffffffffffffffffffffffffffffffffffffffffffffffff821415612f6f57612f6e612fab565b5b600182019050919050565b6000612f8582612eb3565b9150612f9083612eb3565b925082612fa057612f9f612fda565b5b828206905092915050565b7f4e487b7100000000000000000000000000000000000000000000000000000000600052601160045260246000fd5b7f4e487b7100000000000000000000000000000000000000000000000000000000600052601260045260246000fd5b7f4e487b7100000000000000000000000000000000000000000000000000000000600052602260045260246000fd5b7f4e487b7100000000000000000000000000000000000000000000000000000000600052604160045260246000fd5b6000601f19601f8301169050919050565b61308181612e49565b811461308c57600080fd5b50565b61309881612e5b565b81146130a357600080fd5b50565b6130af81612e67565b81146130ba57600080fd5b50565b6130c681612eb3565b81146130d157600080fd5b5056fea26469706673582212201112938427efab4207923a0c6cc1fce23459015122fc042f55d6d5b66564d64664736f6c63430008000033",
  "immutableReferences": {},
  "source": "// SPDX-License-Identifier: MIT\r\npragma solidity ^0.8.0;\r\n\r\nimport \"@openzeppelin/contracts/token/ERC721/ERC721.sol\";\r\nimport \"@openzeppelin/contracts/utils/Counters.sol\";\r\n\r\ncontract Orbs is ERC721{\r\n    using Counters for Counters.Counter;\r\n    Counters.Counter private _tokenIds;\r\n\r\n    address payable orbsGod;\r\n\r\n\r\n    mapping (uint256 => uint256) private _tokenPrices;\r\n    mapping (uint256 => string) private _tokenDnas;\r\n\r\n    struct OrbProps {\r\n        uint256 id;\r\n        address owner;\r\n        uint256 price;\r\n        string dna;\r\n    }\r\n\r\n    constructor() ERC721(\"Orbs\", \"ORBS\") {\r\n        orbsGod = payable(msg.sender);\r\n    }\r\n    \r\n\r\n    function getAllOrbs () public view virtual returns( OrbProps[] memory ) {\r\n        OrbProps[] memory tokens = new OrbProps[](_tokenIds.current());\r\n        uint256 counter = 0;\r\n\r\n        for(uint i = 1; i < _tokenIds.current() + 1; i++) {\r\n                address owner = ownerOf(i);\r\n                OrbProps memory token = OrbProps(i,owner, _tokenPrices[i], _tokenDnas[i]);\r\n                tokens[counter] = token;\r\n                counter++;\r\n        }\r\n\r\n        return tokens;\r\n    }\r\n\r\n    function setTokenPrice(uint256 tokenId, uint256 _price) public onlyOwnerOfToken(tokenId){\r\n        require(_exists(tokenId), \"ERC721Metadata: Price set of nonexistent token\");\r\n        _tokenPrices[tokenId] = _price;\r\n    }\r\n\r\n    function setTokenDna(uint256 tokenId,string memory _dna) internal {\r\n        _tokenDnas[tokenId] = _dna;\r\n    }\r\n    \r\n    \r\n\r\n    // 0 -> ['tone','note','time','hashmark'] ...\r\n    function mintCollectable(address _owner, string memory _dna)\r\n        public payable\r\n        returns (uint256)\r\n    {\r\n        require(msg.value >= 0.01 ether, 'Need to send 0.01 ETH');\r\n        _tokenIds.increment();\r\n        uint256 newItemId = _tokenIds.current();\r\n        _mint(_owner, newItemId);\r\n        setTokenDna(newItemId, _dna);\r\n        return newItemId;\r\n    }\r\n\r\n    receive() external payable {}\r\n\r\n\r\n    function transferBalanceToOwner() payable external onlyCreator{\r\n        orbsGod.transfer(address(this).balance);\r\n    }\r\n\r\n    modifier onlyOwnerOfToken(uint256 tokenId){\r\n        require(msg.sender == ownerOf(tokenId), 'only creator of the token');\r\n        _;\r\n    }\r\n\r\n    modifier onlyCreator{\r\n        require(msg.sender == orbsGod, 'only creator');\r\n        _;\r\n    }\r\n\r\n\r\n}",
  "sourcePath": "C:/Users/Usuario/Desktop/ORBS_PROJECT/OrbsContract/contracts/Orbs.sol",
  "compiler": {
    "name": "solc",
    "version": "0.8.0+commit.c7dfd78e.Emscripten.clang"
  },
  "schemaVersion": "3.4.1",
  "updatedAt": "2021-07-28T02:33:15.522Z",
  "networkType": "ethereum",
  "devdoc": {
    "kind": "dev",
    "methods": {
      "approve(address,uint256)": {
        "details": "See {IERC721-approve}."
      },
      "balanceOf(address)": {
        "details": "See {IERC721-balanceOf}."
      },
      "getApproved(uint256)": {
        "details": "See {IERC721-getApproved}."
      },
      "isApprovedForAll(address,address)": {
        "details": "See {IERC721-isApprovedForAll}."
      },
      "name()": {
        "details": "See {IERC721Metadata-name}."
      },
      "ownerOf(uint256)": {
        "details": "See {IERC721-ownerOf}."
      },
      "safeTransferFrom(address,address,uint256)": {
        "details": "See {IERC721-safeTransferFrom}."
      },
      "safeTransferFrom(address,address,uint256,bytes)": {
        "details": "See {IERC721-safeTransferFrom}."
      },
      "setApprovalForAll(address,bool)": {
        "details": "See {IERC721-setApprovalForAll}."
      },
      "supportsInterface(bytes4)": {
        "details": "See {IERC165-supportsInterface}."
      },
      "symbol()": {
        "details": "See {IERC721Metadata-symbol}."
      },
      "tokenURI(uint256)": {
        "details": "See {IERC721Metadata-tokenURI}."
      },
      "transferFrom(address,address,uint256)": {
        "details": "See {IERC721-transferFrom}."
      }
    },
    "version": 1
  },
  "userdoc": {
    "kind": "user",
    "methods": {},
    "version": 1
  }
}