{
  "contractName": "Orbs",
  "abi": [
    {
      "inputs": [],
      "stateMutability": "nonpayable",
      "type": "constructor"
    },
    {
      "anonymous": false,
      "inputs": [
        {
          "indexed": true,
          "internalType": "address",
          "name": "owner",
          "type": "address"
        },
        {
          "indexed": true,
          "internalType": "address",
          "name": "approved",
          "type": "address"
        },
        {
          "indexed": true,
          "internalType": "uint256",
          "name": "tokenId",
          "type": "uint256"
        }
      ],
      "name": "Approval",
      "type": "event"
    },
    {
      "anonymous": false,
      "inputs": [
        {
          "indexed": true,
          "internalType": "address",
          "name": "owner",
          "type": "address"
        },
        {
          "indexed": true,
          "internalType": "address",
          "name": "operator",
          "type": "address"
        },
        {
          "indexed": false,
          "internalType": "bool",
          "name": "approved",
          "type": "bool"
        }
      ],
      "name": "ApprovalForAll",
      "type": "event"
    },
    {
      "anonymous": false,
      "inputs": [
        {
          "indexed": true,
          "internalType": "address",
          "name": "from",
          "type": "address"
        },
        {
          "indexed": true,
          "internalType": "address",
          "name": "to",
          "type": "address"
        },
        {
          "indexed": true,
          "internalType": "uint256",
          "name": "tokenId",
          "type": "uint256"
        }
      ],
      "name": "Transfer",
      "type": "event"
    },
    {
      "inputs": [
        {
          "internalType": "address",
          "name": "to",
          "type": "address"
        },
        {
          "internalType": "uint256",
          "name": "tokenId",
          "type": "uint256"
        }
      ],
      "name": "approve",
      "outputs": [],
      "stateMutability": "nonpayable",
      "type": "function"
    },
    {
      "inputs": [
        {
          "internalType": "address",
          "name": "owner",
          "type": "address"
        }
      ],
      "name": "balanceOf",
      "outputs": [
        {
          "internalType": "uint256",
          "name": "",
          "type": "uint256"
        }
      ],
      "stateMutability": "view",
      "type": "function",
      "constant": true
    },
    {
      "inputs": [
        {
          "internalType": "uint256",
          "name": "tokenId",
          "type": "uint256"
        }
      ],
      "name": "getApproved",
      "outputs": [
        {
          "internalType": "address",
          "name": "",
          "type": "address"
        }
      ],
      "stateMutability": "view",
      "type": "function",
      "constant": true
    },
    {
      "inputs": [
        {
          "internalType": "address",
          "name": "owner",
          "type": "address"
        },
        {
          "internalType": "address",
          "name": "operator",
          "type": "address"
        }
      ],
      "name": "isApprovedForAll",
      "outputs": [
        {
          "internalType": "bool",
          "name": "",
          "type": "bool"
        }
      ],
      "stateMutability": "view",
      "type": "function",
      "constant": true
    },
    {
      "inputs": [],
      "name": "name",
      "outputs": [
        {
          "internalType": "string",
          "name": "",
          "type": "string"
        }
      ],
      "stateMutability": "view",
      "type": "function",
      "constant": true
    },
    {
      "inputs": [
        {
          "internalType": "uint256",
          "name": "tokenId",
          "type": "uint256"
        }
      ],
      "name": "ownerOf",
      "outputs": [
        {
          "internalType": "address",
          "name": "",
          "type": "address"
        }
      ],
      "stateMutability": "view",
      "type": "function",
      "constant": true
    },
    {
      "inputs": [
        {
          "internalType": "address",
          "name": "from",
          "type": "address"
        },
        {
          "internalType": "address",
          "name": "to",
          "type": "address"
        },
        {
          "internalType": "uint256",
          "name": "tokenId",
          "type": "uint256"
        }
      ],
      "name": "safeTransferFrom",
      "outputs": [],
      "stateMutability": "nonpayable",
      "type": "function"
    },
    {
      "inputs": [
        {
          "internalType": "address",
          "name": "from",
          "type": "address"
        },
        {
          "internalType": "address",
          "name": "to",
          "type": "address"
        },
        {
          "internalType": "uint256",
          "name": "tokenId",
          "type": "uint256"
        },
        {
          "internalType": "bytes",
          "name": "_data",
          "type": "bytes"
        }
      ],
      "name": "safeTransferFrom",
      "outputs": [],
      "stateMutability": "nonpayable",
      "type": "function"
    },
    {
      "inputs": [
        {
          "internalType": "address",
          "name": "operator",
          "type": "address"
        },
        {
          "internalType": "bool",
          "name": "approved",
          "type": "bool"
        }
      ],
      "name": "setApprovalForAll",
      "outputs": [],
      "stateMutability": "nonpayable",
      "type": "function"
    },
    {
      "inputs": [
        {
          "internalType": "bytes4",
          "name": "interfaceId",
          "type": "bytes4"
        }
      ],
      "name": "supportsInterface",
      "outputs": [
        {
          "internalType": "bool",
          "name": "",
          "type": "bool"
        }
      ],
      "stateMutability": "view",
      "type": "function",
      "constant": true
    },
    {
      "inputs": [],
      "name": "symbol",
      "outputs": [
        {
          "internalType": "string",
          "name": "",
          "type": "string"
        }
      ],
      "stateMutability": "view",
      "type": "function",
      "constant": true
    },
    {
      "inputs": [
        {
          "internalType": "uint256",
          "name": "tokenId",
          "type": "uint256"
        }
      ],
      "name": "tokenURI",
      "outputs": [
        {
          "internalType": "string",
          "name": "",
          "type": "string"
        }
      ],
      "stateMutability": "view",
      "type": "function",
      "constant": true
    },
    {
      "inputs": [
        {
          "internalType": "address",
          "name": "from",
          "type": "address"
        },
        {
          "internalType": "address",
          "name": "to",
          "type": "address"
        },
        {
          "internalType": "uint256",
          "name": "tokenId",
          "type": "uint256"
        }
      ],
      "name": "transferFrom",
      "outputs": [],
      "stateMutability": "nonpayable",
      "type": "function"
    },
    {
      "inputs": [
        {
          "internalType": "uint256",
          "name": "tokenId",
          "type": "uint256"
        },
        {
          "internalType": "uint256",
          "name": "_price",
          "type": "uint256"
        }
      ],
      "name": "setTokenPrice",
      "outputs": [],
      "stateMutability": "nonpayable",
      "type": "function"
    },
    {
      "inputs": [
        {
          "internalType": "address",
          "name": "_owner",
          "type": "address"
        },
        {
          "internalType": "string",
          "name": "_tone",
          "type": "string"
        },
        {
          "internalType": "string",
          "name": "_note",
          "type": "string"
        },
        {
          "internalType": "string",
          "name": "_time",
          "type": "string"
        },
        {
          "internalType": "string",
          "name": "_hashmark",
          "type": "string"
        }
      ],
      "name": "mintCollectable",
      "outputs": [
        {
          "internalType": "uint256",
          "name": "",
          "type": "uint256"
        }
      ],
      "stateMutability": "nonpayable",
      "type": "function"
    }
  ],
  "bytecode": "0x60806040523480156200001157600080fd5b506040518060400160405280600481526020017f4f726273000000000000000000000000000000000000000000000000000000008152506040518060400160405280600481526020017f4f52425300000000000000000000000000000000000000000000000000000000815250816000908051906020019062000096929190620000b8565b508060019080519060200190620000af929190620000b8565b505050620001cd565b828054620000c69062000168565b90600052602060002090601f016020900481019282620000ea576000855562000136565b82601f106200010557805160ff191683800117855562000136565b8280016001018555821562000136579182015b828111156200013557825182559160200191906001019062000118565b5b50905062000145919062000149565b5090565b5b80821115620001645760008160009055506001016200014a565b5090565b600060028204905060018216806200018157607f821691505b602082108114156200019857620001976200019e565b5b50919050565b7f4e487b7100000000000000000000000000000000000000000000000000000000600052602260045260246000fd5b612a4680620001dd6000396000f3fe608060405234801561001057600080fd5b50600436106100f55760003560e01c806370a0823111610097578063c87b56dd11610066578063c87b56dd14610282578063d5784330146102b2578063e985e9c5146102e2578063eb685c4714610312576100f5565b806370a08231146101fc57806395d89b411461022c578063a22cb4651461024a578063b88d4fde14610266576100f5565b8063095ea7b3116100d3578063095ea7b31461017857806323b872dd1461019457806342842e0e146101b05780636352211e146101cc576100f5565b806301ffc9a7146100fa57806306fdde031461012a578063081812fc14610148575b600080fd5b610114600480360381019061010f9190611c24565b61032e565b60405161012191906123be565b60405180910390f35b610132610410565b60405161013f91906123d9565b60405180910390f35b610162600480360381019061015d9190611c76565b6104a2565b60405161016f9190612357565b60405180910390f35b610192600480360381019061018d9190611be8565b610527565b005b6101ae60048036038101906101a99190611a0b565b61063f565b005b6101ca60048036038101906101c59190611a0b565b61069f565b005b6101e660048036038101906101e19190611c76565b6106bf565b6040516101f39190612357565b60405180910390f35b610216600480360381019061021191906119a6565b610771565b60405161022391906125db565b60405180910390f35b610234610829565b60405161024191906123d9565b60405180910390f35b610264600480360381019061025f9190611ad5565b6108bb565b005b610280600480360381019061027b9190611a5a565b610a3c565b005b61029c60048036038101906102979190611c76565b610a9e565b6040516102a991906123d9565b60405180910390f35b6102cc60048036038101906102c79190611b11565b610b45565b6040516102d991906125db565b60405180910390f35b6102fc60048036038101906102f791906119cf565b610c3d565b60405161030991906123be565b60405180910390f35b61032c60048036038101906103279190611c9f565b610cd1565b005b60007f80ac58cd000000000000000000000000000000000000000000000000000000007bffffffffffffffffffffffffffffffffffffffffffffffffffffffff1916827bffffffffffffffffffffffffffffffffffffffffffffffffffffffff191614806103f957507f5b5e139f000000000000000000000000000000000000000000000000000000007bffffffffffffffffffffffffffffffffffffffffffffffffffffffff1916827bffffffffffffffffffffffffffffffffffffffffffffffffffffffff1916145b80610409575061040882610d38565b5b9050919050565b60606000805461041f9061283b565b80601f016020809104026020016040519081016040528092919081815260200182805461044b9061283b565b80156104985780601f1061046d57610100808354040283529160200191610498565b820191906000526020600020905b81548152906001019060200180831161047b57829003601f168201915b5050505050905090565b60006104ad82610da2565b6104ec576040517f08c379a00000000000000000000000000000000000000000000000000000000081526004016104e39061251b565b60405180910390fd5b6004600083815260200190815260200160002060009054906101000a900473ffffffffffffffffffffffffffffffffffffffff169050919050565b6000610532826106bf565b90508073ffffffffffffffffffffffffffffffffffffffff168373ffffffffffffffffffffffffffffffffffffffff1614156105a3576040517f08c379a000000000000000000000000000000000000000000000000000000000815260040161059a9061259b565b60405180910390fd5b8073ffffffffffffffffffffffffffffffffffffffff166105c2610e0e565b73ffffffffffffffffffffffffffffffffffffffff1614806105f157506105f0816105eb610e0e565b610c3d565b5b610630576040517f08c379a00000000000000000000000000000000000000000000000000000000081526004016106279061249b565b60405180910390fd5b61063a8383610e16565b505050565b61065061064a610e0e565b82610ecf565b61068f576040517f08c379a0000000000000000000000000000000000000000000000000000000008152600401610686906125bb565b60405180910390fd5b61069a838383610fad565b505050565b6106ba83838360405180602001604052806000815250610a3c565b505050565b6000806002600084815260200190815260200160002060009054906101000a900473ffffffffffffffffffffffffffffffffffffffff169050600073ffffffffffffffffffffffffffffffffffffffff168173ffffffffffffffffffffffffffffffffffffffff161415610768576040517f08c379a000000000000000000000000000000000000000000000000000000000815260040161075f906124db565b60405180910390fd5b80915050919050565b60008073ffffffffffffffffffffffffffffffffffffffff168273ffffffffffffffffffffffffffffffffffffffff1614156107e2576040517f08c379a00000000000000000000000000000000000000000000000000000000081526004016107d9906124bb565b60405180910390fd5b600360008373ffffffffffffffffffffffffffffffffffffffff1673ffffffffffffffffffffffffffffffffffffffff168152602001908152602001600020549050919050565b6060600180546108389061283b565b80601f01602080910402602001604051908101604052809291908181526020018280546108649061283b565b80156108b15780601f10610886576101008083540402835291602001916108b1565b820191906000526020600020905b81548152906001019060200180831161089457829003601f168201915b5050505050905090565b6108c3610e0e565b73ffffffffffffffffffffffffffffffffffffffff168273ffffffffffffffffffffffffffffffffffffffff161415610931576040517f08c379a00000000000000000000000000000000000000000000000000000000081526004016109289061245b565b60405180910390fd5b806005600061093e610e0e565b73ffffffffffffffffffffffffffffffffffffffff1673ffffffffffffffffffffffffffffffffffffffff16815260200190815260200160002060008473ffffffffffffffffffffffffffffffffffffffff1673ffffffffffffffffffffffffffffffffffffffff16815260200190815260200160002060006101000a81548160ff0219169083151502179055508173ffffffffffffffffffffffffffffffffffffffff166109eb610e0e565b73ffffffffffffffffffffffffffffffffffffffff167f17307eab39ab6107e8899845ad3d59bd9653f200f220920489ca2b5937696c3183604051610a3091906123be565b60405180910390a35050565b610a4d610a47610e0e565b83610ecf565b610a8c576040517f08c379a0000000000000000000000000000000000000000000000000000000008152600401610a83906125bb565b60405180910390fd5b610a9884848484611209565b50505050565b6060610aa982610da2565b610ae8576040517f08c379a0000000000000000000000000000000000000000000000000000000008152600401610adf9061257b565b60405180910390fd5b6000610af2611265565b90506000815111610b125760405180602001604052806000815250610b3d565b80610b1c8461127c565b604051602001610b2d929190612333565b6040516020818303038152906040525b915050919050565b6000610b516006611429565b6000610b5d600661143f565b9050610b69878261144d565b80600760008381526020019081526020016000206000018190555085600760008381526020019081526020016000206001019080519060200190610bae9291906117ca565b5084600760008381526020019081526020016000206001019080519060200190610bd99291906117ca565b5083600760008381526020019081526020016000206001019080519060200190610c049291906117ca565b5082600760008381526020019081526020016000206001019080519060200190610c2f9291906117ca565b508091505095945050505050565b6000600560008473ffffffffffffffffffffffffffffffffffffffff1673ffffffffffffffffffffffffffffffffffffffff16815260200190815260200160002060008373ffffffffffffffffffffffffffffffffffffffff1673ffffffffffffffffffffffffffffffffffffffff16815260200190815260200160002060009054906101000a900460ff16905092915050565b610cda82610da2565b610d19576040517f08c379a0000000000000000000000000000000000000000000000000000000008152600401610d109061253b565b60405180910390fd5b8060076000848152602001908152602001600020600501819055505050565b60007f01ffc9a7000000000000000000000000000000000000000000000000000000007bffffffffffffffffffffffffffffffffffffffffffffffffffffffff1916827bffffffffffffffffffffffffffffffffffffffffffffffffffffffff1916149050919050565b60008073ffffffffffffffffffffffffffffffffffffffff166002600084815260200190815260200160002060009054906101000a900473ffffffffffffffffffffffffffffffffffffffff1673ffffffffffffffffffffffffffffffffffffffff1614159050919050565b600033905090565b816004600083815260200190815260200160002060006101000a81548173ffffffffffffffffffffffffffffffffffffffff021916908373ffffffffffffffffffffffffffffffffffffffff160217905550808273ffffffffffffffffffffffffffffffffffffffff16610e89836106bf565b73ffffffffffffffffffffffffffffffffffffffff167f8c5be1e5ebec7d5bd14f71427d1e84f3dd0314c0f7b2291e5b200ac8c7c3b92560405160405180910390a45050565b6000610eda82610da2565b610f19576040517f08c379a0000000000000000000000000000000000000000000000000000000008152600401610f109061247b565b60405180910390fd5b6000610f24836106bf565b90508073ffffffffffffffffffffffffffffffffffffffff168473ffffffffffffffffffffffffffffffffffffffff161480610f9357508373ffffffffffffffffffffffffffffffffffffffff16610f7b846104a2565b73ffffffffffffffffffffffffffffffffffffffff16145b80610fa45750610fa38185610c3d565b5b91505092915050565b8273ffffffffffffffffffffffffffffffffffffffff16610fcd826106bf565b73ffffffffffffffffffffffffffffffffffffffff1614611023576040517f08c379a000000000000000000000000000000000000000000000000000000000815260040161101a9061255b565b60405180910390fd5b600073ffffffffffffffffffffffffffffffffffffffff168273ffffffffffffffffffffffffffffffffffffffff161415611093576040517f08c379a000000000000000000000000000000000000000000000000000000000815260040161108a9061243b565b60405180910390fd5b61109e83838361161b565b6110a9600082610e16565b6001600360008573ffffffffffffffffffffffffffffffffffffffff1673ffffffffffffffffffffffffffffffffffffffff16815260200190815260200160002060008282546110f99190612751565b925050819055506001600360008473ffffffffffffffffffffffffffffffffffffffff1673ffffffffffffffffffffffffffffffffffffffff168152602001908152602001600020600082825461115091906126ca565b92505081905550816002600083815260200190815260200160002060006101000a81548173ffffffffffffffffffffffffffffffffffffffff021916908373ffffffffffffffffffffffffffffffffffffffff160217905550808273ffffffffffffffffffffffffffffffffffffffff168473ffffffffffffffffffffffffffffffffffffffff167fddf252ad1be2c89b69c2b068fc378daa952ba7f163c4a11628f55a4df523b3ef60405160405180910390a4505050565b611214848484610fad565b61122084848484611620565b61125f576040517f08c379a0000000000000000000000000000000000000000000000000000000008152600401611256906123fb565b60405180910390fd5b50505050565b606060405180602001604052806000815250905090565b606060008214156112c4576040518060400160405280600181526020017f30000000000000000000000000000000000000000000000000000000000000008152509050611424565b600082905060005b600082146112f65780806112df9061286d565b915050600a826112ef9190612720565b91506112cc565b60008167ffffffffffffffff811115611338577f4e487b7100000000000000000000000000000000000000000000000000000000600052604160045260246000fd5b6040519080825280601f01601f19166020018201604052801561136a5781602001600182028036833780820191505090505b5090505b6000851461141d576001826113839190612751565b9150600a8561139291906128b6565b603061139e91906126ca565b60f81b8183815181106113da577f4e487b7100000000000000000000000000000000000000000000000000000000600052603260045260246000fd5b60200101907effffffffffffffffffffffffffffffffffffffffffffffffffffffffffffff1916908160001a905350600a856114169190612720565b945061136e565b8093505050505b919050565b6001816000016000828254019250508190555050565b600081600001549050919050565b600073ffffffffffffffffffffffffffffffffffffffff168273ffffffffffffffffffffffffffffffffffffffff1614156114bd576040517f08c379a00000000000000000000000000000000000000000000000000000000081526004016114b4906124fb565b60405180910390fd5b6114c681610da2565b15611506576040517f08c379a00000000000000000000000000000000000000000000000000000000081526004016114fd9061241b565b60405180910390fd5b6115126000838361161b565b6001600360008473ffffffffffffffffffffffffffffffffffffffff1673ffffffffffffffffffffffffffffffffffffffff168152602001908152602001600020600082825461156291906126ca565b92505081905550816002600083815260200190815260200160002060006101000a81548173ffffffffffffffffffffffffffffffffffffffff021916908373ffffffffffffffffffffffffffffffffffffffff160217905550808273ffffffffffffffffffffffffffffffffffffffff16600073ffffffffffffffffffffffffffffffffffffffff167fddf252ad1be2c89b69c2b068fc378daa952ba7f163c4a11628f55a4df523b3ef60405160405180910390a45050565b505050565b60006116418473ffffffffffffffffffffffffffffffffffffffff166117b7565b156117aa578373ffffffffffffffffffffffffffffffffffffffff1663150b7a0261166a610e0e565b8786866040518563ffffffff1660e01b815260040161168c9493929190612372565b602060405180830381600087803b1580156116a657600080fd5b505af19250505080156116d757506040513d601f19601f820116820180604052508101906116d49190611c4d565b60015b61175a573d8060008114611707576040519150601f19603f3d011682016040523d82523d6000602084013e61170c565b606091505b50600081511415611752576040517f08c379a0000000000000000000000000000000000000000000000000000000008152600401611749906123fb565b60405180910390fd5b805181602001fd5b63150b7a0260e01b7bffffffffffffffffffffffffffffffffffffffffffffffffffffffff1916817bffffffffffffffffffffffffffffffffffffffffffffffffffffffff1916149150506117af565b600190505b949350505050565b600080823b905060008111915050919050565b8280546117d69061283b565b90600052602060002090601f0160209004810192826117f8576000855561183f565b82601f1061181157805160ff191683800117855561183f565b8280016001018555821561183f579182015b8281111561183e578251825591602001919060010190611823565b5b50905061184c9190611850565b5090565b5b80821115611869576000816000905550600101611851565b5090565b600061188061187b84612627565b6125f6565b90508281526020810184848401111561189857600080fd5b6118a38482856127f9565b509392505050565b60006118be6118b984612657565b6125f6565b9050828152602081018484840111156118d657600080fd5b6118e18482856127f9565b509392505050565b6000813590506118f8816129b4565b92915050565b60008135905061190d816129cb565b92915050565b600081359050611922816129e2565b92915050565b600081519050611937816129e2565b92915050565b600082601f83011261194e57600080fd5b813561195e84826020860161186d565b91505092915050565b600082601f83011261197857600080fd5b81356119888482602086016118ab565b91505092915050565b6000813590506119a0816129f9565b92915050565b6000602082840312156119b857600080fd5b60006119c6848285016118e9565b91505092915050565b600080604083850312156119e257600080fd5b60006119f0858286016118e9565b9250506020611a01858286016118e9565b9150509250929050565b600080600060608486031215611a2057600080fd5b6000611a2e868287016118e9565b9350506020611a3f868287016118e9565b9250506040611a5086828701611991565b9150509250925092565b60008060008060808587031215611a7057600080fd5b6000611a7e878288016118e9565b9450506020611a8f878288016118e9565b9350506040611aa087828801611991565b925050606085013567ffffffffffffffff811115611abd57600080fd5b611ac98782880161193d565b91505092959194509250565b60008060408385031215611ae857600080fd5b6000611af6858286016118e9565b9250506020611b07858286016118fe565b9150509250929050565b600080600080600060a08688031215611b2957600080fd5b6000611b37888289016118e9565b955050602086013567ffffffffffffffff811115611b5457600080fd5b611b6088828901611967565b945050604086013567ffffffffffffffff811115611b7d57600080fd5b611b8988828901611967565b935050606086013567ffffffffffffffff811115611ba657600080fd5b611bb288828901611967565b925050608086013567ffffffffffffffff811115611bcf57600080fd5b611bdb88828901611967565b9150509295509295909350565b60008060408385031215611bfb57600080fd5b6000611c09858286016118e9565b9250506020611c1a85828601611991565b9150509250929050565b600060208284031215611c3657600080fd5b6000611c4484828501611913565b91505092915050565b600060208284031215611c5f57600080fd5b6000611c6d84828501611928565b91505092915050565b600060208284031215611c8857600080fd5b6000611c9684828501611991565b91505092915050565b60008060408385031215611cb257600080fd5b6000611cc085828601611991565b9250506020611cd185828601611991565b9150509250929050565b611ce481612785565b82525050565b611cf381612797565b82525050565b6000611d0482612687565b611d0e818561269d565b9350611d1e818560208601612808565b611d27816129a3565b840191505092915050565b6000611d3d82612692565b611d4781856126ae565b9350611d57818560208601612808565b611d60816129a3565b840191505092915050565b6000611d7682612692565b611d8081856126bf565b9350611d90818560208601612808565b80840191505092915050565b6000611da96032836126ae565b91507f4552433732313a207472616e7366657220746f206e6f6e20455243373231526560008301527f63656976657220696d706c656d656e74657200000000000000000000000000006020830152604082019050919050565b6000611e0f601c836126ae565b91507f4552433732313a20746f6b656e20616c7265616479206d696e746564000000006000830152602082019050919050565b6000611e4f6024836126ae565b91507f4552433732313a207472616e7366657220746f20746865207a65726f2061646460008301527f72657373000000000000000000000000000000000000000000000000000000006020830152604082019050919050565b6000611eb56019836126ae565b91507f4552433732313a20617070726f766520746f2063616c6c6572000000000000006000830152602082019050919050565b6000611ef5602c836126ae565b91507f4552433732313a206f70657261746f7220717565727920666f72206e6f6e657860008301527f697374656e7420746f6b656e00000000000000000000000000000000000000006020830152604082019050919050565b6000611f5b6038836126ae565b91507f4552433732313a20617070726f76652063616c6c6572206973206e6f74206f7760008301527f6e6572206e6f7220617070726f76656420666f7220616c6c00000000000000006020830152604082019050919050565b6000611fc1602a836126ae565b91507f4552433732313a2062616c616e636520717565727920666f7220746865207a6560008301527f726f2061646472657373000000000000000000000000000000000000000000006020830152604082019050919050565b60006120276029836126ae565b91507f4552433732313a206f776e657220717565727920666f72206e6f6e657869737460008301527f656e7420746f6b656e00000000000000000000000000000000000000000000006020830152604082019050919050565b600061208d6020836126ae565b91507f4552433732313a206d696e7420746f20746865207a65726f20616464726573736000830152602082019050919050565b60006120cd602c836126ae565b91507f4552433732313a20617070726f76656420717565727920666f72206e6f6e657860008301527f697374656e7420746f6b656e00000000000000000000000000000000000000006020830152604082019050919050565b6000612133602e836126ae565b91507f4552433732314d657461646174613a20507269636520736574206f66206e6f6e60008301527f6578697374656e7420746f6b656e0000000000000000000000000000000000006020830152604082019050919050565b60006121996029836126ae565b91507f4552433732313a207472616e73666572206f6620746f6b656e2074686174206960008301527f73206e6f74206f776e00000000000000000000000000000000000000000000006020830152604082019050919050565b60006121ff602f836126ae565b91507f4552433732314d657461646174613a2055524920717565727920666f72206e6f60008301527f6e6578697374656e7420746f6b656e00000000000000000000000000000000006020830152604082019050919050565b60006122656021836126ae565b91507f4552433732313a20617070726f76616c20746f2063757272656e74206f776e6560008301527f72000000000000000000000000000000000000000000000000000000000000006020830152604082019050919050565b60006122cb6031836126ae565b91507f4552433732313a207472616e736665722063616c6c6572206973206e6f74206f60008301527f776e6572206e6f7220617070726f7665640000000000000000000000000000006020830152604082019050919050565b61232d816127ef565b82525050565b600061233f8285611d6b565b915061234b8284611d6b565b91508190509392505050565b600060208201905061236c6000830184611cdb565b92915050565b60006080820190506123876000830187611cdb565b6123946020830186611cdb565b6123a16040830185612324565b81810360608301526123b38184611cf9565b905095945050505050565b60006020820190506123d36000830184611cea565b92915050565b600060208201905081810360008301526123f38184611d32565b905092915050565b6000602082019050818103600083015261241481611d9c565b9050919050565b6000602082019050818103600083015261243481611e02565b9050919050565b6000602082019050818103600083015261245481611e42565b9050919050565b6000602082019050818103600083015261247481611ea8565b9050919050565b6000602082019050818103600083015261249481611ee8565b9050919050565b600060208201905081810360008301526124b481611f4e565b9050919050565b600060208201905081810360008301526124d481611fb4565b9050919050565b600060208201905081810360008301526124f48161201a565b9050919050565b6000602082019050818103600083015261251481612080565b9050919050565b60006020820190508181036000830152612534816120c0565b9050919050565b6000602082019050818103600083015261255481612126565b9050919050565b600060208201905081810360008301526125748161218c565b9050919050565b60006020820190508181036000830152612594816121f2565b9050919050565b600060208201905081810360008301526125b481612258565b9050919050565b600060208201905081810360008301526125d4816122be565b9050919050565b60006020820190506125f06000830184612324565b92915050565b6000604051905081810181811067ffffffffffffffff8211171561261d5761261c612974565b5b8060405250919050565b600067ffffffffffffffff82111561264257612641612974565b5b601f19601f8301169050602081019050919050565b600067ffffffffffffffff82111561267257612671612974565b5b601f19601f8301169050602081019050919050565b600081519050919050565b600081519050919050565b600082825260208201905092915050565b600082825260208201905092915050565b600081905092915050565b60006126d5826127ef565b91506126e0836127ef565b9250827fffffffffffffffffffffffffffffffffffffffffffffffffffffffffffffffff03821115612715576127146128e7565b5b828201905092915050565b600061272b826127ef565b9150612736836127ef565b92508261274657612745612916565b5b828204905092915050565b600061275c826127ef565b9150612767836127ef565b92508282101561277a576127796128e7565b5b828203905092915050565b6000612790826127cf565b9050919050565b60008115159050919050565b60007fffffffff0000000000000000000000000000000000000000000000000000000082169050919050565b600073ffffffffffffffffffffffffffffffffffffffff82169050919050565b6000819050919050565b82818337600083830152505050565b60005b8381101561282657808201518184015260208101905061280b565b83811115612835576000848401525b50505050565b6000600282049050600182168061285357607f821691505b6020821081141561286757612866612945565b5b50919050565b6000612878826127ef565b91507fffffffffffffffffffffffffffffffffffffffffffffffffffffffffffffffff8214156128ab576128aa6128e7565b5b600182019050919050565b60006128c1826127ef565b91506128cc836127ef565b9250826128dc576128db612916565b5b828206905092915050565b7f4e487b7100000000000000000000000000000000000000000000000000000000600052601160045260246000fd5b7f4e487b7100000000000000000000000000000000000000000000000000000000600052601260045260246000fd5b7f4e487b7100000000000000000000000000000000000000000000000000000000600052602260045260246000fd5b7f4e487b7100000000000000000000000000000000000000000000000000000000600052604160045260246000fd5b6000601f19601f8301169050919050565b6129bd81612785565b81146129c857600080fd5b50565b6129d481612797565b81146129df57600080fd5b50565b6129eb816127a3565b81146129f657600080fd5b50565b612a02816127ef565b8114612a0d57600080fd5b5056fea264697066735822122084d6a90841ef68a683b4b52de38c80b762f8ede459b6379d92d75ddde57ab4d264736f6c63430008000033",
  "immutableReferences": {},
  "source": "// SPDX-License-Identifier: MIT\r\npragma solidity ^0.8.0;\r\n\r\nimport \"@openzeppelin/contracts/token/ERC721/ERC721.sol\";\r\nimport \"@openzeppelin/contracts/utils/Counters.sol\";\r\n\r\ncontract Orbs is ERC721{\r\n    using Counters for Counters.Counter;\r\n    Counters.Counter private _tokenIds;\r\n\r\n    mapping (uint256 => TokenProps) private _tokenData;\r\n    // event Sent(address indexed payee, uint256 amount, uint256 balance);\r\n    // event Received(address indexed payer, uint tokenId, uint256 amount, uint256 balance);\r\n\r\n    struct TokenProps {\r\n        uint256 id;\r\n        string tone;\r\n        string note;\r\n        string time;\r\n        string hashmark;\r\n        uint256 price;\r\n    }\r\n\r\n\r\n    constructor() ERC721(\"Orbs\", \"ORBS\") {\r\n    }\r\n\r\n\r\n    function setTokenPrice(uint256 tokenId, uint256 _price) public {\r\n        require(_exists(tokenId), \"ERC721Metadata: Price set of nonexistent token\");\r\n       _tokenData[tokenId].price=_price;\r\n    }\r\n\r\n    function mintCollectable(address _owner, string memory _tone, string memory _note, string memory _time, string memory _hashmark)\r\n        public\r\n        returns (uint256)\r\n    {\r\n        _tokenIds.increment();\r\n        uint256 newItemId = _tokenIds.current();\r\n        _mint(_owner, newItemId);\r\n        _tokenData[newItemId].id=newItemId;\r\n        _tokenData[newItemId].tone=_tone;\r\n        _tokenData[newItemId].tone=_note;\r\n        _tokenData[newItemId].tone=_time;\r\n        _tokenData[newItemId].tone=_hashmark;\r\n\r\n        return newItemId;\r\n    }\r\n\r\n\r\n}",
  "sourcePath": "C:/Users/Usuario/Desktop/NEW_PROJECT/music_generator/nftContract/contracts/Orbs.sol",
  "compiler": {
    "name": "solc",
    "version": "0.8.0+commit.c7dfd78e.Emscripten.clang"
  },
  "schemaVersion": "3.4.1",
  "updatedAt": "2021-07-25T02:23:40.167Z",
  "networkType": "ethereum",
  "devdoc": {
    "kind": "dev",
    "methods": {
      "approve(address,uint256)": {
        "details": "See {IERC721-approve}."
      },
      "balanceOf(address)": {
        "details": "See {IERC721-balanceOf}."
      },
      "getApproved(uint256)": {
        "details": "See {IERC721-getApproved}."
      },
      "isApprovedForAll(address,address)": {
        "details": "See {IERC721-isApprovedForAll}."
      },
      "name()": {
        "details": "See {IERC721Metadata-name}."
      },
      "ownerOf(uint256)": {
        "details": "See {IERC721-ownerOf}."
      },
      "safeTransferFrom(address,address,uint256)": {
        "details": "See {IERC721-safeTransferFrom}."
      },
      "safeTransferFrom(address,address,uint256,bytes)": {
        "details": "See {IERC721-safeTransferFrom}."
      },
      "setApprovalForAll(address,bool)": {
        "details": "See {IERC721-setApprovalForAll}."
      },
      "supportsInterface(bytes4)": {
        "details": "See {IERC165-supportsInterface}."
      },
      "symbol()": {
        "details": "See {IERC721Metadata-symbol}."
      },
      "tokenURI(uint256)": {
        "details": "See {IERC721Metadata-tokenURI}."
      },
      "transferFrom(address,address,uint256)": {
        "details": "See {IERC721-transferFrom}."
      }
    },
    "version": 1
  },
  "userdoc": {
    "kind": "user",
    "methods": {},
    "version": 1
  }
}